{"contracts/AccessContract.sol":{"AccessContract":{"abi":[{"inputs":[{"internalType":"address","name":"availableContract","type":"address"}],"name":"AccessContract_AlreadyAvailableContractAdded","type":"error"},{"inputs":[],"name":"AccessContract_ZeroAddress","type":"error"},{"inputs":[],"name":"Ownable_CallerIsNotPendingOwner","type":"error"},{"inputs":[],"name":"Ownable_CallerIsNotTheOwner","type":"error"},{"inputs":[],"name":"Ownable_NewOwnerMustBeADifferentAddressThanTheCurrentOwner","type":"error"},{"anonymous":false,"inputs":[{"indexed":false,"internalType":"address","name":"removedContractAddress","type":"address"}],"name":"AvailableContractAddressRemoved","type":"event"},{"anonymous":false,"inputs":[{"indexed":false,"internalType":"address","name":"newContractAddress","type":"address"}],"name":"NewAvailableContractAddressAdded","type":"event"},{"anonymous":false,"inputs":[{"indexed":true,"internalType":"address","name":"previousOwner","type":"address"},{"indexed":true,"internalType":"address","name":"newOwner","type":"address"}],"name":"OwnershipTransferred","type":"event"},{"inputs":[{"internalType":"address","name":"newContractAddress","type":"address"}],"name":"addNewAvailableContractAddress","outputs":[],"stateMutability":"nonpayable","type":"function"},{"inputs":[{"internalType":"address","name":"","type":"address"}],"name":"availableContracts","outputs":[{"internalType":"bool","name":"","type":"bool"}],"stateMutability":"view","type":"function"},{"inputs":[],"name":"claimOwnership","outputs":[],"stateMutability":"nonpayable","type":"function"},{"inputs":[],"name":"owner","outputs":[{"internalType":"address","name":"","type":"address"}],"stateMutability":"view","type":"function"},{"inputs":[],"name":"pendingOwner","outputs":[{"internalType":"address","name":"","type":"address"}],"stateMutability":"view","type":"function"},{"inputs":[{"internalType":"address","name":"removeContractAddress","type":"address"}],"name":"removeAvailableContractAddress","outputs":[],"stateMutability":"nonpayable","type":"function"},{"inputs":[{"internalType":"bool","name":"isRenounce","type":"bool"}],"name":"renounceOwnership","outputs":[],"stateMutability":"nonpayable","type":"function"},{"inputs":[{"internalType":"address","name":"newOwner","type":"address"},{"internalType":"bool","name":"direct","type":"bool"}],"name":"transferOwnership","outputs":[],"stateMutability":"nonpayable","type":"function"}],"evm":{"bytecode":{"linkReferences":{},"object":"608060405234801561001057600080fd5b5061001a3361001f565b61006a565b600080546001600160a01b0319166001600160a01b0383169081178255604051909182917f8be0079c531659141344cd1fd0a4f28419497f9722a3daafe3b4186f6b6457e09190a350565b61059d806100796000396000f3fe608060405234801561001057600080fd5b50600436106100885760003560e01c8063b242e5341161005b578063b242e53414610107578063c210b8651461011a578063e30c39781461012d578063e7c64f4e1461014057600080fd5b806316f4412a1461008d5780634e71e0c8146100c55780637e926b4b146100cf5780638da5cb5b146100e2575b600080fd5b6100b061009b3660046104e7565b60026020526000908152604090205460ff1681565b60405190151581526020015b60405180910390f35b6100cd610153565b005b6100cd6100dd366004610519565b6101a5565b6000546001600160a01b03165b6040516001600160a01b0390911681526020016100bc565b6100cd610115366004610534565b6101f2565b6100cd6101283660046104e7565b6102c6565b6001546100ef906001600160a01b031681565b6100cd61014e3660046104e7565b6103cd565b6001546001600160a01b0316331461017e57604051636afa1bbf60e11b815260040160405180910390fd5b600154610193906001600160a01b0316610480565b600180546001600160a01b0319169055565b336101b86000546001600160a01b031690565b6001600160a01b0316146101df5760405163a5653ae560e01b815260040160405180910390fd5b80156101ef576101ef6000610480565b50565b336102056000546001600160a01b031690565b6001600160a01b03161461022c5760405163a5653ae560e01b815260040160405180910390fd5b6001600160a01b0382166102535760405163a5653ae560e01b815260040160405180910390fd5b80156102a5576000546001600160a01b03908116908316036102885760405163d667803b60e01b815260040160405180910390fd5b61029182610480565b600180546001600160a01b03191690555050565b600180546001600160a01b0384166001600160a01b03199091161790555050565b806001600160a01b0381166102ee576040516393a6823560e01b815260040160405180910390fd5b336103016000546001600160a01b031690565b6001600160a01b0316146103285760405163a5653ae560e01b815260040160405180910390fd5b6001600160a01b03821660009081526002602052604090205460ff161561037157604051635bb7312160e11b81526001600160a01b038316600482015260240160405180910390fd5b6001600160a01b038216600081815260026020908152604091829020805460ff1916600117905590519182527f3aa524755829016034f2823014bac43ff6eef092909806f57e4630a3d218bfdc91015b60405180910390a15050565b806001600160a01b0381166103f5576040516393a6823560e01b815260040160405180910390fd5b336104086000546001600160a01b031690565b6001600160a01b03161461042f5760405163a5653ae560e01b815260040160405180910390fd5b6001600160a01b038216600081815260026020908152604091829020805460ff1916905590519182527fdb0953c6768f90a1ee20f851e0ac3aaebf04082e849a3059bc696df2b9483a0b91016103c1565b600080546001600160a01b0319166001600160a01b0383169081178255604051909182917f8be0079c531659141344cd1fd0a4f28419497f9722a3daafe3b4186f6b6457e09190a350565b80356001600160a01b03811681146104e257600080fd5b919050565b6000602082840312156104f957600080fd5b610502826104cb565b9392505050565b803580151581146104e257600080fd5b60006020828403121561052b57600080fd5b61050282610509565b6000806040838503121561054757600080fd5b610550836104cb565b915061055e60208401610509565b9050925092905056fea2646970667358221220d2655788130e5d0254fd439fbacca86a72f4aaa03cf5267412177b82fbd0c55764736f6c63430008110033","opcodes":"PUSH1 0x80 PUSH1 0x40 MSTORE CALLVALUE DUP1 ISZERO PUSH2 0x10 JUMPI PUSH1 0x0 DUP1 REVERT JUMPDEST POP PUSH2 0x1A CALLER PUSH2 0x1F JUMP JUMPDEST PUSH2 0x6A JUMP JUMPDEST PUSH1 0x0 DUP1 SLOAD PUSH1 0x1 PUSH1 0x1 PUSH1 0xA0 SHL SUB NOT AND PUSH1 0x1 PUSH1 0x1 PUSH1 0xA0 SHL SUB DUP4 AND SWAP1 DUP2 OR DUP3 SSTORE PUSH1 0x40 MLOAD SWAP1 SWAP2 DUP3 SWAP2 PUSH32 0x8BE0079C531659141344CD1FD0A4F28419497F9722A3DAAFE3B4186F6B6457E0 SWAP2 SWAP1 LOG3 POP JUMP JUMPDEST PUSH2 0x59D DUP1 PUSH2 0x79 PUSH1 0x0 CODECOPY PUSH1 0x0 RETURN INVALID PUSH1 0x80 PUSH1 0x40 MSTORE CALLVALUE DUP1 ISZERO PUSH2 0x10 JUMPI PUSH1 0x0 DUP1 REVERT JUMPDEST POP PUSH1 0x4 CALLDATASIZE LT PUSH2 0x88 JUMPI PUSH1 0x0 CALLDATALOAD PUSH1 0xE0 SHR DUP1 PUSH4 0xB242E534 GT PUSH2 0x5B JUMPI DUP1 PUSH4 0xB242E534 EQ PUSH2 0x107 JUMPI DUP1 PUSH4 0xC210B865 EQ PUSH2 0x11A JUMPI DUP1 PUSH4 0xE30C3978 EQ PUSH2 0x12D JUMPI DUP1 PUSH4 0xE7C64F4E EQ PUSH2 0x140 JUMPI PUSH1 0x0 DUP1 REVERT JUMPDEST DUP1 PUSH4 0x16F4412A EQ PUSH2 0x8D JUMPI DUP1 PUSH4 0x4E71E0C8 EQ PUSH2 0xC5 JUMPI DUP1 PUSH4 0x7E926B4B EQ PUSH2 0xCF JUMPI DUP1 PUSH4 0x8DA5CB5B EQ PUSH2 0xE2 JUMPI JUMPDEST PUSH1 0x0 DUP1 REVERT JUMPDEST PUSH2 0xB0 PUSH2 0x9B CALLDATASIZE PUSH1 0x4 PUSH2 0x4E7 JUMP JUMPDEST PUSH1 0x2 PUSH1 0x20 MSTORE PUSH1 0x0 SWAP1 DUP2 MSTORE PUSH1 0x40 SWAP1 KECCAK256 SLOAD PUSH1 0xFF AND DUP2 JUMP JUMPDEST PUSH1 0x40 MLOAD SWAP1 ISZERO ISZERO DUP2 MSTORE PUSH1 0x20 ADD JUMPDEST PUSH1 0x40 MLOAD DUP1 SWAP2 SUB SWAP1 RETURN JUMPDEST PUSH2 0xCD PUSH2 0x153 JUMP JUMPDEST STOP JUMPDEST PUSH2 0xCD PUSH2 0xDD CALLDATASIZE PUSH1 0x4 PUSH2 0x519 JUMP JUMPDEST PUSH2 0x1A5 JUMP JUMPDEST PUSH1 0x0 SLOAD PUSH1 0x1 PUSH1 0x1 PUSH1 0xA0 SHL SUB AND JUMPDEST PUSH1 0x40 MLOAD PUSH1 0x1 PUSH1 0x1 PUSH1 0xA0 SHL SUB SWAP1 SWAP2 AND DUP2 MSTORE PUSH1 0x20 ADD PUSH2 0xBC JUMP JUMPDEST PUSH2 0xCD PUSH2 0x115 CALLDATASIZE PUSH1 0x4 PUSH2 0x534 JUMP JUMPDEST PUSH2 0x1F2 JUMP JUMPDEST PUSH2 0xCD PUSH2 0x128 CALLDATASIZE PUSH1 0x4 PUSH2 0x4E7 JUMP JUMPDEST PUSH2 0x2C6 JUMP JUMPDEST PUSH1 0x1 SLOAD PUSH2 0xEF SWAP1 PUSH1 0x1 PUSH1 0x1 PUSH1 0xA0 SHL SUB AND DUP2 JUMP JUMPDEST PUSH2 0xCD PUSH2 0x14E CALLDATASIZE PUSH1 0x4 PUSH2 0x4E7 JUMP JUMPDEST PUSH2 0x3CD JUMP JUMPDEST PUSH1 0x1 SLOAD PUSH1 0x1 PUSH1 0x1 PUSH1 0xA0 SHL SUB AND CALLER EQ PUSH2 0x17E JUMPI PUSH1 0x40 MLOAD PUSH4 0x6AFA1BBF PUSH1 0xE1 SHL DUP2 MSTORE PUSH1 0x4 ADD PUSH1 0x40 MLOAD DUP1 SWAP2 SUB SWAP1 REVERT JUMPDEST PUSH1 0x1 SLOAD PUSH2 0x193 SWAP1 PUSH1 0x1 PUSH1 0x1 PUSH1 0xA0 SHL SUB AND PUSH2 0x480 JUMP JUMPDEST PUSH1 0x1 DUP1 SLOAD PUSH1 0x1 PUSH1 0x1 PUSH1 0xA0 SHL SUB NOT AND SWAP1 SSTORE JUMP JUMPDEST CALLER PUSH2 0x1B8 PUSH1 0x0 SLOAD PUSH1 0x1 PUSH1 0x1 PUSH1 0xA0 SHL SUB AND SWAP1 JUMP JUMPDEST PUSH1 0x1 PUSH1 0x1 PUSH1 0xA0 SHL SUB AND EQ PUSH2 0x1DF JUMPI PUSH1 0x40 MLOAD PUSH4 0xA5653AE5 PUSH1 0xE0 SHL DUP2 MSTORE PUSH1 0x4 ADD PUSH1 0x40 MLOAD DUP1 SWAP2 SUB SWAP1 REVERT JUMPDEST DUP1 ISZERO PUSH2 0x1EF JUMPI PUSH2 0x1EF PUSH1 0x0 PUSH2 0x480 JUMP JUMPDEST POP JUMP JUMPDEST CALLER PUSH2 0x205 PUSH1 0x0 SLOAD PUSH1 0x1 PUSH1 0x1 PUSH1 0xA0 SHL SUB AND SWAP1 JUMP JUMPDEST PUSH1 0x1 PUSH1 0x1 PUSH1 0xA0 SHL SUB AND EQ PUSH2 0x22C JUMPI PUSH1 0x40 MLOAD PUSH4 0xA5653AE5 PUSH1 0xE0 SHL DUP2 MSTORE PUSH1 0x4 ADD PUSH1 0x40 MLOAD DUP1 SWAP2 SUB SWAP1 REVERT JUMPDEST PUSH1 0x1 PUSH1 0x1 PUSH1 0xA0 SHL SUB DUP3 AND PUSH2 0x253 JUMPI PUSH1 0x40 MLOAD PUSH4 0xA5653AE5 PUSH1 0xE0 SHL DUP2 MSTORE PUSH1 0x4 ADD PUSH1 0x40 MLOAD DUP1 SWAP2 SUB SWAP1 REVERT JUMPDEST DUP1 ISZERO PUSH2 0x2A5 JUMPI PUSH1 0x0 SLOAD PUSH1 0x1 PUSH1 0x1 PUSH1 0xA0 SHL SUB SWAP1 DUP2 AND SWAP1 DUP4 AND SUB PUSH2 0x288 JUMPI PUSH1 0x40 MLOAD PUSH4 0xD667803B PUSH1 0xE0 SHL DUP2 MSTORE PUSH1 0x4 ADD PUSH1 0x40 MLOAD DUP1 SWAP2 SUB SWAP1 REVERT JUMPDEST PUSH2 0x291 DUP3 PUSH2 0x480 JUMP JUMPDEST PUSH1 0x1 DUP1 SLOAD PUSH1 0x1 PUSH1 0x1 PUSH1 0xA0 SHL SUB NOT AND SWAP1 SSTORE POP POP JUMP JUMPDEST PUSH1 0x1 DUP1 SLOAD PUSH1 0x1 PUSH1 0x1 PUSH1 0xA0 SHL SUB DUP5 AND PUSH1 0x1 PUSH1 0x1 PUSH1 0xA0 SHL SUB NOT SWAP1 SWAP2 AND OR SWAP1 SSTORE POP POP JUMP JUMPDEST DUP1 PUSH1 0x1 PUSH1 0x1 PUSH1 0xA0 SHL SUB DUP2 AND PUSH2 0x2EE JUMPI PUSH1 0x40 MLOAD PUSH4 0x93A68235 PUSH1 0xE0 SHL DUP2 MSTORE PUSH1 0x4 ADD PUSH1 0x40 MLOAD DUP1 SWAP2 SUB SWAP1 REVERT JUMPDEST CALLER PUSH2 0x301 PUSH1 0x0 SLOAD PUSH1 0x1 PUSH1 0x1 PUSH1 0xA0 SHL SUB AND SWAP1 JUMP JUMPDEST PUSH1 0x1 PUSH1 0x1 PUSH1 0xA0 SHL SUB AND EQ PUSH2 0x328 JUMPI PUSH1 0x40 MLOAD PUSH4 0xA5653AE5 PUSH1 0xE0 SHL DUP2 MSTORE PUSH1 0x4 ADD PUSH1 0x40 MLOAD DUP1 SWAP2 SUB SWAP1 REVERT JUMPDEST PUSH1 0x1 PUSH1 0x1 PUSH1 0xA0 SHL SUB DUP3 AND PUSH1 0x0 SWAP1 DUP2 MSTORE PUSH1 0x2 PUSH1 0x20 MSTORE PUSH1 0x40 SWAP1 KECCAK256 SLOAD PUSH1 0xFF AND ISZERO PUSH2 0x371 JUMPI PUSH1 0x40 MLOAD PUSH4 0x5BB73121 PUSH1 0xE1 SHL DUP2 MSTORE PUSH1 0x1 PUSH1 0x1 PUSH1 0xA0 SHL SUB DUP4 AND PUSH1 0x4 DUP3 ADD MSTORE PUSH1 0x24 ADD PUSH1 0x40 MLOAD DUP1 SWAP2 SUB SWAP1 REVERT JUMPDEST PUSH1 0x1 PUSH1 0x1 PUSH1 0xA0 SHL SUB DUP3 AND PUSH1 0x0 DUP2 DUP2 MSTORE PUSH1 0x2 PUSH1 0x20 SWAP1 DUP2 MSTORE PUSH1 0x40 SWAP2 DUP3 SWAP1 KECCAK256 DUP1 SLOAD PUSH1 0xFF NOT AND PUSH1 0x1 OR SWAP1 SSTORE SWAP1 MLOAD SWAP2 DUP3 MSTORE PUSH32 0x3AA524755829016034F2823014BAC43FF6EEF092909806F57E4630A3D218BFDC SWAP2 ADD JUMPDEST PUSH1 0x40 MLOAD DUP1 SWAP2 SUB SWAP1 LOG1 POP POP JUMP JUMPDEST DUP1 PUSH1 0x1 PUSH1 0x1 PUSH1 0xA0 SHL SUB DUP2 AND PUSH2 0x3F5 JUMPI PUSH1 0x40 MLOAD PUSH4 0x93A68235 PUSH1 0xE0 SHL DUP2 MSTORE PUSH1 0x4 ADD PUSH1 0x40 MLOAD DUP1 SWAP2 SUB SWAP1 REVERT JUMPDEST CALLER PUSH2 0x408 PUSH1 0x0 SLOAD PUSH1 0x1 PUSH1 0x1 PUSH1 0xA0 SHL SUB AND SWAP1 JUMP JUMPDEST PUSH1 0x1 PUSH1 0x1 PUSH1 0xA0 SHL SUB AND EQ PUSH2 0x42F JUMPI PUSH1 0x40 MLOAD PUSH4 0xA5653AE5 PUSH1 0xE0 SHL DUP2 MSTORE PUSH1 0x4 ADD PUSH1 0x40 MLOAD DUP1 SWAP2 SUB SWAP1 REVERT JUMPDEST PUSH1 0x1 PUSH1 0x1 PUSH1 0xA0 SHL SUB DUP3 AND PUSH1 0x0 DUP2 DUP2 MSTORE PUSH1 0x2 PUSH1 0x20 SWAP1 DUP2 MSTORE PUSH1 0x40 SWAP2 DUP3 SWAP1 KECCAK256 DUP1 SLOAD PUSH1 0xFF NOT AND SWAP1 SSTORE SWAP1 MLOAD SWAP2 DUP3 MSTORE PUSH32 0xDB0953C6768F90A1EE20F851E0AC3AAEBF04082E849A3059BC696DF2B9483A0B SWAP2 ADD PUSH2 0x3C1 JUMP JUMPDEST PUSH1 0x0 DUP1 SLOAD PUSH1 0x1 PUSH1 0x1 PUSH1 0xA0 SHL SUB NOT AND PUSH1 0x1 PUSH1 0x1 PUSH1 0xA0 SHL SUB DUP4 AND SWAP1 DUP2 OR DUP3 SSTORE PUSH1 0x40 MLOAD SWAP1 SWAP2 DUP3 SWAP2 PUSH32 0x8BE0079C531659141344CD1FD0A4F28419497F9722A3DAAFE3B4186F6B6457E0 SWAP2 SWAP1 LOG3 POP JUMP JUMPDEST DUP1 CALLDATALOAD PUSH1 0x1 PUSH1 0x1 PUSH1 0xA0 SHL SUB DUP2 AND DUP2 EQ PUSH2 0x4E2 JUMPI PUSH1 0x0 DUP1 REVERT JUMPDEST SWAP2 SWAP1 POP JUMP JUMPDEST PUSH1 0x0 PUSH1 0x20 DUP3 DUP5 SUB SLT ISZERO PUSH2 0x4F9 JUMPI PUSH1 0x0 DUP1 REVERT JUMPDEST PUSH2 0x502 DUP3 PUSH2 0x4CB JUMP JUMPDEST SWAP4 SWAP3 POP POP POP JUMP JUMPDEST DUP1 CALLDATALOAD DUP1 ISZERO ISZERO DUP2 EQ PUSH2 0x4E2 JUMPI PUSH1 0x0 DUP1 REVERT JUMPDEST PUSH1 0x0 PUSH1 0x20 DUP3 DUP5 SUB SLT ISZERO PUSH2 0x52B JUMPI PUSH1 0x0 DUP1 REVERT JUMPDEST PUSH2 0x502 DUP3 PUSH2 0x509 JUMP JUMPDEST PUSH1 0x0 DUP1 PUSH1 0x40 DUP4 DUP6 SUB SLT ISZERO PUSH2 0x547 JUMPI PUSH1 0x0 DUP1 REVERT JUMPDEST PUSH2 0x550 DUP4 PUSH2 0x4CB JUMP JUMPDEST SWAP2 POP PUSH2 0x55E PUSH1 0x20 DUP5 ADD PUSH2 0x509 JUMP JUMPDEST SWAP1 POP SWAP3 POP SWAP3 SWAP1 POP JUMP INVALID LOG2 PUSH5 0x6970667358 0x22 SLT KECCAK256 0xD2 PUSH6 0x5788130E5D02 SLOAD REVERT NUMBER SWAP16 0xBA 0xCC 0xA8 PUSH11 0x72F4AAA03CF5267412177B DUP3 0xFB 0xD0 0xC5 JUMPI PUSH5 0x736F6C6343 STOP ADDMOD GT STOP CALLER "},"methodIdentifiers":{"addNewAvailableContractAddress(address)":"c210b865","availableContracts(address)":"16f4412a","claimOwnership()":"4e71e0c8","owner()":"8da5cb5b","pendingOwner()":"e30c3978","removeAvailableContractAddress(address)":"e7c64f4e","renounceOwnership(bool)":"7e926b4b","transferOwnership(address,bool)":"b242e534"}}}}}