{"contracts/EarthverseMarketplace.sol":{"EarthverseMarketplace":{"abi":[{"inputs":[{"internalType":"address","name":"sender","type":"address"}],"name":"AccessContract_NotHaveAccess","type":"error"},{"inputs":[],"name":"AccessContract_ZeroAddress","type":"error"},{"inputs":[{"internalType":"uint256","name":"tokenId","type":"uint256"}],"name":"EarthverseMarketplace_AlreadyListed","type":"error"},{"inputs":[{"internalType":"uint256","name":"itemId","type":"uint256"}],"name":"EarthverseMarketplace_ItemDoesntExit","type":"error"},{"inputs":[],"name":"EarthverseMarketplace_NotOwner","type":"error"},{"inputs":[{"internalType":"uint256","name":"itemId","type":"uint256"},{"internalType":"uint256","name":"price","type":"uint256"}],"name":"EarthverseMarketplace_PriceDoNotMet","type":"error"},{"inputs":[],"name":"EarthverseMarketplace_PriceMustBeAboveZero","type":"error"},{"inputs":[],"name":"EarthverseMarketplace_SellerCannotBeBuyer","type":"error"},{"inputs":[],"name":"EarthverseMarketplace_ZeroAddress","type":"error"},{"inputs":[],"name":"Ownable_CallerIsNotPendingOwner","type":"error"},{"inputs":[],"name":"Ownable_CallerIsNotTheOwner","type":"error"},{"inputs":[],"name":"Ownable_NewOwnerMustBeADifferentAddressThanTheCurrentOwner","type":"error"},{"anonymous":false,"inputs":[{"indexed":false,"internalType":"address","name":"oldAddress","type":"address"},{"indexed":false,"internalType":"address","name":"newAddress","type":"address"}],"name":"EarthverseDepositAddressChanged","type":"event"},{"anonymous":false,"inputs":[{"indexed":false,"internalType":"uint256","name":"itemId","type":"uint256"},{"indexed":false,"internalType":"uint256","name":"price","type":"uint256"},{"indexed":true,"internalType":"uint256","name":"tokenId","type":"uint256"},{"indexed":true,"internalType":"address","name":"seller","type":"address"},{"indexed":true,"internalType":"address","name":"buyer","type":"address"}],"name":"NFTLandBought","type":"event"},{"anonymous":false,"inputs":[{"indexed":false,"internalType":"uint256","name":"itemId","type":"uint256"},{"indexed":true,"internalType":"uint256","name":"tokenId","type":"uint256"},{"indexed":true,"internalType":"uint256","name":"price","type":"uint256"},{"indexed":true,"internalType":"address","name":"seller","type":"address"}],"name":"NFTLandListed","type":"event"},{"anonymous":false,"inputs":[{"indexed":true,"internalType":"address","name":"previousOwner","type":"address"},{"indexed":true,"internalType":"address","name":"newOwner","type":"address"}],"name":"OwnershipTransferred","type":"event"},{"inputs":[{"internalType":"address","name":"buyer","type":"address"},{"internalType":"uint256","name":"itemId","type":"uint256"},{"internalType":"uint256","name":"price","type":"uint256"},{"internalType":"uint256","name":"decimalsOfInput","type":"uint256"}],"name":"buyNFTLand","outputs":[{"internalType":"address","name":"","type":"address"}],"stateMutability":"nonpayable","type":"function"},{"inputs":[],"name":"claimOwnership","outputs":[],"stateMutability":"nonpayable","type":"function"},{"inputs":[],"name":"earthverseDepositAddress","outputs":[{"internalType":"address","name":"","type":"address"}],"stateMutability":"view","type":"function"},{"inputs":[],"name":"itemCount","outputs":[{"internalType":"uint256","name":"","type":"uint256"}],"stateMutability":"view","type":"function"},{"inputs":[{"internalType":"contract IERC721","name":"nftLand","type":"address"},{"internalType":"uint256","name":"tokenId","type":"uint256"},{"internalType":"uint256","name":"price","type":"uint256"}],"name":"listNFTLand","outputs":[],"stateMutability":"nonpayable","type":"function"},{"inputs":[{"internalType":"uint256","name":"","type":"uint256"}],"name":"listing","outputs":[{"internalType":"uint256","name":"id","type":"uint256"},{"internalType":"contract IERC721","name":"nftLand","type":"address"},{"internalType":"uint256","name":"tokenId","type":"uint256"},{"internalType":"uint256","name":"price","type":"uint256"},{"internalType":"address","name":"seller","type":"address"}],"stateMutability":"view","type":"function"},{"inputs":[],"name":"owner","outputs":[{"internalType":"address","name":"","type":"address"}],"stateMutability":"view","type":"function"},{"inputs":[],"name":"pendingOwner","outputs":[{"internalType":"address","name":"","type":"address"}],"stateMutability":"view","type":"function"},{"inputs":[{"internalType":"bool","name":"isRenounce","type":"bool"}],"name":"renounceOwnership","outputs":[],"stateMutability":"nonpayable","type":"function"},{"inputs":[{"internalType":"address","name":"_earthverseDepositAddress","type":"address"}],"name":"setNewEarthverseDepositAddress","outputs":[],"stateMutability":"nonpayable","type":"function"},{"inputs":[{"internalType":"address","name":"newOwner","type":"address"},{"internalType":"bool","name":"direct","type":"bool"}],"name":"transferOwnership","outputs":[],"stateMutability":"nonpayable","type":"function"}],"evm":{"bytecode":{"linkReferences":{},"object":"608060405234801561001057600080fd5b50600160005561001f33610024565b610070565b600180546001600160a01b0319166001600160a01b03831690811790915560405181907f8be0079c531659141344cd1fd0a4f28419497f9722a3daafe3b4186f6b6457e090600090a350565b610c408061007f6000396000f3fe608060405234801561001057600080fd5b50600436106100a95760003560e01c80638da5cb5b116100715780638da5cb5b1461017357806395a0209e146101985780639bb5c02b146101ab578063a3fcc92c146101be578063b242e534146101d1578063e30c3978146101e457600080fd5b80631fe24688146100ae5780634e71e0c8146100c35780636bfb0d01146100cb5780637e926b4b146100e757806384a184de146100fa575b600080fd5b6100c16100bc3660046109a3565b6101f7565b005b6100c16102c1565b6100d460045481565b6040519081526020015b60405180910390f35b6100c16100f53660046109dc565b610313565b6101436101083660046109f7565b6005602052600090815260409020805460018201546002830154600384015460049094015492936001600160a01b0392831693919290911685565b604080519586526001600160a01b039485166020870152850192909252606084015216608082015260a0016100de565b6001546001600160a01b03165b6040516001600160a01b0390911681526020016100de565b6101806101a6366004610a10565b610360565b6100c16101b9366004610a4b565b610507565b600354610180906001600160a01b031681565b6100c16101df366004610a80565b610815565b600254610180906001600160a01b031681565b3361020a6001546001600160a01b031690565b6001600160a01b0316146102315760405163a5653ae560e01b815260040160405180910390fd5b6001600160a01b038116610258576040516393a6823560e01b815260040160405180910390fd5b600354604080516001600160a01b03928316815291831660208301527f7ad173db0e26925c326a5ed86f309f4baef4bb36d8ee194d432e6cf0551cef24910160405180910390a1600380546001600160a01b0319166001600160a01b0392909216919091179055565b6002546001600160a01b031633146102ec57604051636afa1bbf60e11b815260040160405180910390fd5b600254610301906001600160a01b03166108e9565b600280546001600160a01b0319169055565b336103266001546001600160a01b031690565b6001600160a01b03161461034d5760405163a5653ae560e01b815260040160405180910390fd5b801561035d5761035d60006108e9565b50565b6000846001600160a01b03811661038a576040516370ca6bf760e01b815260040160405180910390fd5b6003546001600160a01b031633146103bc57604051631fbe422f60e21b81523360048201526024015b60405180910390fd5b6103c4610935565b8415806103d2575060045485115b156103f357604051635527ebbb60e11b8152600481018690526024016103b3565b600085815260056020526040902061040c84600a610bb1565b816003015461041b9190610bbd565b85101561044b5760038101546040516301d3114d60e61b81526103b3918891600401918252602082015260400190565b60048101546001600160a01b039081169088160361047c5760405163dfe7052360e01b815260040160405180910390fd5b6004810180546001600160a01b038981166001600160a01b0319831681179093556002840154600385015460405192909316939284927f9c4a597b04b174bf59af57ac26da3382782703a91ae06029ca1f31479413733b916104e9918d9190918252602082015260400190565b60405180910390a49250506104fe6001600055565b50949350505050565b600082815260056020908152604091829020825160a0810184528154815260018201546001600160a01b039081169382019390935260028201549381019390935260038101546060840181905260049091015490911660808301528391901561058657604051630a22a4fd60e11b8152600481018390526024016103b3565b8484336000836001600160a01b0316636352211e846040518263ffffffff1660e01b81526004016105b991815260200190565b602060405180830381865afa1580156105d6573d6000803e3d6000fd5b505050506040513d601f19601f820116820180604052508101906105fa9190610bd4565b9050806001600160a01b0316826001600160a01b03161461062e576040516325e2338360e11b815260040160405180910390fd5b610636610935565b600087116106575760405163061e22df60e41b815260040160405180910390fd5b60046000815461066690610bf1565b919050819055506040518060a0016040528060045481526020018a6001600160a01b03168152602001898152602001888152602001336001600160a01b03168152506005600060045481526020019081526020016000206000820151816000015560208201518160010160006101000a8154816001600160a01b0302191690836001600160a01b03160217905550604082015181600201556060820151816003015560808201518160040160006101000a8154816001600160a01b0302191690836001600160a01b03160217905550905050886001600160a01b03166323b872dd33308b6040518463ffffffff1660e01b8152600401610787939291906001600160a01b039384168152919092166020820152604081019190915260600190565b600060405180830381600087803b1580156107a157600080fd5b505af11580156107b5573d6000803e3d6000fd5b50505050336001600160a01b031687897f11ab981b311e2ba1819a08c0d5cb46547779c96995888f6f40a0743bab5083dd6004546040516107f891815260200190565b60405180910390a461080a6001600055565b505050505050505050565b336108286001546001600160a01b031690565b6001600160a01b03161461084f5760405163a5653ae560e01b815260040160405180910390fd5b6001600160a01b0382166108765760405163a5653ae560e01b815260040160405180910390fd5b80156108c8576001546001600160a01b03908116908316036108ab5760405163d667803b60e01b815260040160405180910390fd5b6108b4826108e9565b600280546001600160a01b03191690555050565b600280546001600160a01b0384166001600160a01b03199091161790555050565b600180546001600160a01b0319166001600160a01b03831690811790915560405181907f8be0079c531659141344cd1fd0a4f28419497f9722a3daafe3b4186f6b6457e090600090a350565b6002600054036109875760405162461bcd60e51b815260206004820152601f60248201527f5265656e7472616e637947756172643a207265656e7472616e742063616c6c0060448201526064016103b3565b6002600055565b6001600160a01b038116811461035d57600080fd5b6000602082840312156109b557600080fd5b81356109c08161098e565b9392505050565b803580151581146109d757600080fd5b919050565b6000602082840312156109ee57600080fd5b6109c0826109c7565b600060208284031215610a0957600080fd5b5035919050565b60008060008060808587031215610a2657600080fd5b8435610a318161098e565b966020860135965060408601359560600135945092505050565b600080600060608486031215610a6057600080fd5b8335610a6b8161098e565b95602085013595506040909401359392505050565b60008060408385031215610a9357600080fd5b8235610a9e8161098e565b9150610aac602084016109c7565b90509250929050565b634e487b7160e01b600052601160045260246000fd5b600181815b80851115610b06578160001904821115610aec57610aec610ab5565b80851615610af957918102915b93841c9390800290610ad0565b509250929050565b600082610b1d57506001610bab565b81610b2a57506000610bab565b8160018114610b405760028114610b4a57610b66565b6001915050610bab565b60ff841115610b5b57610b5b610ab5565b50506001821b610bab565b5060208310610133831016604e8410600b8410161715610b89575081810a610bab565b610b938383610acb565b8060001904821115610ba757610ba7610ab5565b0290505b92915050565b60006109c08383610b0e565b8082028115828204841417610bab57610bab610ab5565b600060208284031215610be657600080fd5b81516109c08161098e565b600060018201610c0357610c03610ab5565b506001019056fea264697066735822122074a0b1c44a5410a461b2c65bde2dcddfd8fd610f6a10bd38d281c9f012d7050664736f6c63430008110033","opcodes":"PUSH1 0x80 PUSH1 0x40 MSTORE CALLVALUE DUP1 ISZERO PUSH2 0x10 JUMPI PUSH1 0x0 DUP1 REVERT JUMPDEST POP PUSH1 0x1 PUSH1 0x0 SSTORE PUSH2 0x1F CALLER PUSH2 0x24 JUMP JUMPDEST PUSH2 0x70 JUMP JUMPDEST PUSH1 0x1 DUP1 SLOAD PUSH1 0x1 PUSH1 0x1 PUSH1 0xA0 SHL SUB NOT AND PUSH1 0x1 PUSH1 0x1 PUSH1 0xA0 SHL SUB DUP4 AND SWAP1 DUP2 OR SWAP1 SWAP2 SSTORE PUSH1 0x40 MLOAD DUP2 SWAP1 PUSH32 0x8BE0079C531659141344CD1FD0A4F28419497F9722A3DAAFE3B4186F6B6457E0 SWAP1 PUSH1 0x0 SWAP1 LOG3 POP JUMP JUMPDEST PUSH2 0xC40 DUP1 PUSH2 0x7F PUSH1 0x0 CODECOPY PUSH1 0x0 RETURN INVALID PUSH1 0x80 PUSH1 0x40 MSTORE CALLVALUE DUP1 ISZERO PUSH2 0x10 JUMPI PUSH1 0x0 DUP1 REVERT JUMPDEST POP PUSH1 0x4 CALLDATASIZE LT PUSH2 0xA9 JUMPI PUSH1 0x0 CALLDATALOAD PUSH1 0xE0 SHR DUP1 PUSH4 0x8DA5CB5B GT PUSH2 0x71 JUMPI DUP1 PUSH4 0x8DA5CB5B EQ PUSH2 0x173 JUMPI DUP1 PUSH4 0x95A0209E EQ PUSH2 0x198 JUMPI DUP1 PUSH4 0x9BB5C02B EQ PUSH2 0x1AB JUMPI DUP1 PUSH4 0xA3FCC92C EQ PUSH2 0x1BE JUMPI DUP1 PUSH4 0xB242E534 EQ PUSH2 0x1D1 JUMPI DUP1 PUSH4 0xE30C3978 EQ PUSH2 0x1E4 JUMPI PUSH1 0x0 DUP1 REVERT JUMPDEST DUP1 PUSH4 0x1FE24688 EQ PUSH2 0xAE JUMPI DUP1 PUSH4 0x4E71E0C8 EQ PUSH2 0xC3 JUMPI DUP1 PUSH4 0x6BFB0D01 EQ PUSH2 0xCB JUMPI DUP1 PUSH4 0x7E926B4B EQ PUSH2 0xE7 JUMPI DUP1 PUSH4 0x84A184DE EQ PUSH2 0xFA JUMPI JUMPDEST PUSH1 0x0 DUP1 REVERT JUMPDEST PUSH2 0xC1 PUSH2 0xBC CALLDATASIZE PUSH1 0x4 PUSH2 0x9A3 JUMP JUMPDEST PUSH2 0x1F7 JUMP JUMPDEST STOP JUMPDEST PUSH2 0xC1 PUSH2 0x2C1 JUMP JUMPDEST PUSH2 0xD4 PUSH1 0x4 SLOAD DUP2 JUMP JUMPDEST PUSH1 0x40 MLOAD SWAP1 DUP2 MSTORE PUSH1 0x20 ADD JUMPDEST PUSH1 0x40 MLOAD DUP1 SWAP2 SUB SWAP1 RETURN JUMPDEST PUSH2 0xC1 PUSH2 0xF5 CALLDATASIZE PUSH1 0x4 PUSH2 0x9DC JUMP JUMPDEST PUSH2 0x313 JUMP JUMPDEST PUSH2 0x143 PUSH2 0x108 CALLDATASIZE PUSH1 0x4 PUSH2 0x9F7 JUMP JUMPDEST PUSH1 0x5 PUSH1 0x20 MSTORE PUSH1 0x0 SWAP1 DUP2 MSTORE PUSH1 0x40 SWAP1 KECCAK256 DUP1 SLOAD PUSH1 0x1 DUP3 ADD SLOAD PUSH1 0x2 DUP4 ADD SLOAD PUSH1 0x3 DUP5 ADD SLOAD PUSH1 0x4 SWAP1 SWAP5 ADD SLOAD SWAP3 SWAP4 PUSH1 0x1 PUSH1 0x1 PUSH1 0xA0 SHL SUB SWAP3 DUP4 AND SWAP4 SWAP2 SWAP3 SWAP1 SWAP2 AND DUP6 JUMP JUMPDEST PUSH1 0x40 DUP1 MLOAD SWAP6 DUP7 MSTORE PUSH1 0x1 PUSH1 0x1 PUSH1 0xA0 SHL SUB SWAP5 DUP6 AND PUSH1 0x20 DUP8 ADD MSTORE DUP6 ADD SWAP3 SWAP1 SWAP3 MSTORE PUSH1 0x60 DUP5 ADD MSTORE AND PUSH1 0x80 DUP3 ADD MSTORE PUSH1 0xA0 ADD PUSH2 0xDE JUMP JUMPDEST PUSH1 0x1 SLOAD PUSH1 0x1 PUSH1 0x1 PUSH1 0xA0 SHL SUB AND JUMPDEST PUSH1 0x40 MLOAD PUSH1 0x1 PUSH1 0x1 PUSH1 0xA0 SHL SUB SWAP1 SWAP2 AND DUP2 MSTORE PUSH1 0x20 ADD PUSH2 0xDE JUMP JUMPDEST PUSH2 0x180 PUSH2 0x1A6 CALLDATASIZE PUSH1 0x4 PUSH2 0xA10 JUMP JUMPDEST PUSH2 0x360 JUMP JUMPDEST PUSH2 0xC1 PUSH2 0x1B9 CALLDATASIZE PUSH1 0x4 PUSH2 0xA4B JUMP JUMPDEST PUSH2 0x507 JUMP JUMPDEST PUSH1 0x3 SLOAD PUSH2 0x180 SWAP1 PUSH1 0x1 PUSH1 0x1 PUSH1 0xA0 SHL SUB AND DUP2 JUMP JUMPDEST PUSH2 0xC1 PUSH2 0x1DF CALLDATASIZE PUSH1 0x4 PUSH2 0xA80 JUMP JUMPDEST PUSH2 0x815 JUMP JUMPDEST PUSH1 0x2 SLOAD PUSH2 0x180 SWAP1 PUSH1 0x1 PUSH1 0x1 PUSH1 0xA0 SHL SUB AND DUP2 JUMP JUMPDEST CALLER PUSH2 0x20A PUSH1 0x1 SLOAD PUSH1 0x1 PUSH1 0x1 PUSH1 0xA0 SHL SUB AND SWAP1 JUMP JUMPDEST PUSH1 0x1 PUSH1 0x1 PUSH1 0xA0 SHL SUB AND EQ PUSH2 0x231 JUMPI PUSH1 0x40 MLOAD PUSH4 0xA5653AE5 PUSH1 0xE0 SHL DUP2 MSTORE PUSH1 0x4 ADD PUSH1 0x40 MLOAD DUP1 SWAP2 SUB SWAP1 REVERT JUMPDEST PUSH1 0x1 PUSH1 0x1 PUSH1 0xA0 SHL SUB DUP2 AND PUSH2 0x258 JUMPI PUSH1 0x40 MLOAD PUSH4 0x93A68235 PUSH1 0xE0 SHL DUP2 MSTORE PUSH1 0x4 ADD PUSH1 0x40 MLOAD DUP1 SWAP2 SUB SWAP1 REVERT JUMPDEST PUSH1 0x3 SLOAD PUSH1 0x40 DUP1 MLOAD PUSH1 0x1 PUSH1 0x1 PUSH1 0xA0 SHL SUB SWAP3 DUP4 AND DUP2 MSTORE SWAP2 DUP4 AND PUSH1 0x20 DUP4 ADD MSTORE PUSH32 0x7AD173DB0E26925C326A5ED86F309F4BAEF4BB36D8EE194D432E6CF0551CEF24 SWAP2 ADD PUSH1 0x40 MLOAD DUP1 SWAP2 SUB SWAP1 LOG1 PUSH1 0x3 DUP1 SLOAD PUSH1 0x1 PUSH1 0x1 PUSH1 0xA0 SHL SUB NOT AND PUSH1 0x1 PUSH1 0x1 PUSH1 0xA0 SHL SUB SWAP3 SWAP1 SWAP3 AND SWAP2 SWAP1 SWAP2 OR SWAP1 SSTORE JUMP JUMPDEST PUSH1 0x2 SLOAD PUSH1 0x1 PUSH1 0x1 PUSH1 0xA0 SHL SUB AND CALLER EQ PUSH2 0x2EC JUMPI PUSH1 0x40 MLOAD PUSH4 0x6AFA1BBF PUSH1 0xE1 SHL DUP2 MSTORE PUSH1 0x4 ADD PUSH1 0x40 MLOAD DUP1 SWAP2 SUB SWAP1 REVERT JUMPDEST PUSH1 0x2 SLOAD PUSH2 0x301 SWAP1 PUSH1 0x1 PUSH1 0x1 PUSH1 0xA0 SHL SUB AND PUSH2 0x8E9 JUMP JUMPDEST PUSH1 0x2 DUP1 SLOAD PUSH1 0x1 PUSH1 0x1 PUSH1 0xA0 SHL SUB NOT AND SWAP1 SSTORE JUMP JUMPDEST CALLER PUSH2 0x326 PUSH1 0x1 SLOAD PUSH1 0x1 PUSH1 0x1 PUSH1 0xA0 SHL SUB AND SWAP1 JUMP JUMPDEST PUSH1 0x1 PUSH1 0x1 PUSH1 0xA0 SHL SUB AND EQ PUSH2 0x34D JUMPI PUSH1 0x40 MLOAD PUSH4 0xA5653AE5 PUSH1 0xE0 SHL DUP2 MSTORE PUSH1 0x4 ADD PUSH1 0x40 MLOAD DUP1 SWAP2 SUB SWAP1 REVERT JUMPDEST DUP1 ISZERO PUSH2 0x35D JUMPI PUSH2 0x35D PUSH1 0x0 PUSH2 0x8E9 JUMP JUMPDEST POP JUMP JUMPDEST PUSH1 0x0 DUP5 PUSH1 0x1 PUSH1 0x1 PUSH1 0xA0 SHL SUB DUP2 AND PUSH2 0x38A JUMPI PUSH1 0x40 MLOAD PUSH4 0x70CA6BF7 PUSH1 0xE0 SHL DUP2 MSTORE PUSH1 0x4 ADD PUSH1 0x40 MLOAD DUP1 SWAP2 SUB SWAP1 REVERT JUMPDEST PUSH1 0x3 SLOAD PUSH1 0x1 PUSH1 0x1 PUSH1 0xA0 SHL SUB AND CALLER EQ PUSH2 0x3BC JUMPI PUSH1 0x40 MLOAD PUSH4 0x1FBE422F PUSH1 0xE2 SHL DUP2 MSTORE CALLER PUSH1 0x4 DUP3 ADD MSTORE PUSH1 0x24 ADD JUMPDEST PUSH1 0x40 MLOAD DUP1 SWAP2 SUB SWAP1 REVERT JUMPDEST PUSH2 0x3C4 PUSH2 0x935 JUMP JUMPDEST DUP5 ISZERO DUP1 PUSH2 0x3D2 JUMPI POP PUSH1 0x4 SLOAD DUP6 GT JUMPDEST ISZERO PUSH2 0x3F3 JUMPI PUSH1 0x40 MLOAD PUSH4 0x5527EBBB PUSH1 0xE1 SHL DUP2 MSTORE PUSH1 0x4 DUP2 ADD DUP7 SWAP1 MSTORE PUSH1 0x24 ADD PUSH2 0x3B3 JUMP JUMPDEST PUSH1 0x0 DUP6 DUP2 MSTORE PUSH1 0x5 PUSH1 0x20 MSTORE PUSH1 0x40 SWAP1 KECCAK256 PUSH2 0x40C DUP5 PUSH1 0xA PUSH2 0xBB1 JUMP JUMPDEST DUP2 PUSH1 0x3 ADD SLOAD PUSH2 0x41B SWAP2 SWAP1 PUSH2 0xBBD JUMP JUMPDEST DUP6 LT ISZERO PUSH2 0x44B JUMPI PUSH1 0x3 DUP2 ADD SLOAD PUSH1 0x40 MLOAD PUSH4 0x1D3114D PUSH1 0xE6 SHL DUP2 MSTORE PUSH2 0x3B3 SWAP2 DUP9 SWAP2 PUSH1 0x4 ADD SWAP2 DUP3 MSTORE PUSH1 0x20 DUP3 ADD MSTORE PUSH1 0x40 ADD SWAP1 JUMP JUMPDEST PUSH1 0x4 DUP2 ADD SLOAD PUSH1 0x1 PUSH1 0x1 PUSH1 0xA0 SHL SUB SWAP1 DUP2 AND SWAP1 DUP9 AND SUB PUSH2 0x47C JUMPI PUSH1 0x40 MLOAD PUSH4 0xDFE70523 PUSH1 0xE0 SHL DUP2 MSTORE PUSH1 0x4 ADD PUSH1 0x40 MLOAD DUP1 SWAP2 SUB SWAP1 REVERT JUMPDEST PUSH1 0x4 DUP2 ADD DUP1 SLOAD PUSH1 0x1 PUSH1 0x1 PUSH1 0xA0 SHL SUB DUP10 DUP2 AND PUSH1 0x1 PUSH1 0x1 PUSH1 0xA0 SHL SUB NOT DUP4 AND DUP2 OR SWAP1 SWAP4 SSTORE PUSH1 0x2 DUP5 ADD SLOAD PUSH1 0x3 DUP6 ADD SLOAD PUSH1 0x40 MLOAD SWAP3 SWAP1 SWAP4 AND SWAP4 SWAP3 DUP5 SWAP3 PUSH32 0x9C4A597B04B174BF59AF57AC26DA3382782703A91AE06029CA1F31479413733B SWAP2 PUSH2 0x4E9 SWAP2 DUP14 SWAP2 SWAP1 SWAP2 DUP3 MSTORE PUSH1 0x20 DUP3 ADD MSTORE PUSH1 0x40 ADD SWAP1 JUMP JUMPDEST PUSH1 0x40 MLOAD DUP1 SWAP2 SUB SWAP1 LOG4 SWAP3 POP POP PUSH2 0x4FE PUSH1 0x1 PUSH1 0x0 SSTORE JUMP JUMPDEST POP SWAP5 SWAP4 POP POP POP POP JUMP JUMPDEST PUSH1 0x0 DUP3 DUP2 MSTORE PUSH1 0x5 PUSH1 0x20 SWAP1 DUP2 MSTORE PUSH1 0x40 SWAP2 DUP3 SWAP1 KECCAK256 DUP3 MLOAD PUSH1 0xA0 DUP2 ADD DUP5 MSTORE DUP2 SLOAD DUP2 MSTORE PUSH1 0x1 DUP3 ADD SLOAD PUSH1 0x1 PUSH1 0x1 PUSH1 0xA0 SHL SUB SWAP1 DUP2 AND SWAP4 DUP3 ADD SWAP4 SWAP1 SWAP4 MSTORE PUSH1 0x2 DUP3 ADD SLOAD SWAP4 DUP2 ADD SWAP4 SWAP1 SWAP4 MSTORE PUSH1 0x3 DUP2 ADD SLOAD PUSH1 0x60 DUP5 ADD DUP2 SWAP1 MSTORE PUSH1 0x4 SWAP1 SWAP2 ADD SLOAD SWAP1 SWAP2 AND PUSH1 0x80 DUP4 ADD MSTORE DUP4 SWAP2 SWAP1 ISZERO PUSH2 0x586 JUMPI PUSH1 0x40 MLOAD PUSH4 0xA22A4FD PUSH1 0xE1 SHL DUP2 MSTORE PUSH1 0x4 DUP2 ADD DUP4 SWAP1 MSTORE PUSH1 0x24 ADD PUSH2 0x3B3 JUMP JUMPDEST DUP5 DUP5 CALLER PUSH1 0x0 DUP4 PUSH1 0x1 PUSH1 0x1 PUSH1 0xA0 SHL SUB AND PUSH4 0x6352211E DUP5 PUSH1 0x40 MLOAD DUP3 PUSH4 0xFFFFFFFF AND PUSH1 0xE0 SHL DUP2 MSTORE PUSH1 0x4 ADD PUSH2 0x5B9 SWAP2 DUP2 MSTORE PUSH1 0x20 ADD SWAP1 JUMP JUMPDEST PUSH1 0x20 PUSH1 0x40 MLOAD DUP1 DUP4 SUB DUP2 DUP7 GAS STATICCALL ISZERO DUP1 ISZERO PUSH2 0x5D6 JUMPI RETURNDATASIZE PUSH1 0x0 DUP1 RETURNDATACOPY RETURNDATASIZE PUSH1 0x0 REVERT JUMPDEST POP POP POP POP PUSH1 0x40 MLOAD RETURNDATASIZE PUSH1 0x1F NOT PUSH1 0x1F DUP3 ADD AND DUP3 ADD DUP1 PUSH1 0x40 MSTORE POP DUP2 ADD SWAP1 PUSH2 0x5FA SWAP2 SWAP1 PUSH2 0xBD4 JUMP JUMPDEST SWAP1 POP DUP1 PUSH1 0x1 PUSH1 0x1 PUSH1 0xA0 SHL SUB AND DUP3 PUSH1 0x1 PUSH1 0x1 PUSH1 0xA0 SHL SUB AND EQ PUSH2 0x62E JUMPI PUSH1 0x40 MLOAD PUSH4 0x25E23383 PUSH1 0xE1 SHL DUP2 MSTORE PUSH1 0x4 ADD PUSH1 0x40 MLOAD DUP1 SWAP2 SUB SWAP1 REVERT JUMPDEST PUSH2 0x636 PUSH2 0x935 JUMP JUMPDEST PUSH1 0x0 DUP8 GT PUSH2 0x657 JUMPI PUSH1 0x40 MLOAD PUSH4 0x61E22DF PUSH1 0xE4 SHL DUP2 MSTORE PUSH1 0x4 ADD PUSH1 0x40 MLOAD DUP1 SWAP2 SUB SWAP1 REVERT JUMPDEST PUSH1 0x4 PUSH1 0x0 DUP2 SLOAD PUSH2 0x666 SWAP1 PUSH2 0xBF1 JUMP JUMPDEST SWAP2 SWAP1 POP DUP2 SWAP1 SSTORE POP PUSH1 0x40 MLOAD DUP1 PUSH1 0xA0 ADD PUSH1 0x40 MSTORE DUP1 PUSH1 0x4 SLOAD DUP2 MSTORE PUSH1 0x20 ADD DUP11 PUSH1 0x1 PUSH1 0x1 PUSH1 0xA0 SHL SUB AND DUP2 MSTORE PUSH1 0x20 ADD DUP10 DUP2 MSTORE PUSH1 0x20 ADD DUP9 DUP2 MSTORE PUSH1 0x20 ADD CALLER PUSH1 0x1 PUSH1 0x1 PUSH1 0xA0 SHL SUB AND DUP2 MSTORE POP PUSH1 0x5 PUSH1 0x0 PUSH1 0x4 SLOAD DUP2 MSTORE PUSH1 0x20 ADD SWAP1 DUP2 MSTORE PUSH1 0x20 ADD PUSH1 0x0 KECCAK256 PUSH1 0x0 DUP3 ADD MLOAD DUP2 PUSH1 0x0 ADD SSTORE PUSH1 0x20 DUP3 ADD MLOAD DUP2 PUSH1 0x1 ADD PUSH1 0x0 PUSH2 0x100 EXP DUP2 SLOAD DUP2 PUSH1 0x1 PUSH1 0x1 PUSH1 0xA0 SHL SUB MUL NOT AND SWAP1 DUP4 PUSH1 0x1 PUSH1 0x1 PUSH1 0xA0 SHL SUB AND MUL OR SWAP1 SSTORE POP PUSH1 0x40 DUP3 ADD MLOAD DUP2 PUSH1 0x2 ADD SSTORE PUSH1 0x60 DUP3 ADD MLOAD DUP2 PUSH1 0x3 ADD SSTORE PUSH1 0x80 DUP3 ADD MLOAD DUP2 PUSH1 0x4 ADD PUSH1 0x0 PUSH2 0x100 EXP DUP2 SLOAD DUP2 PUSH1 0x1 PUSH1 0x1 PUSH1 0xA0 SHL SUB MUL NOT AND SWAP1 DUP4 PUSH1 0x1 PUSH1 0x1 PUSH1 0xA0 SHL SUB AND MUL OR SWAP1 SSTORE POP SWAP1 POP POP DUP9 PUSH1 0x1 PUSH1 0x1 PUSH1 0xA0 SHL SUB AND PUSH4 0x23B872DD CALLER ADDRESS DUP12 PUSH1 0x40 MLOAD DUP5 PUSH4 0xFFFFFFFF AND PUSH1 0xE0 SHL DUP2 MSTORE PUSH1 0x4 ADD PUSH2 0x787 SWAP4 SWAP3 SWAP2 SWAP1 PUSH1 0x1 PUSH1 0x1 PUSH1 0xA0 SHL SUB SWAP4 DUP5 AND DUP2 MSTORE SWAP2 SWAP1 SWAP3 AND PUSH1 0x20 DUP3 ADD MSTORE PUSH1 0x40 DUP2 ADD SWAP2 SWAP1 SWAP2 MSTORE PUSH1 0x60 ADD SWAP1 JUMP JUMPDEST PUSH1 0x0 PUSH1 0x40 MLOAD DUP1 DUP4 SUB DUP2 PUSH1 0x0 DUP8 DUP1 EXTCODESIZE ISZERO DUP1 ISZERO PUSH2 0x7A1 JUMPI PUSH1 0x0 DUP1 REVERT JUMPDEST POP GAS CALL ISZERO DUP1 ISZERO PUSH2 0x7B5 JUMPI RETURNDATASIZE PUSH1 0x0 DUP1 RETURNDATACOPY RETURNDATASIZE PUSH1 0x0 REVERT JUMPDEST POP POP POP POP CALLER PUSH1 0x1 PUSH1 0x1 PUSH1 0xA0 SHL SUB AND DUP8 DUP10 PUSH32 0x11AB981B311E2BA1819A08C0D5CB46547779C96995888F6F40A0743BAB5083DD PUSH1 0x4 SLOAD PUSH1 0x40 MLOAD PUSH2 0x7F8 SWAP2 DUP2 MSTORE PUSH1 0x20 ADD SWAP1 JUMP JUMPDEST PUSH1 0x40 MLOAD DUP1 SWAP2 SUB SWAP1 LOG4 PUSH2 0x80A PUSH1 0x1 PUSH1 0x0 SSTORE JUMP JUMPDEST POP POP POP POP POP POP POP POP POP JUMP JUMPDEST CALLER PUSH2 0x828 PUSH1 0x1 SLOAD PUSH1 0x1 PUSH1 0x1 PUSH1 0xA0 SHL SUB AND SWAP1 JUMP JUMPDEST PUSH1 0x1 PUSH1 0x1 PUSH1 0xA0 SHL SUB AND EQ PUSH2 0x84F JUMPI PUSH1 0x40 MLOAD PUSH4 0xA5653AE5 PUSH1 0xE0 SHL DUP2 MSTORE PUSH1 0x4 ADD PUSH1 0x40 MLOAD DUP1 SWAP2 SUB SWAP1 REVERT JUMPDEST PUSH1 0x1 PUSH1 0x1 PUSH1 0xA0 SHL SUB DUP3 AND PUSH2 0x876 JUMPI PUSH1 0x40 MLOAD PUSH4 0xA5653AE5 PUSH1 0xE0 SHL DUP2 MSTORE PUSH1 0x4 ADD PUSH1 0x40 MLOAD DUP1 SWAP2 SUB SWAP1 REVERT JUMPDEST DUP1 ISZERO PUSH2 0x8C8 JUMPI PUSH1 0x1 SLOAD PUSH1 0x1 PUSH1 0x1 PUSH1 0xA0 SHL SUB SWAP1 DUP2 AND SWAP1 DUP4 AND SUB PUSH2 0x8AB JUMPI PUSH1 0x40 MLOAD PUSH4 0xD667803B PUSH1 0xE0 SHL DUP2 MSTORE PUSH1 0x4 ADD PUSH1 0x40 MLOAD DUP1 SWAP2 SUB SWAP1 REVERT JUMPDEST PUSH2 0x8B4 DUP3 PUSH2 0x8E9 JUMP JUMPDEST PUSH1 0x2 DUP1 SLOAD PUSH1 0x1 PUSH1 0x1 PUSH1 0xA0 SHL SUB NOT AND SWAP1 SSTORE POP POP JUMP JUMPDEST PUSH1 0x2 DUP1 SLOAD PUSH1 0x1 PUSH1 0x1 PUSH1 0xA0 SHL SUB DUP5 AND PUSH1 0x1 PUSH1 0x1 PUSH1 0xA0 SHL SUB NOT SWAP1 SWAP2 AND OR SWAP1 SSTORE POP POP JUMP JUMPDEST PUSH1 0x1 DUP1 SLOAD PUSH1 0x1 PUSH1 0x1 PUSH1 0xA0 SHL SUB NOT AND PUSH1 0x1 PUSH1 0x1 PUSH1 0xA0 SHL SUB DUP4 AND SWAP1 DUP2 OR SWAP1 SWAP2 SSTORE PUSH1 0x40 MLOAD DUP2 SWAP1 PUSH32 0x8BE0079C531659141344CD1FD0A4F28419497F9722A3DAAFE3B4186F6B6457E0 SWAP1 PUSH1 0x0 SWAP1 LOG3 POP JUMP JUMPDEST PUSH1 0x2 PUSH1 0x0 SLOAD SUB PUSH2 0x987 JUMPI PUSH1 0x40 MLOAD PUSH3 0x461BCD PUSH1 0xE5 SHL DUP2 MSTORE PUSH1 0x20 PUSH1 0x4 DUP3 ADD MSTORE PUSH1 0x1F PUSH1 0x24 DUP3 ADD MSTORE PUSH32 0x5265656E7472616E637947756172643A207265656E7472616E742063616C6C00 PUSH1 0x44 DUP3 ADD MSTORE PUSH1 0x64 ADD PUSH2 0x3B3 JUMP JUMPDEST PUSH1 0x2 PUSH1 0x0 SSTORE JUMP JUMPDEST PUSH1 0x1 PUSH1 0x1 PUSH1 0xA0 SHL SUB DUP2 AND DUP2 EQ PUSH2 0x35D JUMPI PUSH1 0x0 DUP1 REVERT JUMPDEST PUSH1 0x0 PUSH1 0x20 DUP3 DUP5 SUB SLT ISZERO PUSH2 0x9B5 JUMPI PUSH1 0x0 DUP1 REVERT JUMPDEST DUP2 CALLDATALOAD PUSH2 0x9C0 DUP2 PUSH2 0x98E JUMP JUMPDEST SWAP4 SWAP3 POP POP POP JUMP JUMPDEST DUP1 CALLDATALOAD DUP1 ISZERO ISZERO DUP2 EQ PUSH2 0x9D7 JUMPI PUSH1 0x0 DUP1 REVERT JUMPDEST SWAP2 SWAP1 POP JUMP JUMPDEST PUSH1 0x0 PUSH1 0x20 DUP3 DUP5 SUB SLT ISZERO PUSH2 0x9EE JUMPI PUSH1 0x0 DUP1 REVERT JUMPDEST PUSH2 0x9C0 DUP3 PUSH2 0x9C7 JUMP JUMPDEST PUSH1 0x0 PUSH1 0x20 DUP3 DUP5 SUB SLT ISZERO PUSH2 0xA09 JUMPI PUSH1 0x0 DUP1 REVERT JUMPDEST POP CALLDATALOAD SWAP2 SWAP1 POP JUMP JUMPDEST PUSH1 0x0 DUP1 PUSH1 0x0 DUP1 PUSH1 0x80 DUP6 DUP8 SUB SLT ISZERO PUSH2 0xA26 JUMPI PUSH1 0x0 DUP1 REVERT JUMPDEST DUP5 CALLDATALOAD PUSH2 0xA31 DUP2 PUSH2 0x98E JUMP JUMPDEST SWAP7 PUSH1 0x20 DUP7 ADD CALLDATALOAD SWAP7 POP PUSH1 0x40 DUP7 ADD CALLDATALOAD SWAP6 PUSH1 0x60 ADD CALLDATALOAD SWAP5 POP SWAP3 POP POP POP JUMP JUMPDEST PUSH1 0x0 DUP1 PUSH1 0x0 PUSH1 0x60 DUP5 DUP7 SUB SLT ISZERO PUSH2 0xA60 JUMPI PUSH1 0x0 DUP1 REVERT JUMPDEST DUP4 CALLDATALOAD PUSH2 0xA6B DUP2 PUSH2 0x98E JUMP JUMPDEST SWAP6 PUSH1 0x20 DUP6 ADD CALLDATALOAD SWAP6 POP PUSH1 0x40 SWAP1 SWAP5 ADD CALLDATALOAD SWAP4 SWAP3 POP POP POP JUMP JUMPDEST PUSH1 0x0 DUP1 PUSH1 0x40 DUP4 DUP6 SUB SLT ISZERO PUSH2 0xA93 JUMPI PUSH1 0x0 DUP1 REVERT JUMPDEST DUP3 CALLDATALOAD PUSH2 0xA9E DUP2 PUSH2 0x98E JUMP JUMPDEST SWAP2 POP PUSH2 0xAAC PUSH1 0x20 DUP5 ADD PUSH2 0x9C7 JUMP JUMPDEST SWAP1 POP SWAP3 POP SWAP3 SWAP1 POP JUMP JUMPDEST PUSH4 0x4E487B71 PUSH1 0xE0 SHL PUSH1 0x0 MSTORE PUSH1 0x11 PUSH1 0x4 MSTORE PUSH1 0x24 PUSH1 0x0 REVERT JUMPDEST PUSH1 0x1 DUP2 DUP2 JUMPDEST DUP1 DUP6 GT ISZERO PUSH2 0xB06 JUMPI DUP2 PUSH1 0x0 NOT DIV DUP3 GT ISZERO PUSH2 0xAEC JUMPI PUSH2 0xAEC PUSH2 0xAB5 JUMP JUMPDEST DUP1 DUP6 AND ISZERO PUSH2 0xAF9 JUMPI SWAP2 DUP2 MUL SWAP2 JUMPDEST SWAP4 DUP5 SHR SWAP4 SWAP1 DUP1 MUL SWAP1 PUSH2 0xAD0 JUMP JUMPDEST POP SWAP3 POP SWAP3 SWAP1 POP JUMP JUMPDEST PUSH1 0x0 DUP3 PUSH2 0xB1D JUMPI POP PUSH1 0x1 PUSH2 0xBAB JUMP JUMPDEST DUP2 PUSH2 0xB2A JUMPI POP PUSH1 0x0 PUSH2 0xBAB JUMP JUMPDEST DUP2 PUSH1 0x1 DUP2 EQ PUSH2 0xB40 JUMPI PUSH1 0x2 DUP2 EQ PUSH2 0xB4A JUMPI PUSH2 0xB66 JUMP JUMPDEST PUSH1 0x1 SWAP2 POP POP PUSH2 0xBAB JUMP JUMPDEST PUSH1 0xFF DUP5 GT ISZERO PUSH2 0xB5B JUMPI PUSH2 0xB5B PUSH2 0xAB5 JUMP JUMPDEST POP POP PUSH1 0x1 DUP3 SHL PUSH2 0xBAB JUMP JUMPDEST POP PUSH1 0x20 DUP4 LT PUSH2 0x133 DUP4 LT AND PUSH1 0x4E DUP5 LT PUSH1 0xB DUP5 LT AND OR ISZERO PUSH2 0xB89 JUMPI POP DUP2 DUP2 EXP PUSH2 0xBAB JUMP JUMPDEST PUSH2 0xB93 DUP4 DUP4 PUSH2 0xACB JUMP JUMPDEST DUP1 PUSH1 0x0 NOT DIV DUP3 GT ISZERO PUSH2 0xBA7 JUMPI PUSH2 0xBA7 PUSH2 0xAB5 JUMP JUMPDEST MUL SWAP1 POP JUMPDEST SWAP3 SWAP2 POP POP JUMP JUMPDEST PUSH1 0x0 PUSH2 0x9C0 DUP4 DUP4 PUSH2 0xB0E JUMP JUMPDEST DUP1 DUP3 MUL DUP2 ISZERO DUP3 DUP3 DIV DUP5 EQ OR PUSH2 0xBAB JUMPI PUSH2 0xBAB PUSH2 0xAB5 JUMP JUMPDEST PUSH1 0x0 PUSH1 0x20 DUP3 DUP5 SUB SLT ISZERO PUSH2 0xBE6 JUMPI PUSH1 0x0 DUP1 REVERT JUMPDEST DUP2 MLOAD PUSH2 0x9C0 DUP2 PUSH2 0x98E JUMP JUMPDEST PUSH1 0x0 PUSH1 0x1 DUP3 ADD PUSH2 0xC03 JUMPI PUSH2 0xC03 PUSH2 0xAB5 JUMP JUMPDEST POP PUSH1 0x1 ADD SWAP1 JUMP INVALID LOG2 PUSH5 0x6970667358 0x22 SLT KECCAK256 PUSH21 0xA0B1C44A5410A461B2C65BDE2DCDDFD8FD610F6A10 0xBD CODESIZE 0xD2 DUP2 0xC9 CREATE SLT 0xD7 SDIV MOD PUSH5 0x736F6C6343 STOP ADDMOD GT STOP CALLER "},"methodIdentifiers":{"buyNFTLand(address,uint256,uint256,uint256)":"95a0209e","claimOwnership()":"4e71e0c8","earthverseDepositAddress()":"a3fcc92c","itemCount()":"6bfb0d01","listNFTLand(address,uint256,uint256)":"9bb5c02b","listing(uint256)":"84a184de","owner()":"8da5cb5b","pendingOwner()":"e30c3978","renounceOwnership(bool)":"7e926b4b","setNewEarthverseDepositAddress(address)":"1fe24688","transferOwnership(address,bool)":"b242e534"}}}}}