{"contracts/EarthverseDeposit.sol":{"EarthverseDeposit":{"abi":[{"inputs":[{"internalType":"address","name":"_nftd","type":"address"},{"internalType":"address","name":"_earthverseMarketplace","type":"address"}],"stateMutability":"nonpayable","type":"constructor"},{"inputs":[{"internalType":"address","name":"stablecoin","type":"address"}],"name":"EarthverseDeposit_AlreadyStablecoinAdded","type":"error"},{"inputs":[],"name":"EarthverseDeposit_InvalidDepositAmount","type":"error"},{"inputs":[],"name":"EarthverseDeposit_NoRETHWasMinted","type":"error"},{"inputs":[{"internalType":"address","name":"stablecoin","type":"address"}],"name":"EarthverseDeposit_NotAvailableStablecoinForBuyNFTLand","type":"error"},{"inputs":[],"name":"EarthverseDeposit_NotStablecoinAdderRole","type":"error"},{"inputs":[],"name":"EarthverseDeposit_ZeroAddress","type":"error"},{"anonymous":false,"inputs":[{"indexed":false,"internalType":"address","name":"stablecoinAddress","type":"address"}],"name":"NewStablecoinAddressAdded","type":"event"},{"anonymous":false,"inputs":[{"indexed":true,"internalType":"bytes32","name":"role","type":"bytes32"},{"indexed":true,"internalType":"bytes32","name":"previousAdminRole","type":"bytes32"},{"indexed":true,"internalType":"bytes32","name":"newAdminRole","type":"bytes32"}],"name":"RoleAdminChanged","type":"event"},{"anonymous":false,"inputs":[{"indexed":true,"internalType":"bytes32","name":"role","type":"bytes32"},{"indexed":true,"internalType":"address","name":"account","type":"address"},{"indexed":true,"internalType":"address","name":"sender","type":"address"}],"name":"RoleGranted","type":"event"},{"anonymous":false,"inputs":[{"indexed":true,"internalType":"bytes32","name":"role","type":"bytes32"},{"indexed":true,"internalType":"address","name":"account","type":"address"},{"indexed":true,"internalType":"address","name":"sender","type":"address"}],"name":"RoleRevoked","type":"event"},{"anonymous":false,"inputs":[{"indexed":false,"internalType":"address","name":"stablecoinAddress","type":"address"}],"name":"StablecoinAddressRemoved","type":"event"},{"anonymous":false,"inputs":[{"indexed":true,"internalType":"address","name":"sender","type":"address"},{"indexed":true,"internalType":"uint256","name":"amountOut","type":"uint256"}],"name":"StakedAndReceivedNFTLand","type":"event"},{"stateMutability":"payable","type":"fallback"},{"inputs":[],"name":"ADDER_STABLECOIN_ROLE","outputs":[{"internalType":"bytes32","name":"","type":"bytes32"}],"stateMutability":"view","type":"function"},{"inputs":[],"name":"DEFAULT_ADMIN_ROLE","outputs":[{"internalType":"bytes32","name":"","type":"bytes32"}],"stateMutability":"view","type":"function"},{"inputs":[],"name":"POOL_FEE","outputs":[{"internalType":"uint24","name":"","type":"uint24"}],"stateMutability":"view","type":"function"},{"inputs":[],"name":"RETH","outputs":[{"internalType":"address","name":"","type":"address"}],"stateMutability":"view","type":"function"},{"inputs":[],"name":"ROCKET_POOL_DEPOSIT","outputs":[{"internalType":"address","name":"","type":"address"}],"stateMutability":"view","type":"function"},{"inputs":[],"name":"WETH","outputs":[{"internalType":"address","name":"","type":"address"}],"stateMutability":"view","type":"function"},{"inputs":[{"internalType":"address","name":"stablecoinAddress","type":"address"}],"name":"addNewStablecoinAddress","outputs":[],"stateMutability":"nonpayable","type":"function"},{"inputs":[{"internalType":"address","name":"","type":"address"}],"name":"availableStablecoins","outputs":[{"internalType":"bool","name":"","type":"bool"}],"stateMutability":"view","type":"function"},{"inputs":[{"internalType":"address","name":"","type":"address"}],"name":"balances","outputs":[{"internalType":"uint256","name":"","type":"uint256"}],"stateMutability":"view","type":"function"},{"inputs":[{"internalType":"address","name":"tokenIn","type":"address"},{"internalType":"uint256","name":"amountIn","type":"uint256"},{"internalType":"uint256","name":"nftLandId","type":"uint256"},{"internalType":"uint256","name":"decimalsOfInput","type":"uint256"}],"name":"depositRPAndSendNFTLand","outputs":[{"internalType":"uint256","name":"amountOut","type":"uint256"}],"stateMutability":"nonpayable","type":"function"},{"inputs":[],"name":"earthverseMarketplace","outputs":[{"internalType":"address","name":"","type":"address"}],"stateMutability":"view","type":"function"},{"inputs":[{"internalType":"bytes32","name":"role","type":"bytes32"}],"name":"getRoleAdmin","outputs":[{"internalType":"bytes32","name":"","type":"bytes32"}],"stateMutability":"view","type":"function"},{"inputs":[{"internalType":"bytes32","name":"role","type":"bytes32"},{"internalType":"address","name":"account","type":"address"}],"name":"grantRole","outputs":[],"stateMutability":"nonpayable","type":"function"},{"inputs":[{"internalType":"bytes32","name":"role","type":"bytes32"},{"internalType":"address","name":"account","type":"address"}],"name":"hasRole","outputs":[{"internalType":"bool","name":"","type":"bool"}],"stateMutability":"view","type":"function"},{"inputs":[],"name":"nftd","outputs":[{"internalType":"address","name":"","type":"address"}],"stateMutability":"view","type":"function"},{"inputs":[{"internalType":"address","name":"stablecoinAddress","type":"address"}],"name":"removeStablecoinAddress","outputs":[],"stateMutability":"nonpayable","type":"function"},{"inputs":[{"internalType":"bytes32","name":"role","type":"bytes32"},{"internalType":"address","name":"account","type":"address"}],"name":"renounceRole","outputs":[],"stateMutability":"nonpayable","type":"function"},{"inputs":[{"internalType":"bytes32","name":"role","type":"bytes32"},{"internalType":"address","name":"account","type":"address"}],"name":"revokeRole","outputs":[],"stateMutability":"nonpayable","type":"function"},{"inputs":[{"internalType":"bytes4","name":"interfaceId","type":"bytes4"}],"name":"supportsInterface","outputs":[{"internalType":"bool","name":"","type":"bool"}],"stateMutability":"view","type":"function"},{"inputs":[],"name":"swapRouter","outputs":[{"internalType":"contract ISwapRouter","name":"","type":"address"}],"stateMutability":"view","type":"function"},{"stateMutability":"payable","type":"receive"}],"evm":{"bytecode":{"linkReferences":{},"object":"60e06040523480156200001157600080fd5b50604051620017653803806200176583398101604081905262000034916200021f565b6001600160a01b03821615806200005257506001600160a01b038116155b15620000715760405163e464451160e01b815260040160405180910390fd5b6200007e60003362000152565b620000aa7f4341d0255cf8de0fa9a36829221c28fe13c7d7b36de3957b92d9dd74a1e6fc363362000152565b6001600160a01b039182166080521660a05273e592427a0aece92de3edee1f18e0157c0586156460c05260026020527f02d595517b9735c34fbe6aecd967d335dcc4b0faa313ccf39a1e7daa07eca6938054600160ff1991821681179092557307865c6e87b9f70255377e024ace6630c1eaa37f6000527f235fa5e7c7148162da162edcaf0328210fc466b10ee308b8e1373c142617d78c8054909116909117905562000257565b6200015e828262000162565b5050565b6000828152602081815260408083206001600160a01b038516845290915290205460ff166200015e576000828152602081815260408083206001600160a01b03851684529091529020805460ff19166001179055620001be3390565b6001600160a01b0316816001600160a01b0316837f2f8788117e7eff1d82e926ec794901d17c78024a50270940304540a733656f0d60405160405180910390a45050565b80516001600160a01b03811681146200021a57600080fd5b919050565b600080604083850312156200023357600080fd5b6200023e8362000202565b91506200024e6020840162000202565b90509250929050565b60805160a05160c0516114c2620002a3600039600081816103af01528181610c6a0152610d4601526000818161042d01526107340152600081816102ce01526107d101526114c26000f3fe6080604052600436106101175760003560e01c806387479a9b1161009a578063c31c9c0711610061578063c31c9c071461039d578063d547741f146103d1578063dd1b9c4a146103f1578063fa0d06031461041b578063fa19dc071461044f57005b806387479a9b146102f057806391d148541461032057806394636cf014610340578063a217fddf14610360578063ad5c46481461037557005b806336568abe116100de57806336568abe1461022057806364b72507146102405780636f38efd8146102605780638265b1211461029457806385b82998146102bc57005b806301ffc9a71461012057806315ae1dc214610155578063248a9ca31461019557806327e235e3146101d35780632f2ff15d1461020057005b3661011e57005b005b34801561012c57600080fd5b5061014061013b3660046111d6565b61046f565b60405190151581526020015b60405180910390f35b34801561016157600080fd5b5061017d732cac916b2a963bf162f076c0a8a4a8200bcfbfb481565b6040516001600160a01b03909116815260200161014c565b3480156101a157600080fd5b506101c56101b0366004611200565b60009081526020819052604090206001015490565b60405190815260200161014c565b3480156101df57600080fd5b506101c56101ee36600461122e565b60016020526000908152604090205481565b34801561020c57600080fd5b5061011e61021b36600461124b565b6104a6565b34801561022c57600080fd5b5061011e61023b36600461124b565b6104d0565b34801561024c57600080fd5b5061011e61025b36600461122e565b610553565b34801561026c57600080fd5b506101c57f4341d0255cf8de0fa9a36829221c28fe13c7d7b36de3957b92d9dd74a1e6fc3681565b3480156102a057600080fd5b5061017d73178e141a0e3b34152f73ff610437a7bf9b83267a81565b3480156102c857600080fd5b5061017d7f000000000000000000000000000000000000000000000000000000000000000081565b3480156102fc57600080fd5b5061014061030b36600461122e565b60026020526000908152604090205460ff1681565b34801561032c57600080fd5b5061014061033b36600461124b565b610663565b34801561034c57600080fd5b506101c561035b36600461127b565b61068c565b34801561036c57600080fd5b506101c5600081565b34801561038157600080fd5b5061017d73b4fbf271143f4fbf7b91a5ded31805e42b2208d681565b3480156103a957600080fd5b5061017d7f000000000000000000000000000000000000000000000000000000000000000081565b3480156103dd57600080fd5b5061011e6103ec36600461124b565b610a7b565b3480156103fd57600080fd5b50610407610bb881565b60405162ffffff909116815260200161014c565b34801561042757600080fd5b5061017d7f000000000000000000000000000000000000000000000000000000000000000081565b34801561045b57600080fd5b5061011e61046a36600461122e565b610aa0565b60006001600160e01b03198216637965db0b60e01b14806104a057506301ffc9a760e01b6001600160e01b03198316145b92915050565b6000828152602081905260409020600101546104c181610b60565b6104cb8383610b6d565b505050565b6001600160a01b03811633146105455760405162461bcd60e51b815260206004820152602f60248201527f416363657373436f6e74726f6c3a2063616e206f6e6c792072656e6f756e636560448201526e103937b632b9903337b91039b2b63360891b60648201526084015b60405180910390fd5b61054f8282610bf1565b5050565b806001600160a01b03811661057b5760405163e464451160e01b815260040160405180910390fd5b6105a57f4341d0255cf8de0fa9a36829221c28fe13c7d7b36de3957b92d9dd74a1e6fc3633610663565b6105c257604051631855bb5b60e01b815260040160405180910390fd5b6001600160a01b03821660009081526002602052604090205460ff161561060757604051630401b05f60e31b81526001600160a01b038316600482015260240161053c565b6001600160a01b038216600081815260026020908152604091829020805460ff1916600117905590519182527fd3fd5514d8d38737937e026d07c3e8fd002f28a6df2f95c0dc46a71c1d69f29091015b60405180910390a15050565b6000918252602082815260408084206001600160a01b0393909316845291905290205460ff1690565b60008084116106ae5760405163ab706e1d60e01b815260040160405180910390fd5b6001600160a01b03851660009081526002602052604090205460ff166106f2576040516301c5a60d60e11b81526001600160a01b038616600482015260240161053c565b6106fc8486610c56565b604051634ad0104f60e11b81523360048201526024810185905260448101869052606481018490529091506000906001600160a01b037f000000000000000000000000000000000000000000000000000000000000000016906395a0209e906084016020604051808303816000875af115801561077d573d6000803e3d6000fd5b505050506040513d601f19601f820116820180604052508101906107a191906112b6565b604051630ab714fb60e11b81526001600160a01b03808316600483015260248201889052604482018690529192507f00000000000000000000000000000000000000000000000000000000000000009091169063156e29f690606401600060405180830381600087803b15801561081757600080fd5b505af115801561082b573d6000803e3d6000fd5b5050604051632e1a7d4d60e01b81526004810185905273b4fbf271143f4fbf7b91a5ded31805e42b2208d69250632e1a7d4d9150602401600060405180830381600087803b15801561087c57600080fd5b505af1158015610890573d6000803e3d6000fd5b50506040516370a0823160e01b81523060048201526000925073178e141a0e3b34152f73ff610437a7bf9b83267a91506370a0823190602401602060405180830381865afa1580156108e6573d6000803e3d6000fd5b505050506040513d601f19601f8201168201806040525081019061090a91906112d3565b9050732cac916b2a963bf162f076c0a8a4a8200bcfbfb46001600160a01b031663d0e30db0846040518263ffffffff1660e01b81526004016000604051808303818588803b15801561095b57600080fd5b505af115801561096f573d6000803e3d6000fd5b50506040516370a0823160e01b81523060048201526000935073178e141a0e3b34152f73ff610437a7bf9b83267a92506370a082319150602401602060405180830381865afa1580156109c6573d6000803e3d6000fd5b505050506040513d601f19601f820116820180604052508101906109ea91906112d3565b905081811015610a0d576040516303836e6d60e61b815260040160405180910390fd5b6000610a198383611302565b33600090815260016020526040812080549293508392909190610a3d908490611315565b9091555050604051859033907ffd5ea28d6087c1605f89dd44ebc3cd2c852bd16c5f1f713218f5618d7611143790600090a350505050949350505050565b600082815260208190526040902060010154610a9681610b60565b6104cb8383610bf1565b806001600160a01b038116610ac85760405163e464451160e01b815260040160405180910390fd5b610af27f4341d0255cf8de0fa9a36829221c28fe13c7d7b36de3957b92d9dd74a1e6fc3633610663565b610b0f57604051631855bb5b60e01b815260040160405180910390fd5b6001600160a01b038216600081815260026020908152604091829020805460ff1916905590519182527f88e26bc6bef7637bfd9b65be229bfdec9813454ad0bee72203006a540dadfd549101610657565b610b6a8133610dbe565b50565b610b778282610663565b61054f576000828152602081815260408083206001600160a01b03851684529091529020805460ff19166001179055610bad3390565b6001600160a01b0316816001600160a01b0316837f2f8788117e7eff1d82e926ec794901d17c78024a50270940304540a733656f0d60405160405180910390a45050565b610bfb8282610663565b1561054f576000828152602081815260408083206001600160a01b0385168085529252808320805460ff1916905551339285917ff6391f5c32d9c69d2a47ea670b442974b53935d1edc7fd64eb21e047a839171b9190a45050565b6000610c6482333086610e17565b610c8f827f000000000000000000000000000000000000000000000000000000000000000085610f21565b60408051610100810182526001600160a01b03848116825273b4fbf271143f4fbf7b91a5ded31805e42b2208d660208301908152610bb88385019081523060608501908152426080860190815260a086018a8152600060c0880181815260e08901918252985163414bf38960e01b8152885188166004820152955187166024870152935162ffffff1660448601529151851660648501525160848401525160a4830152935160c48201529251811660e484015290917f00000000000000000000000000000000000000000000000000000000000000009091169063414bf38990610104016020604051808303816000875af1158015610d92573d6000803e3d6000fd5b505050506040513d601f19601f82011682018060405250810190610db691906112d3565b949350505050565b610dc88282610663565b61054f57610dd581611021565b610de0836020611033565b604051602001610df192919061134c565b60408051601f198184030181529082905262461bcd60e51b825261053c916004016113c1565b604080516001600160a01b0385811660248301528481166044830152606480830185905283518084039091018152608490920183526020820180516001600160e01b03166323b872dd60e01b1790529151600092839290881691610e7b91906113f4565b6000604051808303816000865af19150503d8060008114610eb8576040519150601f19603f3d011682016040523d82523d6000602084013e610ebd565b606091505b5091509150818015610ee7575080511580610ee7575080806020019051810190610ee79190611410565b610f195760405162461bcd60e51b815260206004820152600360248201526229aa2360e91b604482015260640161053c565b505050505050565b604080516001600160a01b038481166024830152604480830185905283518084039091018152606490920183526020820180516001600160e01b031663095ea7b360e01b1790529151600092839290871691610f7d91906113f4565b6000604051808303816000865af19150503d8060008114610fba576040519150601f19603f3d011682016040523d82523d6000602084013e610fbf565b606091505b5091509150818015610fe9575080511580610fe9575080806020019051810190610fe99190611410565b61101a5760405162461bcd60e51b8152602060048201526002602482015261534160f01b604482015260640161053c565b5050505050565b60606104a06001600160a01b03831660145b60606000611042836002611432565b61104d906002611315565b67ffffffffffffffff81111561106557611065611449565b6040519080825280601f01601f19166020018201604052801561108f576020820181803683370190505b509050600360fc1b816000815181106110aa576110aa61145f565b60200101906001600160f81b031916908160001a905350600f60fb1b816001815181106110d9576110d961145f565b60200101906001600160f81b031916908160001a90535060006110fd846002611432565b611108906001611315565b90505b6001811115611180576f181899199a1a9b1b9c1cb0b131b232b360811b85600f166010811061113c5761113c61145f565b1a60f81b8282815181106111525761115261145f565b60200101906001600160f81b031916908160001a90535060049490941c9361117981611475565b905061110b565b5083156111cf5760405162461bcd60e51b815260206004820181905260248201527f537472696e67733a20686578206c656e67746820696e73756666696369656e74604482015260640161053c565b9392505050565b6000602082840312156111e857600080fd5b81356001600160e01b0319811681146111cf57600080fd5b60006020828403121561121257600080fd5b5035919050565b6001600160a01b0381168114610b6a57600080fd5b60006020828403121561124057600080fd5b81356111cf81611219565b6000806040838503121561125e57600080fd5b82359150602083013561127081611219565b809150509250929050565b6000806000806080858703121561129157600080fd5b843561129c81611219565b966020860135965060408601359560600135945092505050565b6000602082840312156112c857600080fd5b81516111cf81611219565b6000602082840312156112e557600080fd5b5051919050565b634e487b7160e01b600052601160045260246000fd5b818103818111156104a0576104a06112ec565b808201808211156104a0576104a06112ec565b60005b8381101561134357818101518382015260200161132b565b50506000910152565b7f416363657373436f6e74726f6c3a206163636f756e7420000000000000000000815260008351611384816017850160208801611328565b7001034b99036b4b9b9b4b733903937b6329607d1b60179184019182015283516113b5816028840160208801611328565b01602801949350505050565b60208152600082518060208401526113e0816040850160208701611328565b601f01601f19169190910160400192915050565b60008251611406818460208701611328565b9190910192915050565b60006020828403121561142257600080fd5b815180151581146111cf57600080fd5b80820281158282048414176104a0576104a06112ec565b634e487b7160e01b600052604160045260246000fd5b634e487b7160e01b600052603260045260246000fd5b600081611484576114846112ec565b50600019019056fea26469706673582212203934cbd33fb1c2e148e5359def826dfdb7245b4038d1b97b39f9275fa61263ae64736f6c63430008110033","opcodes":"PUSH1 0xE0 PUSH1 0x40 MSTORE CALLVALUE DUP1 ISZERO PUSH3 0x11 JUMPI PUSH1 0x0 DUP1 REVERT JUMPDEST POP PUSH1 0x40 MLOAD PUSH3 0x1765 CODESIZE SUB DUP1 PUSH3 0x1765 DUP4 CODECOPY DUP2 ADD PUSH1 0x40 DUP2 SWAP1 MSTORE PUSH3 0x34 SWAP2 PUSH3 0x21F JUMP JUMPDEST PUSH1 0x1 PUSH1 0x1 PUSH1 0xA0 SHL SUB DUP3 AND ISZERO DUP1 PUSH3 0x52 JUMPI POP PUSH1 0x1 PUSH1 0x1 PUSH1 0xA0 SHL SUB DUP2 AND ISZERO JUMPDEST ISZERO PUSH3 0x71 JUMPI PUSH1 0x40 MLOAD PUSH4 0xE4644511 PUSH1 0xE0 SHL DUP2 MSTORE PUSH1 0x4 ADD PUSH1 0x40 MLOAD DUP1 SWAP2 SUB SWAP1 REVERT JUMPDEST PUSH3 0x7E PUSH1 0x0 CALLER PUSH3 0x152 JUMP JUMPDEST PUSH3 0xAA PUSH32 0x4341D0255CF8DE0FA9A36829221C28FE13C7D7B36DE3957B92D9DD74A1E6FC36 CALLER PUSH3 0x152 JUMP JUMPDEST PUSH1 0x1 PUSH1 0x1 PUSH1 0xA0 SHL SUB SWAP2 DUP3 AND PUSH1 0x80 MSTORE AND PUSH1 0xA0 MSTORE PUSH20 0xE592427A0AECE92DE3EDEE1F18E0157C05861564 PUSH1 0xC0 MSTORE PUSH1 0x2 PUSH1 0x20 MSTORE PUSH32 0x2D595517B9735C34FBE6AECD967D335DCC4B0FAA313CCF39A1E7DAA07ECA693 DUP1 SLOAD PUSH1 0x1 PUSH1 0xFF NOT SWAP2 DUP3 AND DUP2 OR SWAP1 SWAP3 SSTORE PUSH20 0x7865C6E87B9F70255377E024ACE6630C1EAA37F PUSH1 0x0 MSTORE PUSH32 0x235FA5E7C7148162DA162EDCAF0328210FC466B10EE308B8E1373C142617D78C DUP1 SLOAD SWAP1 SWAP2 AND SWAP1 SWAP2 OR SWAP1 SSTORE PUSH3 0x257 JUMP JUMPDEST PUSH3 0x15E DUP3 DUP3 PUSH3 0x162 JUMP JUMPDEST POP POP JUMP JUMPDEST PUSH1 0x0 DUP3 DUP2 MSTORE PUSH1 0x20 DUP2 DUP2 MSTORE PUSH1 0x40 DUP1 DUP4 KECCAK256 PUSH1 0x1 PUSH1 0x1 PUSH1 0xA0 SHL SUB DUP6 AND DUP5 MSTORE SWAP1 SWAP2 MSTORE SWAP1 KECCAK256 SLOAD PUSH1 0xFF AND PUSH3 0x15E JUMPI PUSH1 0x0 DUP3 DUP2 MSTORE PUSH1 0x20 DUP2 DUP2 MSTORE PUSH1 0x40 DUP1 DUP4 KECCAK256 PUSH1 0x1 PUSH1 0x1 PUSH1 0xA0 SHL SUB DUP6 AND DUP5 MSTORE SWAP1 SWAP2 MSTORE SWAP1 KECCAK256 DUP1 SLOAD PUSH1 0xFF NOT AND PUSH1 0x1 OR SWAP1 SSTORE PUSH3 0x1BE CALLER SWAP1 JUMP JUMPDEST PUSH1 0x1 PUSH1 0x1 PUSH1 0xA0 SHL SUB AND DUP2 PUSH1 0x1 PUSH1 0x1 PUSH1 0xA0 SHL SUB AND DUP4 PUSH32 0x2F8788117E7EFF1D82E926EC794901D17C78024A50270940304540A733656F0D PUSH1 0x40 MLOAD PUSH1 0x40 MLOAD DUP1 SWAP2 SUB SWAP1 LOG4 POP POP JUMP JUMPDEST DUP1 MLOAD PUSH1 0x1 PUSH1 0x1 PUSH1 0xA0 SHL SUB DUP2 AND DUP2 EQ PUSH3 0x21A JUMPI PUSH1 0x0 DUP1 REVERT JUMPDEST SWAP2 SWAP1 POP JUMP JUMPDEST PUSH1 0x0 DUP1 PUSH1 0x40 DUP4 DUP6 SUB SLT ISZERO PUSH3 0x233 JUMPI PUSH1 0x0 DUP1 REVERT JUMPDEST PUSH3 0x23E DUP4 PUSH3 0x202 JUMP JUMPDEST SWAP2 POP PUSH3 0x24E PUSH1 0x20 DUP5 ADD PUSH3 0x202 JUMP JUMPDEST SWAP1 POP SWAP3 POP SWAP3 SWAP1 POP JUMP JUMPDEST PUSH1 0x80 MLOAD PUSH1 0xA0 MLOAD PUSH1 0xC0 MLOAD PUSH2 0x14C2 PUSH3 0x2A3 PUSH1 0x0 CODECOPY PUSH1 0x0 DUP2 DUP2 PUSH2 0x3AF ADD MSTORE DUP2 DUP2 PUSH2 0xC6A ADD MSTORE PUSH2 0xD46 ADD MSTORE PUSH1 0x0 DUP2 DUP2 PUSH2 0x42D ADD MSTORE PUSH2 0x734 ADD MSTORE PUSH1 0x0 DUP2 DUP2 PUSH2 0x2CE ADD MSTORE PUSH2 0x7D1 ADD MSTORE PUSH2 0x14C2 PUSH1 0x0 RETURN INVALID PUSH1 0x80 PUSH1 0x40 MSTORE PUSH1 0x4 CALLDATASIZE LT PUSH2 0x117 JUMPI PUSH1 0x0 CALLDATALOAD PUSH1 0xE0 SHR DUP1 PUSH4 0x87479A9B GT PUSH2 0x9A JUMPI DUP1 PUSH4 0xC31C9C07 GT PUSH2 0x61 JUMPI DUP1 PUSH4 0xC31C9C07 EQ PUSH2 0x39D JUMPI DUP1 PUSH4 0xD547741F EQ PUSH2 0x3D1 JUMPI DUP1 PUSH4 0xDD1B9C4A EQ PUSH2 0x3F1 JUMPI DUP1 PUSH4 0xFA0D0603 EQ PUSH2 0x41B JUMPI DUP1 PUSH4 0xFA19DC07 EQ PUSH2 0x44F JUMPI STOP JUMPDEST DUP1 PUSH4 0x87479A9B EQ PUSH2 0x2F0 JUMPI DUP1 PUSH4 0x91D14854 EQ PUSH2 0x320 JUMPI DUP1 PUSH4 0x94636CF0 EQ PUSH2 0x340 JUMPI DUP1 PUSH4 0xA217FDDF EQ PUSH2 0x360 JUMPI DUP1 PUSH4 0xAD5C4648 EQ PUSH2 0x375 JUMPI STOP JUMPDEST DUP1 PUSH4 0x36568ABE GT PUSH2 0xDE JUMPI DUP1 PUSH4 0x36568ABE EQ PUSH2 0x220 JUMPI DUP1 PUSH4 0x64B72507 EQ PUSH2 0x240 JUMPI DUP1 PUSH4 0x6F38EFD8 EQ PUSH2 0x260 JUMPI DUP1 PUSH4 0x8265B121 EQ PUSH2 0x294 JUMPI DUP1 PUSH4 0x85B82998 EQ PUSH2 0x2BC JUMPI STOP JUMPDEST DUP1 PUSH4 0x1FFC9A7 EQ PUSH2 0x120 JUMPI DUP1 PUSH4 0x15AE1DC2 EQ PUSH2 0x155 JUMPI DUP1 PUSH4 0x248A9CA3 EQ PUSH2 0x195 JUMPI DUP1 PUSH4 0x27E235E3 EQ PUSH2 0x1D3 JUMPI DUP1 PUSH4 0x2F2FF15D EQ PUSH2 0x200 JUMPI STOP JUMPDEST CALLDATASIZE PUSH2 0x11E JUMPI STOP JUMPDEST STOP JUMPDEST CALLVALUE DUP1 ISZERO PUSH2 0x12C JUMPI PUSH1 0x0 DUP1 REVERT JUMPDEST POP PUSH2 0x140 PUSH2 0x13B CALLDATASIZE PUSH1 0x4 PUSH2 0x11D6 JUMP JUMPDEST PUSH2 0x46F JUMP JUMPDEST PUSH1 0x40 MLOAD SWAP1 ISZERO ISZERO DUP2 MSTORE PUSH1 0x20 ADD JUMPDEST PUSH1 0x40 MLOAD DUP1 SWAP2 SUB SWAP1 RETURN JUMPDEST CALLVALUE DUP1 ISZERO PUSH2 0x161 JUMPI PUSH1 0x0 DUP1 REVERT JUMPDEST POP PUSH2 0x17D PUSH20 0x2CAC916B2A963BF162F076C0A8A4A8200BCFBFB4 DUP2 JUMP JUMPDEST PUSH1 0x40 MLOAD PUSH1 0x1 PUSH1 0x1 PUSH1 0xA0 SHL SUB SWAP1 SWAP2 AND DUP2 MSTORE PUSH1 0x20 ADD PUSH2 0x14C JUMP JUMPDEST CALLVALUE DUP1 ISZERO PUSH2 0x1A1 JUMPI PUSH1 0x0 DUP1 REVERT JUMPDEST POP PUSH2 0x1C5 PUSH2 0x1B0 CALLDATASIZE PUSH1 0x4 PUSH2 0x1200 JUMP JUMPDEST PUSH1 0x0 SWAP1 DUP2 MSTORE PUSH1 0x20 DUP2 SWAP1 MSTORE PUSH1 0x40 SWAP1 KECCAK256 PUSH1 0x1 ADD SLOAD SWAP1 JUMP JUMPDEST PUSH1 0x40 MLOAD SWAP1 DUP2 MSTORE PUSH1 0x20 ADD PUSH2 0x14C JUMP JUMPDEST CALLVALUE DUP1 ISZERO PUSH2 0x1DF JUMPI PUSH1 0x0 DUP1 REVERT JUMPDEST POP PUSH2 0x1C5 PUSH2 0x1EE CALLDATASIZE PUSH1 0x4 PUSH2 0x122E JUMP JUMPDEST PUSH1 0x1 PUSH1 0x20 MSTORE PUSH1 0x0 SWAP1 DUP2 MSTORE PUSH1 0x40 SWAP1 KECCAK256 SLOAD DUP2 JUMP JUMPDEST CALLVALUE DUP1 ISZERO PUSH2 0x20C JUMPI PUSH1 0x0 DUP1 REVERT JUMPDEST POP PUSH2 0x11E PUSH2 0x21B CALLDATASIZE PUSH1 0x4 PUSH2 0x124B JUMP JUMPDEST PUSH2 0x4A6 JUMP JUMPDEST CALLVALUE DUP1 ISZERO PUSH2 0x22C JUMPI PUSH1 0x0 DUP1 REVERT JUMPDEST POP PUSH2 0x11E PUSH2 0x23B CALLDATASIZE PUSH1 0x4 PUSH2 0x124B JUMP JUMPDEST PUSH2 0x4D0 JUMP JUMPDEST CALLVALUE DUP1 ISZERO PUSH2 0x24C JUMPI PUSH1 0x0 DUP1 REVERT JUMPDEST POP PUSH2 0x11E PUSH2 0x25B CALLDATASIZE PUSH1 0x4 PUSH2 0x122E JUMP JUMPDEST PUSH2 0x553 JUMP JUMPDEST CALLVALUE DUP1 ISZERO PUSH2 0x26C JUMPI PUSH1 0x0 DUP1 REVERT JUMPDEST POP PUSH2 0x1C5 PUSH32 0x4341D0255CF8DE0FA9A36829221C28FE13C7D7B36DE3957B92D9DD74A1E6FC36 DUP2 JUMP JUMPDEST CALLVALUE DUP1 ISZERO PUSH2 0x2A0 JUMPI PUSH1 0x0 DUP1 REVERT JUMPDEST POP PUSH2 0x17D PUSH20 0x178E141A0E3B34152F73FF610437A7BF9B83267A DUP2 JUMP JUMPDEST CALLVALUE DUP1 ISZERO PUSH2 0x2C8 JUMPI PUSH1 0x0 DUP1 REVERT JUMPDEST POP PUSH2 0x17D PUSH32 0x0 DUP2 JUMP JUMPDEST CALLVALUE DUP1 ISZERO PUSH2 0x2FC JUMPI PUSH1 0x0 DUP1 REVERT JUMPDEST POP PUSH2 0x140 PUSH2 0x30B CALLDATASIZE PUSH1 0x4 PUSH2 0x122E JUMP JUMPDEST PUSH1 0x2 PUSH1 0x20 MSTORE PUSH1 0x0 SWAP1 DUP2 MSTORE PUSH1 0x40 SWAP1 KECCAK256 SLOAD PUSH1 0xFF AND DUP2 JUMP JUMPDEST CALLVALUE DUP1 ISZERO PUSH2 0x32C JUMPI PUSH1 0x0 DUP1 REVERT JUMPDEST POP PUSH2 0x140 PUSH2 0x33B CALLDATASIZE PUSH1 0x4 PUSH2 0x124B JUMP JUMPDEST PUSH2 0x663 JUMP JUMPDEST CALLVALUE DUP1 ISZERO PUSH2 0x34C JUMPI PUSH1 0x0 DUP1 REVERT JUMPDEST POP PUSH2 0x1C5 PUSH2 0x35B CALLDATASIZE PUSH1 0x4 PUSH2 0x127B JUMP JUMPDEST PUSH2 0x68C JUMP JUMPDEST CALLVALUE DUP1 ISZERO PUSH2 0x36C JUMPI PUSH1 0x0 DUP1 REVERT JUMPDEST POP PUSH2 0x1C5 PUSH1 0x0 DUP2 JUMP JUMPDEST CALLVALUE DUP1 ISZERO PUSH2 0x381 JUMPI PUSH1 0x0 DUP1 REVERT JUMPDEST POP PUSH2 0x17D PUSH20 0xB4FBF271143F4FBF7B91A5DED31805E42B2208D6 DUP2 JUMP JUMPDEST CALLVALUE DUP1 ISZERO PUSH2 0x3A9 JUMPI PUSH1 0x0 DUP1 REVERT JUMPDEST POP PUSH2 0x17D PUSH32 0x0 DUP2 JUMP JUMPDEST CALLVALUE DUP1 ISZERO PUSH2 0x3DD JUMPI PUSH1 0x0 DUP1 REVERT JUMPDEST POP PUSH2 0x11E PUSH2 0x3EC CALLDATASIZE PUSH1 0x4 PUSH2 0x124B JUMP JUMPDEST PUSH2 0xA7B JUMP JUMPDEST CALLVALUE DUP1 ISZERO PUSH2 0x3FD JUMPI PUSH1 0x0 DUP1 REVERT JUMPDEST POP PUSH2 0x407 PUSH2 0xBB8 DUP2 JUMP JUMPDEST PUSH1 0x40 MLOAD PUSH3 0xFFFFFF SWAP1 SWAP2 AND DUP2 MSTORE PUSH1 0x20 ADD PUSH2 0x14C JUMP JUMPDEST CALLVALUE DUP1 ISZERO PUSH2 0x427 JUMPI PUSH1 0x0 DUP1 REVERT JUMPDEST POP PUSH2 0x17D PUSH32 0x0 DUP2 JUMP JUMPDEST CALLVALUE DUP1 ISZERO PUSH2 0x45B JUMPI PUSH1 0x0 DUP1 REVERT JUMPDEST POP PUSH2 0x11E PUSH2 0x46A CALLDATASIZE PUSH1 0x4 PUSH2 0x122E JUMP JUMPDEST PUSH2 0xAA0 JUMP JUMPDEST PUSH1 0x0 PUSH1 0x1 PUSH1 0x1 PUSH1 0xE0 SHL SUB NOT DUP3 AND PUSH4 0x7965DB0B PUSH1 0xE0 SHL EQ DUP1 PUSH2 0x4A0 JUMPI POP PUSH4 0x1FFC9A7 PUSH1 0xE0 SHL PUSH1 0x1 PUSH1 0x1 PUSH1 0xE0 SHL SUB NOT DUP4 AND EQ JUMPDEST SWAP3 SWAP2 POP POP JUMP JUMPDEST PUSH1 0x0 DUP3 DUP2 MSTORE PUSH1 0x20 DUP2 SWAP1 MSTORE PUSH1 0x40 SWAP1 KECCAK256 PUSH1 0x1 ADD SLOAD PUSH2 0x4C1 DUP2 PUSH2 0xB60 JUMP JUMPDEST PUSH2 0x4CB DUP4 DUP4 PUSH2 0xB6D JUMP JUMPDEST POP POP POP JUMP JUMPDEST PUSH1 0x1 PUSH1 0x1 PUSH1 0xA0 SHL SUB DUP2 AND CALLER EQ PUSH2 0x545 JUMPI PUSH1 0x40 MLOAD PUSH3 0x461BCD PUSH1 0xE5 SHL DUP2 MSTORE PUSH1 0x20 PUSH1 0x4 DUP3 ADD MSTORE PUSH1 0x2F PUSH1 0x24 DUP3 ADD MSTORE PUSH32 0x416363657373436F6E74726F6C3A2063616E206F6E6C792072656E6F756E6365 PUSH1 0x44 DUP3 ADD MSTORE PUSH15 0x103937B632B9903337B91039B2B633 PUSH1 0x89 SHL PUSH1 0x64 DUP3 ADD MSTORE PUSH1 0x84 ADD JUMPDEST PUSH1 0x40 MLOAD DUP1 SWAP2 SUB SWAP1 REVERT JUMPDEST PUSH2 0x54F DUP3 DUP3 PUSH2 0xBF1 JUMP JUMPDEST POP POP JUMP JUMPDEST DUP1 PUSH1 0x1 PUSH1 0x1 PUSH1 0xA0 SHL SUB DUP2 AND PUSH2 0x57B JUMPI PUSH1 0x40 MLOAD PUSH4 0xE4644511 PUSH1 0xE0 SHL DUP2 MSTORE PUSH1 0x4 ADD PUSH1 0x40 MLOAD DUP1 SWAP2 SUB SWAP1 REVERT JUMPDEST PUSH2 0x5A5 PUSH32 0x4341D0255CF8DE0FA9A36829221C28FE13C7D7B36DE3957B92D9DD74A1E6FC36 CALLER PUSH2 0x663 JUMP JUMPDEST PUSH2 0x5C2 JUMPI PUSH1 0x40 MLOAD PUSH4 0x1855BB5B PUSH1 0xE0 SHL DUP2 MSTORE PUSH1 0x4 ADD PUSH1 0x40 MLOAD DUP1 SWAP2 SUB SWAP1 REVERT JUMPDEST PUSH1 0x1 PUSH1 0x1 PUSH1 0xA0 SHL SUB DUP3 AND PUSH1 0x0 SWAP1 DUP2 MSTORE PUSH1 0x2 PUSH1 0x20 MSTORE PUSH1 0x40 SWAP1 KECCAK256 SLOAD PUSH1 0xFF AND ISZERO PUSH2 0x607 JUMPI PUSH1 0x40 MLOAD PUSH4 0x401B05F PUSH1 0xE3 SHL DUP2 MSTORE PUSH1 0x1 PUSH1 0x1 PUSH1 0xA0 SHL SUB DUP4 AND PUSH1 0x4 DUP3 ADD MSTORE PUSH1 0x24 ADD PUSH2 0x53C JUMP JUMPDEST PUSH1 0x1 PUSH1 0x1 PUSH1 0xA0 SHL SUB DUP3 AND PUSH1 0x0 DUP2 DUP2 MSTORE PUSH1 0x2 PUSH1 0x20 SWAP1 DUP2 MSTORE PUSH1 0x40 SWAP2 DUP3 SWAP1 KECCAK256 DUP1 SLOAD PUSH1 0xFF NOT AND PUSH1 0x1 OR SWAP1 SSTORE SWAP1 MLOAD SWAP2 DUP3 MSTORE PUSH32 0xD3FD5514D8D38737937E026D07C3E8FD002F28A6DF2F95C0DC46A71C1D69F290 SWAP2 ADD JUMPDEST PUSH1 0x40 MLOAD DUP1 SWAP2 SUB SWAP1 LOG1 POP POP JUMP JUMPDEST PUSH1 0x0 SWAP2 DUP3 MSTORE PUSH1 0x20 DUP3 DUP2 MSTORE PUSH1 0x40 DUP1 DUP5 KECCAK256 PUSH1 0x1 PUSH1 0x1 PUSH1 0xA0 SHL SUB SWAP4 SWAP1 SWAP4 AND DUP5 MSTORE SWAP2 SWAP1 MSTORE SWAP1 KECCAK256 SLOAD PUSH1 0xFF AND SWAP1 JUMP JUMPDEST PUSH1 0x0 DUP1 DUP5 GT PUSH2 0x6AE JUMPI PUSH1 0x40 MLOAD PUSH4 0xAB706E1D PUSH1 0xE0 SHL DUP2 MSTORE PUSH1 0x4 ADD PUSH1 0x40 MLOAD DUP1 SWAP2 SUB SWAP1 REVERT JUMPDEST PUSH1 0x1 PUSH1 0x1 PUSH1 0xA0 SHL SUB DUP6 AND PUSH1 0x0 SWAP1 DUP2 MSTORE PUSH1 0x2 PUSH1 0x20 MSTORE PUSH1 0x40 SWAP1 KECCAK256 SLOAD PUSH1 0xFF AND PUSH2 0x6F2 JUMPI PUSH1 0x40 MLOAD PUSH4 0x1C5A60D PUSH1 0xE1 SHL DUP2 MSTORE PUSH1 0x1 PUSH1 0x1 PUSH1 0xA0 SHL SUB DUP7 AND PUSH1 0x4 DUP3 ADD MSTORE PUSH1 0x24 ADD PUSH2 0x53C JUMP JUMPDEST PUSH2 0x6FC DUP5 DUP7 PUSH2 0xC56 JUMP JUMPDEST PUSH1 0x40 MLOAD PUSH4 0x4AD0104F PUSH1 0xE1 SHL DUP2 MSTORE CALLER PUSH1 0x4 DUP3 ADD MSTORE PUSH1 0x24 DUP2 ADD DUP6 SWAP1 MSTORE PUSH1 0x44 DUP2 ADD DUP7 SWAP1 MSTORE PUSH1 0x64 DUP2 ADD DUP5 SWAP1 MSTORE SWAP1 SWAP2 POP PUSH1 0x0 SWAP1 PUSH1 0x1 PUSH1 0x1 PUSH1 0xA0 SHL SUB PUSH32 0x0 AND SWAP1 PUSH4 0x95A0209E SWAP1 PUSH1 0x84 ADD PUSH1 0x20 PUSH1 0x40 MLOAD DUP1 DUP4 SUB DUP2 PUSH1 0x0 DUP8 GAS CALL ISZERO DUP1 ISZERO PUSH2 0x77D JUMPI RETURNDATASIZE PUSH1 0x0 DUP1 RETURNDATACOPY RETURNDATASIZE PUSH1 0x0 REVERT JUMPDEST POP POP POP POP PUSH1 0x40 MLOAD RETURNDATASIZE PUSH1 0x1F NOT PUSH1 0x1F DUP3 ADD AND DUP3 ADD DUP1 PUSH1 0x40 MSTORE POP DUP2 ADD SWAP1 PUSH2 0x7A1 SWAP2 SWAP1 PUSH2 0x12B6 JUMP JUMPDEST PUSH1 0x40 MLOAD PUSH4 0xAB714FB PUSH1 0xE1 SHL DUP2 MSTORE PUSH1 0x1 PUSH1 0x1 PUSH1 0xA0 SHL SUB DUP1 DUP4 AND PUSH1 0x4 DUP4 ADD MSTORE PUSH1 0x24 DUP3 ADD DUP9 SWAP1 MSTORE PUSH1 0x44 DUP3 ADD DUP7 SWAP1 MSTORE SWAP2 SWAP3 POP PUSH32 0x0 SWAP1 SWAP2 AND SWAP1 PUSH4 0x156E29F6 SWAP1 PUSH1 0x64 ADD PUSH1 0x0 PUSH1 0x40 MLOAD DUP1 DUP4 SUB DUP2 PUSH1 0x0 DUP8 DUP1 EXTCODESIZE ISZERO DUP1 ISZERO PUSH2 0x817 JUMPI PUSH1 0x0 DUP1 REVERT JUMPDEST POP GAS CALL ISZERO DUP1 ISZERO PUSH2 0x82B JUMPI RETURNDATASIZE PUSH1 0x0 DUP1 RETURNDATACOPY RETURNDATASIZE PUSH1 0x0 REVERT JUMPDEST POP POP PUSH1 0x40 MLOAD PUSH4 0x2E1A7D4D PUSH1 0xE0 SHL DUP2 MSTORE PUSH1 0x4 DUP2 ADD DUP6 SWAP1 MSTORE PUSH20 0xB4FBF271143F4FBF7B91A5DED31805E42B2208D6 SWAP3 POP PUSH4 0x2E1A7D4D SWAP2 POP PUSH1 0x24 ADD PUSH1 0x0 PUSH1 0x40 MLOAD DUP1 DUP4 SUB DUP2 PUSH1 0x0 DUP8 DUP1 EXTCODESIZE ISZERO DUP1 ISZERO PUSH2 0x87C JUMPI PUSH1 0x0 DUP1 REVERT JUMPDEST POP GAS CALL ISZERO DUP1 ISZERO PUSH2 0x890 JUMPI RETURNDATASIZE PUSH1 0x0 DUP1 RETURNDATACOPY RETURNDATASIZE PUSH1 0x0 REVERT JUMPDEST POP POP PUSH1 0x40 MLOAD PUSH4 0x70A08231 PUSH1 0xE0 SHL DUP2 MSTORE ADDRESS PUSH1 0x4 DUP3 ADD MSTORE PUSH1 0x0 SWAP3 POP PUSH20 0x178E141A0E3B34152F73FF610437A7BF9B83267A SWAP2 POP PUSH4 0x70A08231 SWAP1 PUSH1 0x24 ADD PUSH1 0x20 PUSH1 0x40 MLOAD DUP1 DUP4 SUB DUP2 DUP7 GAS STATICCALL ISZERO DUP1 ISZERO PUSH2 0x8E6 JUMPI RETURNDATASIZE PUSH1 0x0 DUP1 RETURNDATACOPY RETURNDATASIZE PUSH1 0x0 REVERT JUMPDEST POP POP POP POP PUSH1 0x40 MLOAD RETURNDATASIZE PUSH1 0x1F NOT PUSH1 0x1F DUP3 ADD AND DUP3 ADD DUP1 PUSH1 0x40 MSTORE POP DUP2 ADD SWAP1 PUSH2 0x90A SWAP2 SWAP1 PUSH2 0x12D3 JUMP JUMPDEST SWAP1 POP PUSH20 0x2CAC916B2A963BF162F076C0A8A4A8200BCFBFB4 PUSH1 0x1 PUSH1 0x1 PUSH1 0xA0 SHL SUB AND PUSH4 0xD0E30DB0 DUP5 PUSH1 0x40 MLOAD DUP3 PUSH4 0xFFFFFFFF AND PUSH1 0xE0 SHL DUP2 MSTORE PUSH1 0x4 ADD PUSH1 0x0 PUSH1 0x40 MLOAD DUP1 DUP4 SUB DUP2 DUP6 DUP9 DUP1 EXTCODESIZE ISZERO DUP1 ISZERO PUSH2 0x95B JUMPI PUSH1 0x0 DUP1 REVERT JUMPDEST POP GAS CALL ISZERO DUP1 ISZERO PUSH2 0x96F JUMPI RETURNDATASIZE PUSH1 0x0 DUP1 RETURNDATACOPY RETURNDATASIZE PUSH1 0x0 REVERT JUMPDEST POP POP PUSH1 0x40 MLOAD PUSH4 0x70A08231 PUSH1 0xE0 SHL DUP2 MSTORE ADDRESS PUSH1 0x4 DUP3 ADD MSTORE PUSH1 0x0 SWAP4 POP PUSH20 0x178E141A0E3B34152F73FF610437A7BF9B83267A SWAP3 POP PUSH4 0x70A08231 SWAP2 POP PUSH1 0x24 ADD PUSH1 0x20 PUSH1 0x40 MLOAD DUP1 DUP4 SUB DUP2 DUP7 GAS STATICCALL ISZERO DUP1 ISZERO PUSH2 0x9C6 JUMPI RETURNDATASIZE PUSH1 0x0 DUP1 RETURNDATACOPY RETURNDATASIZE PUSH1 0x0 REVERT JUMPDEST POP POP POP POP PUSH1 0x40 MLOAD RETURNDATASIZE PUSH1 0x1F NOT PUSH1 0x1F DUP3 ADD AND DUP3 ADD DUP1 PUSH1 0x40 MSTORE POP DUP2 ADD SWAP1 PUSH2 0x9EA SWAP2 SWAP1 PUSH2 0x12D3 JUMP JUMPDEST SWAP1 POP DUP2 DUP2 LT ISZERO PUSH2 0xA0D JUMPI PUSH1 0x40 MLOAD PUSH4 0x3836E6D PUSH1 0xE6 SHL DUP2 MSTORE PUSH1 0x4 ADD PUSH1 0x40 MLOAD DUP1 SWAP2 SUB SWAP1 REVERT JUMPDEST PUSH1 0x0 PUSH2 0xA19 DUP4 DUP4 PUSH2 0x1302 JUMP JUMPDEST CALLER PUSH1 0x0 SWAP1 DUP2 MSTORE PUSH1 0x1 PUSH1 0x20 MSTORE PUSH1 0x40 DUP2 KECCAK256 DUP1 SLOAD SWAP3 SWAP4 POP DUP4 SWAP3 SWAP1 SWAP2 SWAP1 PUSH2 0xA3D SWAP1 DUP5 SWAP1 PUSH2 0x1315 JUMP JUMPDEST SWAP1 SWAP2 SSTORE POP POP PUSH1 0x40 MLOAD DUP6 SWAP1 CALLER SWAP1 PUSH32 0xFD5EA28D6087C1605F89DD44EBC3CD2C852BD16C5F1F713218F5618D76111437 SWAP1 PUSH1 0x0 SWAP1 LOG3 POP POP POP POP SWAP5 SWAP4 POP POP POP POP JUMP JUMPDEST PUSH1 0x0 DUP3 DUP2 MSTORE PUSH1 0x20 DUP2 SWAP1 MSTORE PUSH1 0x40 SWAP1 KECCAK256 PUSH1 0x1 ADD SLOAD PUSH2 0xA96 DUP2 PUSH2 0xB60 JUMP JUMPDEST PUSH2 0x4CB DUP4 DUP4 PUSH2 0xBF1 JUMP JUMPDEST DUP1 PUSH1 0x1 PUSH1 0x1 PUSH1 0xA0 SHL SUB DUP2 AND PUSH2 0xAC8 JUMPI PUSH1 0x40 MLOAD PUSH4 0xE4644511 PUSH1 0xE0 SHL DUP2 MSTORE PUSH1 0x4 ADD PUSH1 0x40 MLOAD DUP1 SWAP2 SUB SWAP1 REVERT JUMPDEST PUSH2 0xAF2 PUSH32 0x4341D0255CF8DE0FA9A36829221C28FE13C7D7B36DE3957B92D9DD74A1E6FC36 CALLER PUSH2 0x663 JUMP JUMPDEST PUSH2 0xB0F JUMPI PUSH1 0x40 MLOAD PUSH4 0x1855BB5B PUSH1 0xE0 SHL DUP2 MSTORE PUSH1 0x4 ADD PUSH1 0x40 MLOAD DUP1 SWAP2 SUB SWAP1 REVERT JUMPDEST PUSH1 0x1 PUSH1 0x1 PUSH1 0xA0 SHL SUB DUP3 AND PUSH1 0x0 DUP2 DUP2 MSTORE PUSH1 0x2 PUSH1 0x20 SWAP1 DUP2 MSTORE PUSH1 0x40 SWAP2 DUP3 SWAP1 KECCAK256 DUP1 SLOAD PUSH1 0xFF NOT AND SWAP1 SSTORE SWAP1 MLOAD SWAP2 DUP3 MSTORE PUSH32 0x88E26BC6BEF7637BFD9B65BE229BFDEC9813454AD0BEE72203006A540DADFD54 SWAP2 ADD PUSH2 0x657 JUMP JUMPDEST PUSH2 0xB6A DUP2 CALLER PUSH2 0xDBE JUMP JUMPDEST POP JUMP JUMPDEST PUSH2 0xB77 DUP3 DUP3 PUSH2 0x663 JUMP JUMPDEST PUSH2 0x54F JUMPI PUSH1 0x0 DUP3 DUP2 MSTORE PUSH1 0x20 DUP2 DUP2 MSTORE PUSH1 0x40 DUP1 DUP4 KECCAK256 PUSH1 0x1 PUSH1 0x1 PUSH1 0xA0 SHL SUB DUP6 AND DUP5 MSTORE SWAP1 SWAP2 MSTORE SWAP1 KECCAK256 DUP1 SLOAD PUSH1 0xFF NOT AND PUSH1 0x1 OR SWAP1 SSTORE PUSH2 0xBAD CALLER SWAP1 JUMP JUMPDEST PUSH1 0x1 PUSH1 0x1 PUSH1 0xA0 SHL SUB AND DUP2 PUSH1 0x1 PUSH1 0x1 PUSH1 0xA0 SHL SUB AND DUP4 PUSH32 0x2F8788117E7EFF1D82E926EC794901D17C78024A50270940304540A733656F0D PUSH1 0x40 MLOAD PUSH1 0x40 MLOAD DUP1 SWAP2 SUB SWAP1 LOG4 POP POP JUMP JUMPDEST PUSH2 0xBFB DUP3 DUP3 PUSH2 0x663 JUMP JUMPDEST ISZERO PUSH2 0x54F JUMPI PUSH1 0x0 DUP3 DUP2 MSTORE PUSH1 0x20 DUP2 DUP2 MSTORE PUSH1 0x40 DUP1 DUP4 KECCAK256 PUSH1 0x1 PUSH1 0x1 PUSH1 0xA0 SHL SUB DUP6 AND DUP1 DUP6 MSTORE SWAP3 MSTORE DUP1 DUP4 KECCAK256 DUP1 SLOAD PUSH1 0xFF NOT AND SWAP1 SSTORE MLOAD CALLER SWAP3 DUP6 SWAP2 PUSH32 0xF6391F5C32D9C69D2A47EA670B442974B53935D1EDC7FD64EB21E047A839171B SWAP2 SWAP1 LOG4 POP POP JUMP JUMPDEST PUSH1 0x0 PUSH2 0xC64 DUP3 CALLER ADDRESS DUP7 PUSH2 0xE17 JUMP JUMPDEST PUSH2 0xC8F DUP3 PUSH32 0x0 DUP6 PUSH2 0xF21 JUMP JUMPDEST PUSH1 0x40 DUP1 MLOAD PUSH2 0x100 DUP2 ADD DUP3 MSTORE PUSH1 0x1 PUSH1 0x1 PUSH1 0xA0 SHL SUB DUP5 DUP2 AND DUP3 MSTORE PUSH20 0xB4FBF271143F4FBF7B91A5DED31805E42B2208D6 PUSH1 0x20 DUP4 ADD SWAP1 DUP2 MSTORE PUSH2 0xBB8 DUP4 DUP6 ADD SWAP1 DUP2 MSTORE ADDRESS PUSH1 0x60 DUP6 ADD SWAP1 DUP2 MSTORE TIMESTAMP PUSH1 0x80 DUP7 ADD SWAP1 DUP2 MSTORE PUSH1 0xA0 DUP7 ADD DUP11 DUP2 MSTORE PUSH1 0x0 PUSH1 0xC0 DUP9 ADD DUP2 DUP2 MSTORE PUSH1 0xE0 DUP10 ADD SWAP2 DUP3 MSTORE SWAP9 MLOAD PUSH4 0x414BF389 PUSH1 0xE0 SHL DUP2 MSTORE DUP9 MLOAD DUP9 AND PUSH1 0x4 DUP3 ADD MSTORE SWAP6 MLOAD DUP8 AND PUSH1 0x24 DUP8 ADD MSTORE SWAP4 MLOAD PUSH3 0xFFFFFF AND PUSH1 0x44 DUP7 ADD MSTORE SWAP2 MLOAD DUP6 AND PUSH1 0x64 DUP6 ADD MSTORE MLOAD PUSH1 0x84 DUP5 ADD MSTORE MLOAD PUSH1 0xA4 DUP4 ADD MSTORE SWAP4 MLOAD PUSH1 0xC4 DUP3 ADD MSTORE SWAP3 MLOAD DUP2 AND PUSH1 0xE4 DUP5 ADD MSTORE SWAP1 SWAP2 PUSH32 0x0 SWAP1 SWAP2 AND SWAP1 PUSH4 0x414BF389 SWAP1 PUSH2 0x104 ADD PUSH1 0x20 PUSH1 0x40 MLOAD DUP1 DUP4 SUB DUP2 PUSH1 0x0 DUP8 GAS CALL ISZERO DUP1 ISZERO PUSH2 0xD92 JUMPI RETURNDATASIZE PUSH1 0x0 DUP1 RETURNDATACOPY RETURNDATASIZE PUSH1 0x0 REVERT JUMPDEST POP POP POP POP PUSH1 0x40 MLOAD RETURNDATASIZE PUSH1 0x1F NOT PUSH1 0x1F DUP3 ADD AND DUP3 ADD DUP1 PUSH1 0x40 MSTORE POP DUP2 ADD SWAP1 PUSH2 0xDB6 SWAP2 SWAP1 PUSH2 0x12D3 JUMP JUMPDEST SWAP5 SWAP4 POP POP POP POP JUMP JUMPDEST PUSH2 0xDC8 DUP3 DUP3 PUSH2 0x663 JUMP JUMPDEST PUSH2 0x54F JUMPI PUSH2 0xDD5 DUP2 PUSH2 0x1021 JUMP JUMPDEST PUSH2 0xDE0 DUP4 PUSH1 0x20 PUSH2 0x1033 JUMP JUMPDEST PUSH1 0x40 MLOAD PUSH1 0x20 ADD PUSH2 0xDF1 SWAP3 SWAP2 SWAP1 PUSH2 0x134C JUMP JUMPDEST PUSH1 0x40 DUP1 MLOAD PUSH1 0x1F NOT DUP2 DUP5 SUB ADD DUP2 MSTORE SWAP1 DUP3 SWAP1 MSTORE PUSH3 0x461BCD PUSH1 0xE5 SHL DUP3 MSTORE PUSH2 0x53C SWAP2 PUSH1 0x4 ADD PUSH2 0x13C1 JUMP JUMPDEST PUSH1 0x40 DUP1 MLOAD PUSH1 0x1 PUSH1 0x1 PUSH1 0xA0 SHL SUB DUP6 DUP2 AND PUSH1 0x24 DUP4 ADD MSTORE DUP5 DUP2 AND PUSH1 0x44 DUP4 ADD MSTORE PUSH1 0x64 DUP1 DUP4 ADD DUP6 SWAP1 MSTORE DUP4 MLOAD DUP1 DUP5 SUB SWAP1 SWAP2 ADD DUP2 MSTORE PUSH1 0x84 SWAP1 SWAP3 ADD DUP4 MSTORE PUSH1 0x20 DUP3 ADD DUP1 MLOAD PUSH1 0x1 PUSH1 0x1 PUSH1 0xE0 SHL SUB AND PUSH4 0x23B872DD PUSH1 0xE0 SHL OR SWAP1 MSTORE SWAP2 MLOAD PUSH1 0x0 SWAP3 DUP4 SWAP3 SWAP1 DUP9 AND SWAP2 PUSH2 0xE7B SWAP2 SWAP1 PUSH2 0x13F4 JUMP JUMPDEST PUSH1 0x0 PUSH1 0x40 MLOAD DUP1 DUP4 SUB DUP2 PUSH1 0x0 DUP7 GAS CALL SWAP2 POP POP RETURNDATASIZE DUP1 PUSH1 0x0 DUP2 EQ PUSH2 0xEB8 JUMPI PUSH1 0x40 MLOAD SWAP2 POP PUSH1 0x1F NOT PUSH1 0x3F RETURNDATASIZE ADD AND DUP3 ADD PUSH1 0x40 MSTORE RETURNDATASIZE DUP3 MSTORE RETURNDATASIZE PUSH1 0x0 PUSH1 0x20 DUP5 ADD RETURNDATACOPY PUSH2 0xEBD JUMP JUMPDEST PUSH1 0x60 SWAP2 POP JUMPDEST POP SWAP2 POP SWAP2 POP DUP2 DUP1 ISZERO PUSH2 0xEE7 JUMPI POP DUP1 MLOAD ISZERO DUP1 PUSH2 0xEE7 JUMPI POP DUP1 DUP1 PUSH1 0x20 ADD SWAP1 MLOAD DUP2 ADD SWAP1 PUSH2 0xEE7 SWAP2 SWAP1 PUSH2 0x1410 JUMP JUMPDEST PUSH2 0xF19 JUMPI PUSH1 0x40 MLOAD PUSH3 0x461BCD PUSH1 0xE5 SHL DUP2 MSTORE PUSH1 0x20 PUSH1 0x4 DUP3 ADD MSTORE PUSH1 0x3 PUSH1 0x24 DUP3 ADD MSTORE PUSH3 0x29AA23 PUSH1 0xE9 SHL PUSH1 0x44 DUP3 ADD MSTORE PUSH1 0x64 ADD PUSH2 0x53C JUMP JUMPDEST POP POP POP POP POP POP JUMP JUMPDEST PUSH1 0x40 DUP1 MLOAD PUSH1 0x1 PUSH1 0x1 PUSH1 0xA0 SHL SUB DUP5 DUP2 AND PUSH1 0x24 DUP4 ADD MSTORE PUSH1 0x44 DUP1 DUP4 ADD DUP6 SWAP1 MSTORE DUP4 MLOAD DUP1 DUP5 SUB SWAP1 SWAP2 ADD DUP2 MSTORE PUSH1 0x64 SWAP1 SWAP3 ADD DUP4 MSTORE PUSH1 0x20 DUP3 ADD DUP1 MLOAD PUSH1 0x1 PUSH1 0x1 PUSH1 0xE0 SHL SUB AND PUSH4 0x95EA7B3 PUSH1 0xE0 SHL OR SWAP1 MSTORE SWAP2 MLOAD PUSH1 0x0 SWAP3 DUP4 SWAP3 SWAP1 DUP8 AND SWAP2 PUSH2 0xF7D SWAP2 SWAP1 PUSH2 0x13F4 JUMP JUMPDEST PUSH1 0x0 PUSH1 0x40 MLOAD DUP1 DUP4 SUB DUP2 PUSH1 0x0 DUP7 GAS CALL SWAP2 POP POP RETURNDATASIZE DUP1 PUSH1 0x0 DUP2 EQ PUSH2 0xFBA JUMPI PUSH1 0x40 MLOAD SWAP2 POP PUSH1 0x1F NOT PUSH1 0x3F RETURNDATASIZE ADD AND DUP3 ADD PUSH1 0x40 MSTORE RETURNDATASIZE DUP3 MSTORE RETURNDATASIZE PUSH1 0x0 PUSH1 0x20 DUP5 ADD RETURNDATACOPY PUSH2 0xFBF JUMP JUMPDEST PUSH1 0x60 SWAP2 POP JUMPDEST POP SWAP2 POP SWAP2 POP DUP2 DUP1 ISZERO PUSH2 0xFE9 JUMPI POP DUP1 MLOAD ISZERO DUP1 PUSH2 0xFE9 JUMPI POP DUP1 DUP1 PUSH1 0x20 ADD SWAP1 MLOAD DUP2 ADD SWAP1 PUSH2 0xFE9 SWAP2 SWAP1 PUSH2 0x1410 JUMP JUMPDEST PUSH2 0x101A JUMPI PUSH1 0x40 MLOAD PUSH3 0x461BCD PUSH1 0xE5 SHL DUP2 MSTORE PUSH1 0x20 PUSH1 0x4 DUP3 ADD MSTORE PUSH1 0x2 PUSH1 0x24 DUP3 ADD MSTORE PUSH2 0x5341 PUSH1 0xF0 SHL PUSH1 0x44 DUP3 ADD MSTORE PUSH1 0x64 ADD PUSH2 0x53C JUMP JUMPDEST POP POP POP POP POP JUMP JUMPDEST PUSH1 0x60 PUSH2 0x4A0 PUSH1 0x1 PUSH1 0x1 PUSH1 0xA0 SHL SUB DUP4 AND PUSH1 0x14 JUMPDEST PUSH1 0x60 PUSH1 0x0 PUSH2 0x1042 DUP4 PUSH1 0x2 PUSH2 0x1432 JUMP JUMPDEST PUSH2 0x104D SWAP1 PUSH1 0x2 PUSH2 0x1315 JUMP JUMPDEST PUSH8 0xFFFFFFFFFFFFFFFF DUP2 GT ISZERO PUSH2 0x1065 JUMPI PUSH2 0x1065 PUSH2 0x1449 JUMP JUMPDEST PUSH1 0x40 MLOAD SWAP1 DUP1 DUP3 MSTORE DUP1 PUSH1 0x1F ADD PUSH1 0x1F NOT AND PUSH1 0x20 ADD DUP3 ADD PUSH1 0x40 MSTORE DUP1 ISZERO PUSH2 0x108F JUMPI PUSH1 0x20 DUP3 ADD DUP2 DUP1 CALLDATASIZE DUP4 CALLDATACOPY ADD SWAP1 POP JUMPDEST POP SWAP1 POP PUSH1 0x3 PUSH1 0xFC SHL DUP2 PUSH1 0x0 DUP2 MLOAD DUP2 LT PUSH2 0x10AA JUMPI PUSH2 0x10AA PUSH2 0x145F JUMP JUMPDEST PUSH1 0x20 ADD ADD SWAP1 PUSH1 0x1 PUSH1 0x1 PUSH1 0xF8 SHL SUB NOT AND SWAP1 DUP2 PUSH1 0x0 BYTE SWAP1 MSTORE8 POP PUSH1 0xF PUSH1 0xFB SHL DUP2 PUSH1 0x1 DUP2 MLOAD DUP2 LT PUSH2 0x10D9 JUMPI PUSH2 0x10D9 PUSH2 0x145F JUMP JUMPDEST PUSH1 0x20 ADD ADD SWAP1 PUSH1 0x1 PUSH1 0x1 PUSH1 0xF8 SHL SUB NOT AND SWAP1 DUP2 PUSH1 0x0 BYTE SWAP1 MSTORE8 POP PUSH1 0x0 PUSH2 0x10FD DUP5 PUSH1 0x2 PUSH2 0x1432 JUMP JUMPDEST PUSH2 0x1108 SWAP1 PUSH1 0x1 PUSH2 0x1315 JUMP JUMPDEST SWAP1 POP JUMPDEST PUSH1 0x1 DUP2 GT ISZERO PUSH2 0x1180 JUMPI PUSH16 0x181899199A1A9B1B9C1CB0B131B232B3 PUSH1 0x81 SHL DUP6 PUSH1 0xF AND PUSH1 0x10 DUP2 LT PUSH2 0x113C JUMPI PUSH2 0x113C PUSH2 0x145F JUMP JUMPDEST BYTE PUSH1 0xF8 SHL DUP3 DUP3 DUP2 MLOAD DUP2 LT PUSH2 0x1152 JUMPI PUSH2 0x1152 PUSH2 0x145F JUMP JUMPDEST PUSH1 0x20 ADD ADD SWAP1 PUSH1 0x1 PUSH1 0x1 PUSH1 0xF8 SHL SUB NOT AND SWAP1 DUP2 PUSH1 0x0 BYTE SWAP1 MSTORE8 POP PUSH1 0x4 SWAP5 SWAP1 SWAP5 SHR SWAP4 PUSH2 0x1179 DUP2 PUSH2 0x1475 JUMP JUMPDEST SWAP1 POP PUSH2 0x110B JUMP JUMPDEST POP DUP4 ISZERO PUSH2 0x11CF JUMPI PUSH1 0x40 MLOAD PUSH3 0x461BCD PUSH1 0xE5 SHL DUP2 MSTORE PUSH1 0x20 PUSH1 0x4 DUP3 ADD DUP2 SWAP1 MSTORE PUSH1 0x24 DUP3 ADD MSTORE PUSH32 0x537472696E67733A20686578206C656E67746820696E73756666696369656E74 PUSH1 0x44 DUP3 ADD MSTORE PUSH1 0x64 ADD PUSH2 0x53C JUMP JUMPDEST SWAP4 SWAP3 POP POP POP JUMP JUMPDEST PUSH1 0x0 PUSH1 0x20 DUP3 DUP5 SUB SLT ISZERO PUSH2 0x11E8 JUMPI PUSH1 0x0 DUP1 REVERT JUMPDEST DUP2 CALLDATALOAD PUSH1 0x1 PUSH1 0x1 PUSH1 0xE0 SHL SUB NOT DUP2 AND DUP2 EQ PUSH2 0x11CF JUMPI PUSH1 0x0 DUP1 REVERT JUMPDEST PUSH1 0x0 PUSH1 0x20 DUP3 DUP5 SUB SLT ISZERO PUSH2 0x1212 JUMPI PUSH1 0x0 DUP1 REVERT JUMPDEST POP CALLDATALOAD SWAP2 SWAP1 POP JUMP JUMPDEST PUSH1 0x1 PUSH1 0x1 PUSH1 0xA0 SHL SUB DUP2 AND DUP2 EQ PUSH2 0xB6A JUMPI PUSH1 0x0 DUP1 REVERT JUMPDEST PUSH1 0x0 PUSH1 0x20 DUP3 DUP5 SUB SLT ISZERO PUSH2 0x1240 JUMPI PUSH1 0x0 DUP1 REVERT JUMPDEST DUP2 CALLDATALOAD PUSH2 0x11CF DUP2 PUSH2 0x1219 JUMP JUMPDEST PUSH1 0x0 DUP1 PUSH1 0x40 DUP4 DUP6 SUB SLT ISZERO PUSH2 0x125E JUMPI PUSH1 0x0 DUP1 REVERT JUMPDEST DUP3 CALLDATALOAD SWAP2 POP PUSH1 0x20 DUP4 ADD CALLDATALOAD PUSH2 0x1270 DUP2 PUSH2 0x1219 JUMP JUMPDEST DUP1 SWAP2 POP POP SWAP3 POP SWAP3 SWAP1 POP JUMP JUMPDEST PUSH1 0x0 DUP1 PUSH1 0x0 DUP1 PUSH1 0x80 DUP6 DUP8 SUB SLT ISZERO PUSH2 0x1291 JUMPI PUSH1 0x0 DUP1 REVERT JUMPDEST DUP5 CALLDATALOAD PUSH2 0x129C DUP2 PUSH2 0x1219 JUMP JUMPDEST SWAP7 PUSH1 0x20 DUP7 ADD CALLDATALOAD SWAP7 POP PUSH1 0x40 DUP7 ADD CALLDATALOAD SWAP6 PUSH1 0x60 ADD CALLDATALOAD SWAP5 POP SWAP3 POP POP POP JUMP JUMPDEST PUSH1 0x0 PUSH1 0x20 DUP3 DUP5 SUB SLT ISZERO PUSH2 0x12C8 JUMPI PUSH1 0x0 DUP1 REVERT JUMPDEST DUP2 MLOAD PUSH2 0x11CF DUP2 PUSH2 0x1219 JUMP JUMPDEST PUSH1 0x0 PUSH1 0x20 DUP3 DUP5 SUB SLT ISZERO PUSH2 0x12E5 JUMPI PUSH1 0x0 DUP1 REVERT JUMPDEST POP MLOAD SWAP2 SWAP1 POP JUMP JUMPDEST PUSH4 0x4E487B71 PUSH1 0xE0 SHL PUSH1 0x0 MSTORE PUSH1 0x11 PUSH1 0x4 MSTORE PUSH1 0x24 PUSH1 0x0 REVERT JUMPDEST DUP2 DUP2 SUB DUP2 DUP2 GT ISZERO PUSH2 0x4A0 JUMPI PUSH2 0x4A0 PUSH2 0x12EC JUMP JUMPDEST DUP1 DUP3 ADD DUP1 DUP3 GT ISZERO PUSH2 0x4A0 JUMPI PUSH2 0x4A0 PUSH2 0x12EC JUMP JUMPDEST PUSH1 0x0 JUMPDEST DUP4 DUP2 LT ISZERO PUSH2 0x1343 JUMPI DUP2 DUP2 ADD MLOAD DUP4 DUP3 ADD MSTORE PUSH1 0x20 ADD PUSH2 0x132B JUMP JUMPDEST POP POP PUSH1 0x0 SWAP2 ADD MSTORE JUMP JUMPDEST PUSH32 0x416363657373436F6E74726F6C3A206163636F756E7420000000000000000000 DUP2 MSTORE PUSH1 0x0 DUP4 MLOAD PUSH2 0x1384 DUP2 PUSH1 0x17 DUP6 ADD PUSH1 0x20 DUP9 ADD PUSH2 0x1328 JUMP JUMPDEST PUSH17 0x1034B99036B4B9B9B4B733903937B6329 PUSH1 0x7D SHL PUSH1 0x17 SWAP2 DUP5 ADD SWAP2 DUP3 ADD MSTORE DUP4 MLOAD PUSH2 0x13B5 DUP2 PUSH1 0x28 DUP5 ADD PUSH1 0x20 DUP9 ADD PUSH2 0x1328 JUMP JUMPDEST ADD PUSH1 0x28 ADD SWAP5 SWAP4 POP POP POP POP JUMP JUMPDEST PUSH1 0x20 DUP2 MSTORE PUSH1 0x0 DUP3 MLOAD DUP1 PUSH1 0x20 DUP5 ADD MSTORE PUSH2 0x13E0 DUP2 PUSH1 0x40 DUP6 ADD PUSH1 0x20 DUP8 ADD PUSH2 0x1328 JUMP JUMPDEST PUSH1 0x1F ADD PUSH1 0x1F NOT AND SWAP2 SWAP1 SWAP2 ADD PUSH1 0x40 ADD SWAP3 SWAP2 POP POP JUMP JUMPDEST PUSH1 0x0 DUP3 MLOAD PUSH2 0x1406 DUP2 DUP5 PUSH1 0x20 DUP8 ADD PUSH2 0x1328 JUMP JUMPDEST SWAP2 SWAP1 SWAP2 ADD SWAP3 SWAP2 POP POP JUMP JUMPDEST PUSH1 0x0 PUSH1 0x20 DUP3 DUP5 SUB SLT ISZERO PUSH2 0x1422 JUMPI PUSH1 0x0 DUP1 REVERT JUMPDEST DUP2 MLOAD DUP1 ISZERO ISZERO DUP2 EQ PUSH2 0x11CF JUMPI PUSH1 0x0 DUP1 REVERT JUMPDEST DUP1 DUP3 MUL DUP2 ISZERO DUP3 DUP3 DIV DUP5 EQ OR PUSH2 0x4A0 JUMPI PUSH2 0x4A0 PUSH2 0x12EC JUMP JUMPDEST PUSH4 0x4E487B71 PUSH1 0xE0 SHL PUSH1 0x0 MSTORE PUSH1 0x41 PUSH1 0x4 MSTORE PUSH1 0x24 PUSH1 0x0 REVERT JUMPDEST PUSH4 0x4E487B71 PUSH1 0xE0 SHL PUSH1 0x0 MSTORE PUSH1 0x32 PUSH1 0x4 MSTORE PUSH1 0x24 PUSH1 0x0 REVERT JUMPDEST PUSH1 0x0 DUP2 PUSH2 0x1484 JUMPI PUSH2 0x1484 PUSH2 0x12EC JUMP JUMPDEST POP PUSH1 0x0 NOT ADD SWAP1 JUMP INVALID LOG2 PUSH5 0x6970667358 0x22 SLT KECCAK256 CODECOPY CALLVALUE 0xCB 0xD3 EXTCODEHASH 0xB1 0xC2 0xE1 BASEFEE 0xE5 CALLDATALOAD SWAP14 0xEF DUP3 PUSH14 0xFDB7245B4038D1B97B39F9275FA6 SLT PUSH4 0xAE64736F PUSH13 0x63430008110033000000000000 "},"methodIdentifiers":{"ADDER_STABLECOIN_ROLE()":"6f38efd8","DEFAULT_ADMIN_ROLE()":"a217fddf","POOL_FEE()":"dd1b9c4a","RETH()":"8265b121","ROCKET_POOL_DEPOSIT()":"15ae1dc2","WETH()":"ad5c4648","addNewStablecoinAddress(address)":"64b72507","availableStablecoins(address)":"87479a9b","balances(address)":"27e235e3","depositRPAndSendNFTLand(address,uint256,uint256,uint256)":"94636cf0","earthverseMarketplace()":"fa0d0603","getRoleAdmin(bytes32)":"248a9ca3","grantRole(bytes32,address)":"2f2ff15d","hasRole(bytes32,address)":"91d14854","nftd()":"85b82998","removeStablecoinAddress(address)":"fa19dc07","renounceRole(bytes32,address)":"36568abe","revokeRole(bytes32,address)":"d547741f","supportsInterface(bytes4)":"01ffc9a7","swapRouter()":"c31c9c07"}}}}}