{
  "_format": "hh-sol-artifact-1",
  "contractName": "EarthverseMarketplace",
  "sourceName": "contracts/EarthverseMarketplace.sol",
  "abi": [
    {
      "inputs": [
        {
          "internalType": "address",
          "name": "sender",
          "type": "address"
        }
      ],
      "name": "AccessContract_NotHaveAccess",
      "type": "error"
    },
    {
      "inputs": [],
      "name": "AccessContract_ZeroAddress",
      "type": "error"
    },
    {
      "inputs": [
        {
          "internalType": "uint256",
          "name": "tokenId",
          "type": "uint256"
        }
      ],
      "name": "EarthverseMarketplace_AlreadyListed",
      "type": "error"
    },
    {
      "inputs": [
        {
          "internalType": "uint256",
          "name": "itemId",
          "type": "uint256"
        }
      ],
      "name": "EarthverseMarketplace_ItemDoesntExit",
      "type": "error"
    },
    {
      "inputs": [],
      "name": "EarthverseMarketplace_NotOwner",
      "type": "error"
    },
    {
      "inputs": [
        {
          "internalType": "uint256",
          "name": "itemId",
          "type": "uint256"
        },
        {
          "internalType": "uint256",
          "name": "price",
          "type": "uint256"
        }
      ],
      "name": "EarthverseMarketplace_PriceDoNotMet",
      "type": "error"
    },
    {
      "inputs": [],
      "name": "EarthverseMarketplace_PriceMustBeAboveZero",
      "type": "error"
    },
    {
      "inputs": [],
      "name": "EarthverseMarketplace_SellerCannotBeBuyer",
      "type": "error"
    },
    {
      "inputs": [],
      "name": "EarthverseMarketplace_ZeroAddress",
      "type": "error"
    },
    {
      "inputs": [],
      "name": "Ownable_CallerIsNotPendingOwner",
      "type": "error"
    },
    {
      "inputs": [],
      "name": "Ownable_CallerIsNotTheOwner",
      "type": "error"
    },
    {
      "inputs": [],
      "name": "Ownable_NewOwnerMustBeADifferentAddressThanTheCurrentOwner",
      "type": "error"
    },
    {
      "anonymous": false,
      "inputs": [
        {
          "indexed": false,
          "internalType": "address",
          "name": "oldAddress",
          "type": "address"
        },
        {
          "indexed": false,
          "internalType": "address",
          "name": "newAddress",
          "type": "address"
        }
      ],
      "name": "EarthverseDepositAddressChanged",
      "type": "event"
    },
    {
      "anonymous": false,
      "inputs": [
        {
          "indexed": false,
          "internalType": "uint256",
          "name": "itemId",
          "type": "uint256"
        },
        {
          "indexed": false,
          "internalType": "uint256",
          "name": "price",
          "type": "uint256"
        },
        {
          "indexed": true,
          "internalType": "uint256",
          "name": "tokenId",
          "type": "uint256"
        },
        {
          "indexed": true,
          "internalType": "address",
          "name": "seller",
          "type": "address"
        },
        {
          "indexed": true,
          "internalType": "address",
          "name": "buyer",
          "type": "address"
        }
      ],
      "name": "NFTLandBought",
      "type": "event"
    },
    {
      "anonymous": false,
      "inputs": [
        {
          "indexed": false,
          "internalType": "uint256",
          "name": "itemId",
          "type": "uint256"
        },
        {
          "indexed": true,
          "internalType": "uint256",
          "name": "tokenId",
          "type": "uint256"
        },
        {
          "indexed": true,
          "internalType": "uint256",
          "name": "price",
          "type": "uint256"
        },
        {
          "indexed": true,
          "internalType": "address",
          "name": "seller",
          "type": "address"
        }
      ],
      "name": "NFTLandListed",
      "type": "event"
    },
    {
      "anonymous": false,
      "inputs": [
        {
          "indexed": true,
          "internalType": "address",
          "name": "previousOwner",
          "type": "address"
        },
        {
          "indexed": true,
          "internalType": "address",
          "name": "newOwner",
          "type": "address"
        }
      ],
      "name": "OwnershipTransferred",
      "type": "event"
    },
    {
      "inputs": [
        {
          "internalType": "address",
          "name": "buyer",
          "type": "address"
        },
        {
          "internalType": "uint256",
          "name": "itemId",
          "type": "uint256"
        },
        {
          "internalType": "uint256",
          "name": "price",
          "type": "uint256"
        },
        {
          "internalType": "uint256",
          "name": "decimalsOfInput",
          "type": "uint256"
        }
      ],
      "name": "buyNFTLand",
      "outputs": [
        {
          "internalType": "address",
          "name": "",
          "type": "address"
        }
      ],
      "stateMutability": "nonpayable",
      "type": "function"
    },
    {
      "inputs": [],
      "name": "claimOwnership",
      "outputs": [],
      "stateMutability": "nonpayable",
      "type": "function"
    },
    {
      "inputs": [],
      "name": "earthverseDepositAddress",
      "outputs": [
        {
          "internalType": "address",
          "name": "",
          "type": "address"
        }
      ],
      "stateMutability": "view",
      "type": "function"
    },
    {
      "inputs": [],
      "name": "itemCount",
      "outputs": [
        {
          "internalType": "uint256",
          "name": "",
          "type": "uint256"
        }
      ],
      "stateMutability": "view",
      "type": "function"
    },
    {
      "inputs": [
        {
          "internalType": "contract IERC721",
          "name": "nftLand",
          "type": "address"
        },
        {
          "internalType": "uint256",
          "name": "tokenId",
          "type": "uint256"
        },
        {
          "internalType": "uint256",
          "name": "price",
          "type": "uint256"
        }
      ],
      "name": "listNFTLand",
      "outputs": [],
      "stateMutability": "nonpayable",
      "type": "function"
    },
    {
      "inputs": [
        {
          "internalType": "uint256",
          "name": "",
          "type": "uint256"
        }
      ],
      "name": "listing",
      "outputs": [
        {
          "internalType": "uint256",
          "name": "id",
          "type": "uint256"
        },
        {
          "internalType": "contract IERC721",
          "name": "nftLand",
          "type": "address"
        },
        {
          "internalType": "uint256",
          "name": "tokenId",
          "type": "uint256"
        },
        {
          "internalType": "uint256",
          "name": "price",
          "type": "uint256"
        },
        {
          "internalType": "address",
          "name": "seller",
          "type": "address"
        }
      ],
      "stateMutability": "view",
      "type": "function"
    },
    {
      "inputs": [],
      "name": "owner",
      "outputs": [
        {
          "internalType": "address",
          "name": "",
          "type": "address"
        }
      ],
      "stateMutability": "view",
      "type": "function"
    },
    {
      "inputs": [],
      "name": "pendingOwner",
      "outputs": [
        {
          "internalType": "address",
          "name": "",
          "type": "address"
        }
      ],
      "stateMutability": "view",
      "type": "function"
    },
    {
      "inputs": [
        {
          "internalType": "bool",
          "name": "isRenounce",
          "type": "bool"
        }
      ],
      "name": "renounceOwnership",
      "outputs": [],
      "stateMutability": "nonpayable",
      "type": "function"
    },
    {
      "inputs": [
        {
          "internalType": "address",
          "name": "_earthverseDepositAddress",
          "type": "address"
        }
      ],
      "name": "setNewEarthverseDepositAddress",
      "outputs": [],
      "stateMutability": "nonpayable",
      "type": "function"
    },
    {
      "inputs": [
        {
          "internalType": "address",
          "name": "newOwner",
          "type": "address"
        },
        {
          "internalType": "bool",
          "name": "direct",
          "type": "bool"
        }
      ],
      "name": "transferOwnership",
      "outputs": [],
      "stateMutability": "nonpayable",
      "type": "function"
    }
  ],
  "bytecode": "0x608060405234801561001057600080fd5b50600160005561001f33610024565b610070565b600180546001600160a01b0319166001600160a01b03831690811790915560405181907f8be0079c531659141344cd1fd0a4f28419497f9722a3daafe3b4186f6b6457e090600090a350565b610bcd8061007f6000396000f3fe608060405234801561001057600080fd5b50600436106100a95760003560e01c80638da5cb5b116100715780638da5cb5b1461017357806395a0209e146101985780639bb5c02b146101ab578063a3fcc92c146101be578063b242e534146101d1578063e30c3978146101e457600080fd5b80631fe24688146100ae5780634e71e0c8146100c35780636bfb0d01146100cb5780637e926b4b146100e757806384a184de146100fa575b600080fd5b6100c16100bc366004610930565b6101f7565b005b6100c16102c1565b6100d460045481565b6040519081526020015b60405180910390f35b6100c16100f5366004610969565b610313565b610143610108366004610984565b6005602052600090815260409020805460018201546002830154600384015460049094015492936001600160a01b0392831693919290911685565b604080519586526001600160a01b039485166020870152850192909252606084015216608082015260a0016100de565b6001546001600160a01b03165b6040516001600160a01b0390911681526020016100de565b6101806101a636600461099d565b610360565b6100c16101b93660046109d8565b610507565b600354610180906001600160a01b031681565b6100c16101df366004610a0d565b6107a2565b600254610180906001600160a01b031681565b3361020a6001546001600160a01b031690565b6001600160a01b0316146102315760405163a5653ae560e01b815260040160405180910390fd5b6001600160a01b038116610258576040516393a6823560e01b815260040160405180910390fd5b600354604080516001600160a01b03928316815291831660208301527f7ad173db0e26925c326a5ed86f309f4baef4bb36d8ee194d432e6cf0551cef24910160405180910390a1600380546001600160a01b0319166001600160a01b0392909216919091179055565b6002546001600160a01b031633146102ec57604051636afa1bbf60e11b815260040160405180910390fd5b600254610301906001600160a01b0316610876565b600280546001600160a01b0319169055565b336103266001546001600160a01b031690565b6001600160a01b03161461034d5760405163a5653ae560e01b815260040160405180910390fd5b801561035d5761035d6000610876565b50565b6000846001600160a01b03811661038a576040516370ca6bf760e01b815260040160405180910390fd5b6003546001600160a01b031633146103bc57604051631fbe422f60e21b81523360048201526024015b60405180910390fd5b6103c46108c2565b8415806103d2575060045485115b156103f357604051635527ebbb60e11b8152600481018690526024016103b3565b600085815260056020526040902061040c84600a610b3e565b816003015461041b9190610b4a565b85101561044b5760038101546040516301d3114d60e61b81526103b3918891600401918252602082015260400190565b60048101546001600160a01b039081169088160361047c5760405163dfe7052360e01b815260040160405180910390fd5b6004810180546001600160a01b038981166001600160a01b0319831681179093556002840154600385015460405192909316939284927f9c4a597b04b174bf59af57ac26da3382782703a91ae06029ca1f31479413733b916104e9918d9190918252602082015260400190565b60405180910390a49250506104fe6001600055565b50949350505050565b600082815260056020908152604091829020825160a0810184528154815260018201546001600160a01b039081169382019390935260028201549381019390935260038101546060840181905260049091015490911660808301528391901561058657604051630a22a4fd60e11b8152600481018390526024016103b3565b848433826001600160a01b0316636352211e836040518263ffffffff1660e01b81526004016105b791815260200190565b602060405180830381865afa1580156105d4573d6000803e3d6000fd5b505050506040513d601f19601f820116820180604052508101906105f89190610b61565b6001600160a01b0316816001600160a01b031614610629576040516325e2338360e11b815260040160405180910390fd5b6106316108c2565b600086116106525760405163061e22df60e41b815260040160405180910390fd5b60046000815461066190610b7e565b909155506040805160a081018252600480548083526001600160a01b038c811660208086018281528688018f8152606088018f81523360808a0181815260009889526005909552968a90209851895591516001890180549187166001600160a01b031992831617905590516002890155905160038801559051958501805496909316951694909417905592516323b872dd60e01b81529081019290925230602483015260448201899052906323b872dd90606401600060405180830381600087803b15801561072f57600080fd5b505af1158015610743573d6000803e3d6000fd5b50505050336001600160a01b031686887f11ab981b311e2ba1819a08c0d5cb46547779c96995888f6f40a0743bab5083dd60045460405161078691815260200190565b60405180910390a46107986001600055565b5050505050505050565b336107b56001546001600160a01b031690565b6001600160a01b0316146107dc5760405163a5653ae560e01b815260040160405180910390fd5b6001600160a01b0382166108035760405163a5653ae560e01b815260040160405180910390fd5b8015610855576001546001600160a01b03908116908316036108385760405163d667803b60e01b815260040160405180910390fd5b61084182610876565b600280546001600160a01b03191690555050565b600280546001600160a01b0384166001600160a01b03199091161790555050565b600180546001600160a01b0319166001600160a01b03831690811790915560405181907f8be0079c531659141344cd1fd0a4f28419497f9722a3daafe3b4186f6b6457e090600090a350565b6002600054036109145760405162461bcd60e51b815260206004820152601f60248201527f5265656e7472616e637947756172643a207265656e7472616e742063616c6c0060448201526064016103b3565b6002600055565b6001600160a01b038116811461035d57600080fd5b60006020828403121561094257600080fd5b813561094d8161091b565b9392505050565b8035801515811461096457600080fd5b919050565b60006020828403121561097b57600080fd5b61094d82610954565b60006020828403121561099657600080fd5b5035919050565b600080600080608085870312156109b357600080fd5b84356109be8161091b565b966020860135965060408601359560600135945092505050565b6000806000606084860312156109ed57600080fd5b83356109f88161091b565b95602085013595506040909401359392505050565b60008060408385031215610a2057600080fd5b8235610a2b8161091b565b9150610a3960208401610954565b90509250929050565b634e487b7160e01b600052601160045260246000fd5b600181815b80851115610a93578160001904821115610a7957610a79610a42565b80851615610a8657918102915b93841c9390800290610a5d565b509250929050565b600082610aaa57506001610b38565b81610ab757506000610b38565b8160018114610acd5760028114610ad757610af3565b6001915050610b38565b60ff841115610ae857610ae8610a42565b50506001821b610b38565b5060208310610133831016604e8410600b8410161715610b16575081810a610b38565b610b208383610a58565b8060001904821115610b3457610b34610a42565b0290505b92915050565b600061094d8383610a9b565b8082028115828204841417610b3857610b38610a42565b600060208284031215610b7357600080fd5b815161094d8161091b565b600060018201610b9057610b90610a42565b506001019056fea26469706673582212208bc5cb2c6c4dac15b0b97137168106918f45c4aeacf719eca31be3e74de2610564736f6c63430008110033",
  "linkReferences": {},
  "deployedLinkReferences": {}
}