{
  "_format": "hh-sol-artifact-1",
  "contractName": "EarthverseMarketplace",
  "sourceName": "contracts/EarthverseMarketplace.sol",
  "abi": [
    {
      "inputs": [
        {
          "internalType": "address",
          "name": "availableContract",
          "type": "address"
        }
      ],
      "name": "AccessContract_AlreadyAvailableContractAdded",
      "type": "error"
    },
    {
      "inputs": [
        {
          "internalType": "address",
          "name": "sender",
          "type": "address"
        }
      ],
      "name": "AccessContract_NotHaveAccess",
      "type": "error"
    },
    {
      "inputs": [],
      "name": "AccessContract_ZeroAddress",
      "type": "error"
    },
    {
      "inputs": [
        {
          "internalType": "uint256",
          "name": "tokenId",
          "type": "uint256"
        }
      ],
      "name": "EarthverseMarketplace_AlreadyListed",
      "type": "error"
    },
    {
      "inputs": [
        {
          "internalType": "uint256",
          "name": "itemId",
          "type": "uint256"
        }
      ],
      "name": "EarthverseMarketplace_ItemDoesntExit",
      "type": "error"
    },
    {
      "inputs": [],
      "name": "EarthverseMarketplace_NotOwner",
      "type": "error"
    },
    {
      "inputs": [
        {
          "internalType": "uint256",
          "name": "itemId",
          "type": "uint256"
        },
        {
          "internalType": "uint256",
          "name": "price",
          "type": "uint256"
        }
      ],
      "name": "EarthverseMarketplace_PriceDoNotMet",
      "type": "error"
    },
    {
      "inputs": [],
      "name": "EarthverseMarketplace_PriceMustBeAboveZero",
      "type": "error"
    },
    {
      "inputs": [],
      "name": "EarthverseMarketplace_SellerCannotBeBuyer",
      "type": "error"
    },
    {
      "inputs": [],
      "name": "Ownable_CallerIsNotPendingOwner",
      "type": "error"
    },
    {
      "inputs": [],
      "name": "Ownable_CallerIsNotTheOwner",
      "type": "error"
    },
    {
      "inputs": [],
      "name": "Ownable_NewOwnerMustBeADifferentAddressThanTheCurrentOwner",
      "type": "error"
    },
    {
      "anonymous": false,
      "inputs": [
        {
          "indexed": false,
          "internalType": "address",
          "name": "removedContractAddress",
          "type": "address"
        }
      ],
      "name": "AvailableContractAddressRemoved",
      "type": "event"
    },
    {
      "anonymous": false,
      "inputs": [
        {
          "indexed": false,
          "internalType": "uint256",
          "name": "itemId",
          "type": "uint256"
        },
        {
          "indexed": false,
          "internalType": "uint256",
          "name": "price",
          "type": "uint256"
        },
        {
          "indexed": true,
          "internalType": "uint256",
          "name": "tokenId",
          "type": "uint256"
        },
        {
          "indexed": true,
          "internalType": "address",
          "name": "seller",
          "type": "address"
        },
        {
          "indexed": true,
          "internalType": "address",
          "name": "buyer",
          "type": "address"
        }
      ],
      "name": "NFTLandBought",
      "type": "event"
    },
    {
      "anonymous": false,
      "inputs": [
        {
          "indexed": false,
          "internalType": "uint256",
          "name": "itemId",
          "type": "uint256"
        },
        {
          "indexed": true,
          "internalType": "uint256",
          "name": "tokenId",
          "type": "uint256"
        },
        {
          "indexed": true,
          "internalType": "uint256",
          "name": "price",
          "type": "uint256"
        },
        {
          "indexed": true,
          "internalType": "address",
          "name": "seller",
          "type": "address"
        }
      ],
      "name": "NFTLandListed",
      "type": "event"
    },
    {
      "anonymous": false,
      "inputs": [
        {
          "indexed": false,
          "internalType": "address",
          "name": "newContractAddress",
          "type": "address"
        }
      ],
      "name": "NewAvailableContractAddressAdded",
      "type": "event"
    },
    {
      "anonymous": false,
      "inputs": [
        {
          "indexed": true,
          "internalType": "address",
          "name": "previousOwner",
          "type": "address"
        },
        {
          "indexed": true,
          "internalType": "address",
          "name": "newOwner",
          "type": "address"
        }
      ],
      "name": "OwnershipTransferred",
      "type": "event"
    },
    {
      "inputs": [
        {
          "internalType": "address",
          "name": "newContractAddress",
          "type": "address"
        }
      ],
      "name": "addNewAvailableContractAddress",
      "outputs": [],
      "stateMutability": "nonpayable",
      "type": "function"
    },
    {
      "inputs": [
        {
          "internalType": "address",
          "name": "",
          "type": "address"
        }
      ],
      "name": "availableContracts",
      "outputs": [
        {
          "internalType": "bool",
          "name": "",
          "type": "bool"
        }
      ],
      "stateMutability": "view",
      "type": "function"
    },
    {
      "inputs": [
        {
          "internalType": "address",
          "name": "buyer",
          "type": "address"
        },
        {
          "internalType": "uint256",
          "name": "itemId",
          "type": "uint256"
        },
        {
          "internalType": "uint256",
          "name": "price",
          "type": "uint256"
        },
        {
          "internalType": "uint256",
          "name": "decimalsOfInput",
          "type": "uint256"
        }
      ],
      "name": "buyNFTLand",
      "outputs": [
        {
          "internalType": "address",
          "name": "",
          "type": "address"
        }
      ],
      "stateMutability": "nonpayable",
      "type": "function"
    },
    {
      "inputs": [],
      "name": "claimOwnership",
      "outputs": [],
      "stateMutability": "nonpayable",
      "type": "function"
    },
    {
      "inputs": [],
      "name": "itemCount",
      "outputs": [
        {
          "internalType": "uint256",
          "name": "",
          "type": "uint256"
        }
      ],
      "stateMutability": "view",
      "type": "function"
    },
    {
      "inputs": [
        {
          "internalType": "contract IERC721",
          "name": "nftLand",
          "type": "address"
        },
        {
          "internalType": "uint256",
          "name": "tokenId",
          "type": "uint256"
        },
        {
          "internalType": "uint256",
          "name": "price",
          "type": "uint256"
        }
      ],
      "name": "listNFTLand",
      "outputs": [],
      "stateMutability": "nonpayable",
      "type": "function"
    },
    {
      "inputs": [
        {
          "internalType": "uint256",
          "name": "",
          "type": "uint256"
        }
      ],
      "name": "listing",
      "outputs": [
        {
          "internalType": "uint256",
          "name": "id",
          "type": "uint256"
        },
        {
          "internalType": "contract IERC721",
          "name": "nftLand",
          "type": "address"
        },
        {
          "internalType": "uint256",
          "name": "tokenId",
          "type": "uint256"
        },
        {
          "internalType": "uint256",
          "name": "price",
          "type": "uint256"
        },
        {
          "internalType": "address",
          "name": "seller",
          "type": "address"
        }
      ],
      "stateMutability": "view",
      "type": "function"
    },
    {
      "inputs": [],
      "name": "owner",
      "outputs": [
        {
          "internalType": "address",
          "name": "",
          "type": "address"
        }
      ],
      "stateMutability": "view",
      "type": "function"
    },
    {
      "inputs": [],
      "name": "pendingOwner",
      "outputs": [
        {
          "internalType": "address",
          "name": "",
          "type": "address"
        }
      ],
      "stateMutability": "view",
      "type": "function"
    },
    {
      "inputs": [
        {
          "internalType": "address",
          "name": "removeContractAddress",
          "type": "address"
        }
      ],
      "name": "removeAvailableContractAddress",
      "outputs": [],
      "stateMutability": "nonpayable",
      "type": "function"
    },
    {
      "inputs": [
        {
          "internalType": "bool",
          "name": "isRenounce",
          "type": "bool"
        }
      ],
      "name": "renounceOwnership",
      "outputs": [],
      "stateMutability": "nonpayable",
      "type": "function"
    },
    {
      "inputs": [
        {
          "internalType": "address",
          "name": "newOwner",
          "type": "address"
        },
        {
          "internalType": "bool",
          "name": "direct",
          "type": "bool"
        }
      ],
      "name": "transferOwnership",
      "outputs": [],
      "stateMutability": "nonpayable",
      "type": "function"
    }
  ],
  "bytecode": "0x608060405234801561001057600080fd5b5061001a3361001f565b61006a565b600080546001600160a01b0319166001600160a01b0383169081178255604051909182917f8be0079c531659141344cd1fd0a4f28419497f9722a3daafe3b4186f6b6457e09190a350565b610c7d806100796000396000f3fe608060405234801561001057600080fd5b50600436106100b45760003560e01c806395a0209e1161007157806395a0209e146101c55780639bb5c02b146101d8578063b242e534146101eb578063c210b865146101fe578063e30c397814610211578063e7c64f4e1461022457600080fd5b806316f4412a146100b95780634e71e0c8146100f15780636bfb0d01146100fb5780637e926b4b1461011257806384a184de146101255780638da5cb5b146101a0575b600080fd5b6100dc6100c73660046109e0565b60026020526000908152604090205460ff1681565b60405190151581526020015b60405180910390f35b6100f9610237565b005b61010460035481565b6040519081526020016100e8565b6100f9610120366004610a19565b610289565b610170610133366004610a34565b60046020819052600091825260409091208054600182015460028301546003840154939094015491936001600160a01b0391821693909290911685565b604080519586526001600160a01b039485166020870152850192909252606084015216608082015260a0016100e8565b6000546001600160a01b03165b6040516001600160a01b0390911681526020016100e8565b6101ad6101d3366004610a4d565b6102d6565b6100f96101e6366004610a88565b61046f565b6100f96101f9366004610abd565b6106f6565b6100f961020c3660046109e0565b6107ca565b6001546101ad906001600160a01b031681565b6100f96102323660046109e0565b6108cd565b6001546001600160a01b0316331461026257604051636afa1bbf60e11b815260040160405180910390fd5b600154610277906001600160a01b0316610980565b600180546001600160a01b0319169055565b3361029c6000546001600160a01b031690565b6001600160a01b0316146102c35760405163a5653ae560e01b815260040160405180910390fd5b80156102d3576102d36000610980565b50565b6000846001600160a01b038116610300576040516393a6823560e01b815260040160405180910390fd5b3360009081526002602052604090205460ff1661033757604051631fbe422f60e21b81523360048201526024015b60405180910390fd5b841580610345575060035485115b1561036657604051635527ebbb60e11b81526004810186905260240161032e565b600085815260046020526040902061037f84600a610bee565b816003015461038e9190610bfa565b8510156103be5760038101546040516301d3114d60e61b815261032e918891600401918252602082015260400190565b60048101546001600160a01b03908116908816036103ef5760405163dfe7052360e01b815260040160405180910390fd5b6004810180546001600160a01b038981166001600160a01b0319831681179093556002840154600385015460405192909316939284927f9c4a597b04b174bf59af57ac26da3382782703a91ae06029ca1f31479413733b9161045c918d9190918252602082015260400190565b60405180910390a4979650505050505050565b600082815260046020818152604092839020835160a0810185528154815260018201546001600160a01b0390811693820193909352600282015494810194909452600381015460608501819052920154166080830152839190156104e957604051630a22a4fd60e11b81526004810183905260240161032e565b848433826001600160a01b0316636352211e836040518263ffffffff1660e01b815260040161051a91815260200190565b602060405180830381865afa158015610537573d6000803e3d6000fd5b505050506040513d601f19601f8201168201806040525081019061055b9190610c11565b6001600160a01b0316816001600160a01b03161461058c576040516325e2338360e11b815260040160405180910390fd5b600086116105ad5760405163061e22df60e41b815260040160405180910390fd5b6003600081546105bc90610c2e565b909155506040805160a081018252600380548083526001600160a01b03808d1660208086019182528587018e8152606087018e815233608089018181526000978852600494859052968a90209851895593516001890180549187166001600160a01b0319928316179055915160028901555187870155935195018054959092169490921693909317909255549151909188918a917f11ab981b311e2ba1819a08c0d5cb46547779c96995888f6f40a0743bab5083dd9161067e91815260200190565b60405180910390a46040516323b872dd60e01b8152336004820152306024820152604481018890526001600160a01b038916906323b872dd90606401600060405180830381600087803b1580156106d457600080fd5b505af11580156106e8573d6000803e3d6000fd5b505050505050505050505050565b336107096000546001600160a01b031690565b6001600160a01b0316146107305760405163a5653ae560e01b815260040160405180910390fd5b6001600160a01b0382166107575760405163a5653ae560e01b815260040160405180910390fd5b80156107a9576000546001600160a01b039081169083160361078c5760405163d667803b60e01b815260040160405180910390fd5b61079582610980565b600180546001600160a01b03191690555050565b600180546001600160a01b0384166001600160a01b03199091161790555050565b806001600160a01b0381166107f2576040516393a6823560e01b815260040160405180910390fd5b336108056000546001600160a01b031690565b6001600160a01b03161461082c5760405163a5653ae560e01b815260040160405180910390fd5b6001600160a01b03821660009081526002602052604090205460ff161561087157604051635bb7312160e11b81526001600160a01b038316600482015260240161032e565b6001600160a01b038216600081815260026020908152604091829020805460ff1916600117905590519182527f3aa524755829016034f2823014bac43ff6eef092909806f57e4630a3d218bfdc91015b60405180910390a15050565b806001600160a01b0381166108f5576040516393a6823560e01b815260040160405180910390fd5b336109086000546001600160a01b031690565b6001600160a01b03161461092f5760405163a5653ae560e01b815260040160405180910390fd5b6001600160a01b038216600081815260026020908152604091829020805460ff1916905590519182527fdb0953c6768f90a1ee20f851e0ac3aaebf04082e849a3059bc696df2b9483a0b91016108c1565b600080546001600160a01b0319166001600160a01b0383169081178255604051909182917f8be0079c531659141344cd1fd0a4f28419497f9722a3daafe3b4186f6b6457e09190a350565b6001600160a01b03811681146102d357600080fd5b6000602082840312156109f257600080fd5b81356109fd816109cb565b9392505050565b80358015158114610a1457600080fd5b919050565b600060208284031215610a2b57600080fd5b6109fd82610a04565b600060208284031215610a4657600080fd5b5035919050565b60008060008060808587031215610a6357600080fd5b8435610a6e816109cb565b966020860135965060408601359560600135945092505050565b600080600060608486031215610a9d57600080fd5b8335610aa8816109cb565b95602085013595506040909401359392505050565b60008060408385031215610ad057600080fd5b8235610adb816109cb565b9150610ae960208401610a04565b90509250929050565b634e487b7160e01b600052601160045260246000fd5b600181815b80851115610b43578160001904821115610b2957610b29610af2565b80851615610b3657918102915b93841c9390800290610b0d565b509250929050565b600082610b5a57506001610be8565b81610b6757506000610be8565b8160018114610b7d5760028114610b8757610ba3565b6001915050610be8565b60ff841115610b9857610b98610af2565b50506001821b610be8565b5060208310610133831016604e8410600b8410161715610bc6575081810a610be8565b610bd08383610b08565b8060001904821115610be457610be4610af2565b0290505b92915050565b60006109fd8383610b4b565b8082028115828204841417610be857610be8610af2565b600060208284031215610c2357600080fd5b81516109fd816109cb565b600060018201610c4057610c40610af2565b506001019056fea26469706673582212203f93104fb3c705f28b3bca19614616bba6f2819c1fe0a3730c3c9cce86a1a07f64736f6c63430008110033",
  "linkReferences": {},
  "deployedLinkReferences": {}
}