{
  "_format": "hh-sol-artifact-1",
  "contractName": "NFTDollar",
  "sourceName": "contracts/NFTDollar.sol",
  "abi": [
    {
      "inputs": [],
      "stateMutability": "nonpayable",
      "type": "constructor"
    },
    {
      "inputs": [
        {
          "internalType": "address",
          "name": "availableContract",
          "type": "address"
        }
      ],
      "name": "AccessContract_AlreadyAvailableContractAdded",
      "type": "error"
    },
    {
      "inputs": [
        {
          "internalType": "address",
          "name": "sender",
          "type": "address"
        }
      ],
      "name": "AccessContract_NotHaveAccess",
      "type": "error"
    },
    {
      "inputs": [],
      "name": "AccessContract_ZeroAddress",
      "type": "error"
    },
    {
      "inputs": [],
      "name": "Ownable_CallerIsNotPendingOwner",
      "type": "error"
    },
    {
      "inputs": [],
      "name": "Ownable_CallerIsNotTheOwner",
      "type": "error"
    },
    {
      "inputs": [],
      "name": "Ownable_NewOwnerMustBeADifferentAddressThanTheCurrentOwner",
      "type": "error"
    },
    {
      "anonymous": false,
      "inputs": [
        {
          "indexed": true,
          "internalType": "address",
          "name": "owner",
          "type": "address"
        },
        {
          "indexed": true,
          "internalType": "address",
          "name": "spender",
          "type": "address"
        },
        {
          "indexed": false,
          "internalType": "uint256",
          "name": "value",
          "type": "uint256"
        }
      ],
      "name": "Approval",
      "type": "event"
    },
    {
      "anonymous": false,
      "inputs": [
        {
          "indexed": false,
          "internalType": "address",
          "name": "removedContractAddress",
          "type": "address"
        }
      ],
      "name": "AvailableContractAddressRemoved",
      "type": "event"
    },
    {
      "anonymous": false,
      "inputs": [
        {
          "indexed": false,
          "internalType": "address",
          "name": "newContractAddress",
          "type": "address"
        }
      ],
      "name": "NewAvailableContractAddressAdded",
      "type": "event"
    },
    {
      "anonymous": false,
      "inputs": [
        {
          "indexed": true,
          "internalType": "address",
          "name": "previousOwner",
          "type": "address"
        },
        {
          "indexed": true,
          "internalType": "address",
          "name": "newOwner",
          "type": "address"
        }
      ],
      "name": "OwnershipTransferred",
      "type": "event"
    },
    {
      "anonymous": false,
      "inputs": [
        {
          "indexed": true,
          "internalType": "address",
          "name": "from",
          "type": "address"
        },
        {
          "indexed": true,
          "internalType": "address",
          "name": "to",
          "type": "address"
        },
        {
          "indexed": false,
          "internalType": "uint256",
          "name": "value",
          "type": "uint256"
        }
      ],
      "name": "Transfer",
      "type": "event"
    },
    {
      "inputs": [
        {
          "internalType": "address",
          "name": "newContractAddress",
          "type": "address"
        }
      ],
      "name": "addNewAvailableContractAddress",
      "outputs": [],
      "stateMutability": "nonpayable",
      "type": "function"
    },
    {
      "inputs": [
        {
          "internalType": "address",
          "name": "owner",
          "type": "address"
        },
        {
          "internalType": "address",
          "name": "spender",
          "type": "address"
        }
      ],
      "name": "allowance",
      "outputs": [
        {
          "internalType": "uint256",
          "name": "",
          "type": "uint256"
        }
      ],
      "stateMutability": "view",
      "type": "function"
    },
    {
      "inputs": [
        {
          "internalType": "address",
          "name": "spender",
          "type": "address"
        },
        {
          "internalType": "uint256",
          "name": "amount",
          "type": "uint256"
        }
      ],
      "name": "approve",
      "outputs": [
        {
          "internalType": "bool",
          "name": "",
          "type": "bool"
        }
      ],
      "stateMutability": "nonpayable",
      "type": "function"
    },
    {
      "inputs": [
        {
          "internalType": "address",
          "name": "",
          "type": "address"
        }
      ],
      "name": "availableContracts",
      "outputs": [
        {
          "internalType": "bool",
          "name": "",
          "type": "bool"
        }
      ],
      "stateMutability": "view",
      "type": "function"
    },
    {
      "inputs": [
        {
          "internalType": "address",
          "name": "account",
          "type": "address"
        }
      ],
      "name": "balanceOf",
      "outputs": [
        {
          "internalType": "uint256",
          "name": "",
          "type": "uint256"
        }
      ],
      "stateMutability": "view",
      "type": "function"
    },
    {
      "inputs": [
        {
          "internalType": "uint256",
          "name": "amount",
          "type": "uint256"
        }
      ],
      "name": "burn",
      "outputs": [],
      "stateMutability": "nonpayable",
      "type": "function"
    },
    {
      "inputs": [
        {
          "internalType": "address",
          "name": "account",
          "type": "address"
        },
        {
          "internalType": "uint256",
          "name": "amount",
          "type": "uint256"
        }
      ],
      "name": "burnFrom",
      "outputs": [],
      "stateMutability": "nonpayable",
      "type": "function"
    },
    {
      "inputs": [],
      "name": "claimOwnership",
      "outputs": [],
      "stateMutability": "nonpayable",
      "type": "function"
    },
    {
      "inputs": [],
      "name": "decimals",
      "outputs": [
        {
          "internalType": "uint8",
          "name": "",
          "type": "uint8"
        }
      ],
      "stateMutability": "view",
      "type": "function"
    },
    {
      "inputs": [
        {
          "internalType": "address",
          "name": "spender",
          "type": "address"
        },
        {
          "internalType": "uint256",
          "name": "subtractedValue",
          "type": "uint256"
        }
      ],
      "name": "decreaseAllowance",
      "outputs": [
        {
          "internalType": "bool",
          "name": "",
          "type": "bool"
        }
      ],
      "stateMutability": "nonpayable",
      "type": "function"
    },
    {
      "inputs": [
        {
          "internalType": "address",
          "name": "spender",
          "type": "address"
        },
        {
          "internalType": "uint256",
          "name": "addedValue",
          "type": "uint256"
        }
      ],
      "name": "increaseAllowance",
      "outputs": [
        {
          "internalType": "bool",
          "name": "",
          "type": "bool"
        }
      ],
      "stateMutability": "nonpayable",
      "type": "function"
    },
    {
      "inputs": [
        {
          "internalType": "address",
          "name": "to",
          "type": "address"
        },
        {
          "internalType": "uint256",
          "name": "amount",
          "type": "uint256"
        },
        {
          "internalType": "uint256",
          "name": "decimalsOfInput",
          "type": "uint256"
        }
      ],
      "name": "mint",
      "outputs": [],
      "stateMutability": "nonpayable",
      "type": "function"
    },
    {
      "inputs": [],
      "name": "name",
      "outputs": [
        {
          "internalType": "string",
          "name": "",
          "type": "string"
        }
      ],
      "stateMutability": "view",
      "type": "function"
    },
    {
      "inputs": [],
      "name": "owner",
      "outputs": [
        {
          "internalType": "address",
          "name": "",
          "type": "address"
        }
      ],
      "stateMutability": "view",
      "type": "function"
    },
    {
      "inputs": [],
      "name": "pendingOwner",
      "outputs": [
        {
          "internalType": "address",
          "name": "",
          "type": "address"
        }
      ],
      "stateMutability": "view",
      "type": "function"
    },
    {
      "inputs": [
        {
          "internalType": "address",
          "name": "removeContractAddress",
          "type": "address"
        }
      ],
      "name": "removeAvailableContractAddress",
      "outputs": [],
      "stateMutability": "nonpayable",
      "type": "function"
    },
    {
      "inputs": [
        {
          "internalType": "bool",
          "name": "isRenounce",
          "type": "bool"
        }
      ],
      "name": "renounceOwnership",
      "outputs": [],
      "stateMutability": "nonpayable",
      "type": "function"
    },
    {
      "inputs": [],
      "name": "symbol",
      "outputs": [
        {
          "internalType": "string",
          "name": "",
          "type": "string"
        }
      ],
      "stateMutability": "view",
      "type": "function"
    },
    {
      "inputs": [],
      "name": "totalSupply",
      "outputs": [
        {
          "internalType": "uint256",
          "name": "",
          "type": "uint256"
        }
      ],
      "stateMutability": "view",
      "type": "function"
    },
    {
      "inputs": [
        {
          "internalType": "address",
          "name": "to",
          "type": "address"
        },
        {
          "internalType": "uint256",
          "name": "amount",
          "type": "uint256"
        }
      ],
      "name": "transfer",
      "outputs": [
        {
          "internalType": "bool",
          "name": "",
          "type": "bool"
        }
      ],
      "stateMutability": "nonpayable",
      "type": "function"
    },
    {
      "inputs": [
        {
          "internalType": "address",
          "name": "from",
          "type": "address"
        },
        {
          "internalType": "address",
          "name": "to",
          "type": "address"
        },
        {
          "internalType": "uint256",
          "name": "amount",
          "type": "uint256"
        }
      ],
      "name": "transferFrom",
      "outputs": [
        {
          "internalType": "bool",
          "name": "",
          "type": "bool"
        }
      ],
      "stateMutability": "nonpayable",
      "type": "function"
    },
    {
      "inputs": [
        {
          "internalType": "address",
          "name": "newOwner",
          "type": "address"
        },
        {
          "internalType": "bool",
          "name": "direct",
          "type": "bool"
        }
      ],
      "name": "transferOwnership",
      "outputs": [],
      "stateMutability": "nonpayable",
      "type": "function"
    }
  ],
  "bytecode": "0x60806040523480156200001157600080fd5b506040518060400160405280600a81526020016927232a102237b63630b960b11b815250604051806040016040528060048152602001631391951160e21b81525081600390816200006391906200017d565b5060046200007282826200017d565b50505062000086336200008c60201b60201c565b62000249565b600580546001600160a01b0319166001600160a01b03831690811790915560405181907f8be0079c531659141344cd1fd0a4f28419497f9722a3daafe3b4186f6b6457e090600090a350565b634e487b7160e01b600052604160045260246000fd5b600181811c908216806200010357607f821691505b6020821081036200012457634e487b7160e01b600052602260045260246000fd5b50919050565b601f8211156200017857600081815260208120601f850160051c81016020861015620001535750805b601f850160051c820191505b8181101562000174578281556001016200015f565b5050505b505050565b81516001600160401b03811115620001995762000199620000d8565b620001b181620001aa8454620000ee565b846200012a565b602080601f831160018114620001e95760008415620001d05750858301515b600019600386901b1c1916600185901b17855562000174565b600085815260208120601f198616915b828110156200021a57888601518255948401946001909101908401620001f9565b5085821015620002395787850151600019600388901b60f8161c191681555b5050505050600190811b01905550565b61118180620002596000396000f3fe608060405234801561001057600080fd5b50600436106101425760003560e01c806379cc6790116100b8578063a9059cbb1161007c578063a9059cbb146102b1578063b242e534146102c4578063c210b865146102d7578063dd62ed3e146102ea578063e30c3978146102fd578063e7c64f4e1461031057600080fd5b806379cc67901461024b5780637e926b4b1461025e5780638da5cb5b1461027157806395d89b4114610296578063a457c2d71461029e57600080fd5b806323b872dd1161010a57806323b872dd146101d2578063313ce567146101e557806339509351146101f457806342966c68146102075780634e71e0c81461021a57806370a082311461022257600080fd5b806306fdde0314610147578063095ea7b314610165578063156e29f61461018857806316f4412a1461019d57806318160ddd146101c0575b600080fd5b61014f610323565b60405161015c9190610e08565b60405180910390f35b610178610173366004610e72565b6103b5565b604051901515815260200161015c565b61019b610196366004610e9c565b6103cf565b005b6101786101ab366004610ecf565b60076020526000908152604090205460ff1681565b6002545b60405190815260200161015c565b6101786101e0366004610ef1565b610434565b6040516012815260200161015c565b610178610202366004610e72565b610458565b61019b610215366004610f2d565b61047a565b61019b610487565b6101c4610230366004610ecf565b6001600160a01b031660009081526020819052604090205490565b61019b610259366004610e72565b6104d9565b61019b61026c366004610f56565b6104f2565b6005546001600160a01b03165b6040516001600160a01b03909116815260200161015c565b61014f61053c565b6101786102ac366004610e72565b61054b565b6101786102bf366004610e72565b6105c6565b61019b6102d2366004610f71565b6105d4565b61019b6102e5366004610ecf565b6106a8565b6101c46102f8366004610fa4565b6107ab565b60065461027e906001600160a01b031681565b61019b61031e366004610ecf565b6107d6565b60606003805461033290610fce565b80601f016020809104026020016040519081016040528092919081815260200182805461035e90610fce565b80156103ab5780601f10610380576101008083540402835291602001916103ab565b820191906000526020600020905b81548152906001019060200180831161038e57829003601f168201915b5050505050905090565b6000336103c3818585610889565b60019150505b92915050565b3360009081526007602052604090205460ff1661040657604051631fbe422f60e21b81523360048201526024015b60405180910390fd5b61042f8361041583601261101e565b61042090600a611115565b61042a9085611121565b6109ad565b505050565b600033610442858285610a6c565b61044d858585610ae6565b506001949350505050565b6000336103c381858561046b83836107ab565b6104759190611138565b610889565b6104843382610c8a565b50565b6006546001600160a01b031633146104b257604051636afa1bbf60e11b815260040160405180910390fd5b6006546104c7906001600160a01b0316610dbc565b600680546001600160a01b0319169055565b6104e4823383610a6c565b6104ee8282610c8a565b5050565b336105056005546001600160a01b031690565b6001600160a01b03161461052c5760405163a5653ae560e01b815260040160405180910390fd5b8015610484576104846000610dbc565b60606004805461033290610fce565b6000338161055982866107ab565b9050838110156105b95760405162461bcd60e51b815260206004820152602560248201527f45524332303a2064656372656173656420616c6c6f77616e63652062656c6f77604482015264207a65726f60d81b60648201526084016103fd565b61044d8286868403610889565b6000336103c3818585610ae6565b336105e76005546001600160a01b031690565b6001600160a01b03161461060e5760405163a5653ae560e01b815260040160405180910390fd5b6001600160a01b0382166106355760405163a5653ae560e01b815260040160405180910390fd5b8015610687576005546001600160a01b039081169083160361066a5760405163d667803b60e01b815260040160405180910390fd5b61067382610dbc565b600680546001600160a01b03191690555050565b600680546001600160a01b0384166001600160a01b03199091161790555050565b806001600160a01b0381166106d0576040516393a6823560e01b815260040160405180910390fd5b336106e36005546001600160a01b031690565b6001600160a01b03161461070a5760405163a5653ae560e01b815260040160405180910390fd5b6001600160a01b03821660009081526007602052604090205460ff161561074f57604051635bb7312160e11b81526001600160a01b03831660048201526024016103fd565b6001600160a01b038216600081815260076020908152604091829020805460ff1916600117905590519182527f3aa524755829016034f2823014bac43ff6eef092909806f57e4630a3d218bfdc91015b60405180910390a15050565b6001600160a01b03918216600090815260016020908152604080832093909416825291909152205490565b806001600160a01b0381166107fe576040516393a6823560e01b815260040160405180910390fd5b336108116005546001600160a01b031690565b6001600160a01b0316146108385760405163a5653ae560e01b815260040160405180910390fd5b6001600160a01b038216600081815260076020908152604091829020805460ff1916905590519182527fdb0953c6768f90a1ee20f851e0ac3aaebf04082e849a3059bc696df2b9483a0b910161079f565b6001600160a01b0383166108eb5760405162461bcd60e51b8152602060048201526024808201527f45524332303a20617070726f76652066726f6d20746865207a65726f206164646044820152637265737360e01b60648201526084016103fd565b6001600160a01b03821661094c5760405162461bcd60e51b815260206004820152602260248201527f45524332303a20617070726f766520746f20746865207a65726f206164647265604482015261737360f01b60648201526084016103fd565b6001600160a01b0383811660008181526001602090815260408083209487168084529482529182902085905590518481527f8c5be1e5ebec7d5bd14f71427d1e84f3dd0314c0f7b2291e5b200ac8c7c3b925910160405180910390a3505050565b6001600160a01b038216610a035760405162461bcd60e51b815260206004820152601f60248201527f45524332303a206d696e7420746f20746865207a65726f20616464726573730060448201526064016103fd565b8060026000828254610a159190611138565b90915550506001600160a01b038216600081815260208181526040808320805486019055518481527fddf252ad1be2c89b69c2b068fc378daa952ba7f163c4a11628f55a4df523b3ef910160405180910390a35050565b6000610a7884846107ab565b90506000198114610ae05781811015610ad35760405162461bcd60e51b815260206004820152601d60248201527f45524332303a20696e73756666696369656e7420616c6c6f77616e636500000060448201526064016103fd565b610ae08484848403610889565b50505050565b6001600160a01b038316610b4a5760405162461bcd60e51b815260206004820152602560248201527f45524332303a207472616e736665722066726f6d20746865207a65726f206164604482015264647265737360d81b60648201526084016103fd565b6001600160a01b038216610bac5760405162461bcd60e51b815260206004820152602360248201527f45524332303a207472616e7366657220746f20746865207a65726f206164647260448201526265737360e81b60648201526084016103fd565b6001600160a01b03831660009081526020819052604090205481811015610c245760405162461bcd60e51b815260206004820152602660248201527f45524332303a207472616e7366657220616d6f756e7420657863656564732062604482015265616c616e636560d01b60648201526084016103fd565b6001600160a01b03848116600081815260208181526040808320878703905593871680835291849020805487019055925185815290927fddf252ad1be2c89b69c2b068fc378daa952ba7f163c4a11628f55a4df523b3ef910160405180910390a3610ae0565b6001600160a01b038216610cea5760405162461bcd60e51b815260206004820152602160248201527f45524332303a206275726e2066726f6d20746865207a65726f206164647265736044820152607360f81b60648201526084016103fd565b6001600160a01b03821660009081526020819052604090205481811015610d5e5760405162461bcd60e51b815260206004820152602260248201527f45524332303a206275726e20616d6f756e7420657863656564732062616c616e604482015261636560f01b60648201526084016103fd565b6001600160a01b0383166000818152602081815260408083208686039055600280548790039055518581529192917fddf252ad1be2c89b69c2b068fc378daa952ba7f163c4a11628f55a4df523b3ef910160405180910390a3505050565b600580546001600160a01b0319166001600160a01b03831690811790915560405181907f8be0079c531659141344cd1fd0a4f28419497f9722a3daafe3b4186f6b6457e090600090a350565b600060208083528351808285015260005b81811015610e3557858101830151858201604001528201610e19565b506000604082860101526040601f19601f8301168501019250505092915050565b80356001600160a01b0381168114610e6d57600080fd5b919050565b60008060408385031215610e8557600080fd5b610e8e83610e56565b946020939093013593505050565b600080600060608486031215610eb157600080fd5b610eba84610e56565b95602085013595506040909401359392505050565b600060208284031215610ee157600080fd5b610eea82610e56565b9392505050565b600080600060608486031215610f0657600080fd5b610f0f84610e56565b9250610f1d60208501610e56565b9150604084013590509250925092565b600060208284031215610f3f57600080fd5b5035919050565b80358015158114610e6d57600080fd5b600060208284031215610f6857600080fd5b610eea82610f46565b60008060408385031215610f8457600080fd5b610f8d83610e56565b9150610f9b60208401610f46565b90509250929050565b60008060408385031215610fb757600080fd5b610fc083610e56565b9150610f9b60208401610e56565b600181811c90821680610fe257607f821691505b60208210810361100257634e487b7160e01b600052602260045260246000fd5b50919050565b634e487b7160e01b600052601160045260246000fd5b818103818111156103c9576103c9611008565b600181815b8085111561106c57816000190482111561105257611052611008565b8085161561105f57918102915b93841c9390800290611036565b509250929050565b600082611083575060016103c9565b81611090575060006103c9565b81600181146110a657600281146110b0576110cc565b60019150506103c9565b60ff8411156110c1576110c1611008565b50506001821b6103c9565b5060208310610133831016604e8410600b84101617156110ef575081810a6103c9565b6110f98383611031565b806000190482111561110d5761110d611008565b029392505050565b6000610eea8383611074565b80820281158282048414176103c9576103c9611008565b808201808211156103c9576103c961100856fea26469706673582212207b86b50e0b3b4b37178a41d2bb0acd152da6cdd5a888b6ecd73b3da2c6ec4aed64736f6c63430008110033",
  "linkReferences": {},
  "deployedLinkReferences": {}
}