{
  "_format": "hh-sol-artifact-1",
  "contractName": "NFTDollar",
  "sourceName": "contracts/NFTDollar.sol",
  "abi": [
    {
      "inputs": [],
      "stateMutability": "nonpayable",
      "type": "constructor"
    },
    {
      "inputs": [
        {
          "internalType": "address",
          "name": "sender",
          "type": "address"
        }
      ],
      "name": "AccessContract_NotHaveAccess",
      "type": "error"
    },
    {
      "inputs": [],
      "name": "AccessContract_ZeroAddress",
      "type": "error"
    },
    {
      "inputs": [],
      "name": "Ownable_CallerIsNotPendingOwner",
      "type": "error"
    },
    {
      "inputs": [],
      "name": "Ownable_CallerIsNotTheOwner",
      "type": "error"
    },
    {
      "inputs": [],
      "name": "Ownable_NewOwnerMustBeADifferentAddressThanTheCurrentOwner",
      "type": "error"
    },
    {
      "anonymous": false,
      "inputs": [
        {
          "indexed": true,
          "internalType": "address",
          "name": "owner",
          "type": "address"
        },
        {
          "indexed": true,
          "internalType": "address",
          "name": "spender",
          "type": "address"
        },
        {
          "indexed": false,
          "internalType": "uint256",
          "name": "value",
          "type": "uint256"
        }
      ],
      "name": "Approval",
      "type": "event"
    },
    {
      "anonymous": false,
      "inputs": [
        {
          "indexed": false,
          "internalType": "address",
          "name": "oldAddress",
          "type": "address"
        },
        {
          "indexed": false,
          "internalType": "address",
          "name": "newAddress",
          "type": "address"
        }
      ],
      "name": "EarthverseDepositAddressChanged",
      "type": "event"
    },
    {
      "anonymous": false,
      "inputs": [
        {
          "indexed": true,
          "internalType": "address",
          "name": "previousOwner",
          "type": "address"
        },
        {
          "indexed": true,
          "internalType": "address",
          "name": "newOwner",
          "type": "address"
        }
      ],
      "name": "OwnershipTransferred",
      "type": "event"
    },
    {
      "anonymous": false,
      "inputs": [
        {
          "indexed": true,
          "internalType": "address",
          "name": "from",
          "type": "address"
        },
        {
          "indexed": true,
          "internalType": "address",
          "name": "to",
          "type": "address"
        },
        {
          "indexed": false,
          "internalType": "uint256",
          "name": "value",
          "type": "uint256"
        }
      ],
      "name": "Transfer",
      "type": "event"
    },
    {
      "inputs": [
        {
          "internalType": "address",
          "name": "owner",
          "type": "address"
        },
        {
          "internalType": "address",
          "name": "spender",
          "type": "address"
        }
      ],
      "name": "allowance",
      "outputs": [
        {
          "internalType": "uint256",
          "name": "",
          "type": "uint256"
        }
      ],
      "stateMutability": "view",
      "type": "function"
    },
    {
      "inputs": [
        {
          "internalType": "address",
          "name": "spender",
          "type": "address"
        },
        {
          "internalType": "uint256",
          "name": "amount",
          "type": "uint256"
        }
      ],
      "name": "approve",
      "outputs": [
        {
          "internalType": "bool",
          "name": "",
          "type": "bool"
        }
      ],
      "stateMutability": "nonpayable",
      "type": "function"
    },
    {
      "inputs": [
        {
          "internalType": "address",
          "name": "account",
          "type": "address"
        }
      ],
      "name": "balanceOf",
      "outputs": [
        {
          "internalType": "uint256",
          "name": "",
          "type": "uint256"
        }
      ],
      "stateMutability": "view",
      "type": "function"
    },
    {
      "inputs": [
        {
          "internalType": "uint256",
          "name": "amount",
          "type": "uint256"
        }
      ],
      "name": "burn",
      "outputs": [],
      "stateMutability": "nonpayable",
      "type": "function"
    },
    {
      "inputs": [
        {
          "internalType": "address",
          "name": "account",
          "type": "address"
        },
        {
          "internalType": "uint256",
          "name": "amount",
          "type": "uint256"
        }
      ],
      "name": "burnFrom",
      "outputs": [],
      "stateMutability": "nonpayable",
      "type": "function"
    },
    {
      "inputs": [],
      "name": "claimOwnership",
      "outputs": [],
      "stateMutability": "nonpayable",
      "type": "function"
    },
    {
      "inputs": [],
      "name": "decimals",
      "outputs": [
        {
          "internalType": "uint8",
          "name": "",
          "type": "uint8"
        }
      ],
      "stateMutability": "view",
      "type": "function"
    },
    {
      "inputs": [
        {
          "internalType": "address",
          "name": "spender",
          "type": "address"
        },
        {
          "internalType": "uint256",
          "name": "subtractedValue",
          "type": "uint256"
        }
      ],
      "name": "decreaseAllowance",
      "outputs": [
        {
          "internalType": "bool",
          "name": "",
          "type": "bool"
        }
      ],
      "stateMutability": "nonpayable",
      "type": "function"
    },
    {
      "inputs": [],
      "name": "earthverseDepositAddress",
      "outputs": [
        {
          "internalType": "address",
          "name": "",
          "type": "address"
        }
      ],
      "stateMutability": "view",
      "type": "function"
    },
    {
      "inputs": [
        {
          "internalType": "address",
          "name": "spender",
          "type": "address"
        },
        {
          "internalType": "uint256",
          "name": "addedValue",
          "type": "uint256"
        }
      ],
      "name": "increaseAllowance",
      "outputs": [
        {
          "internalType": "bool",
          "name": "",
          "type": "bool"
        }
      ],
      "stateMutability": "nonpayable",
      "type": "function"
    },
    {
      "inputs": [
        {
          "internalType": "address",
          "name": "to",
          "type": "address"
        },
        {
          "internalType": "uint256",
          "name": "amount",
          "type": "uint256"
        },
        {
          "internalType": "uint256",
          "name": "decimalsOfInput",
          "type": "uint256"
        }
      ],
      "name": "mint",
      "outputs": [],
      "stateMutability": "nonpayable",
      "type": "function"
    },
    {
      "inputs": [],
      "name": "name",
      "outputs": [
        {
          "internalType": "string",
          "name": "",
          "type": "string"
        }
      ],
      "stateMutability": "view",
      "type": "function"
    },
    {
      "inputs": [],
      "name": "owner",
      "outputs": [
        {
          "internalType": "address",
          "name": "",
          "type": "address"
        }
      ],
      "stateMutability": "view",
      "type": "function"
    },
    {
      "inputs": [],
      "name": "pendingOwner",
      "outputs": [
        {
          "internalType": "address",
          "name": "",
          "type": "address"
        }
      ],
      "stateMutability": "view",
      "type": "function"
    },
    {
      "inputs": [
        {
          "internalType": "bool",
          "name": "isRenounce",
          "type": "bool"
        }
      ],
      "name": "renounceOwnership",
      "outputs": [],
      "stateMutability": "nonpayable",
      "type": "function"
    },
    {
      "inputs": [
        {
          "internalType": "address",
          "name": "_earthverseDepositAddress",
          "type": "address"
        }
      ],
      "name": "setNewEarthverseDepositAddress",
      "outputs": [],
      "stateMutability": "nonpayable",
      "type": "function"
    },
    {
      "inputs": [],
      "name": "symbol",
      "outputs": [
        {
          "internalType": "string",
          "name": "",
          "type": "string"
        }
      ],
      "stateMutability": "view",
      "type": "function"
    },
    {
      "inputs": [],
      "name": "totalSupply",
      "outputs": [
        {
          "internalType": "uint256",
          "name": "",
          "type": "uint256"
        }
      ],
      "stateMutability": "view",
      "type": "function"
    },
    {
      "inputs": [
        {
          "internalType": "address",
          "name": "to",
          "type": "address"
        },
        {
          "internalType": "uint256",
          "name": "amount",
          "type": "uint256"
        }
      ],
      "name": "transfer",
      "outputs": [
        {
          "internalType": "bool",
          "name": "",
          "type": "bool"
        }
      ],
      "stateMutability": "nonpayable",
      "type": "function"
    },
    {
      "inputs": [
        {
          "internalType": "address",
          "name": "from",
          "type": "address"
        },
        {
          "internalType": "address",
          "name": "to",
          "type": "address"
        },
        {
          "internalType": "uint256",
          "name": "amount",
          "type": "uint256"
        }
      ],
      "name": "transferFrom",
      "outputs": [
        {
          "internalType": "bool",
          "name": "",
          "type": "bool"
        }
      ],
      "stateMutability": "nonpayable",
      "type": "function"
    },
    {
      "inputs": [
        {
          "internalType": "address",
          "name": "newOwner",
          "type": "address"
        },
        {
          "internalType": "bool",
          "name": "direct",
          "type": "bool"
        }
      ],
      "name": "transferOwnership",
      "outputs": [],
      "stateMutability": "nonpayable",
      "type": "function"
    }
  ],
  "bytecode": "0x60806040523480156200001157600080fd5b506040518060400160405280600a81526020016927232a102237b63630b960b11b815250604051806040016040528060048152602001631391951160e21b81525081600390816200006391906200017d565b5060046200007282826200017d565b50505062000086336200008c60201b60201c565b62000249565b600580546001600160a01b0319166001600160a01b03831690811790915560405181907f8be0079c531659141344cd1fd0a4f28419497f9722a3daafe3b4186f6b6457e090600090a350565b634e487b7160e01b600052604160045260246000fd5b600181811c908216806200010357607f821691505b6020821081036200012457634e487b7160e01b600052602260045260246000fd5b50919050565b601f8211156200017857600081815260208120601f850160051c81016020861015620001535750805b601f850160051c820191505b8181101562000174578281556001016200015f565b5050505b505050565b81516001600160401b03811115620001995762000199620000d8565b620001b181620001aa8454620000ee565b846200012a565b602080601f831160018114620001e95760008415620001d05750858301515b600019600386901b1c1916600185901b17855562000174565b600085815260208120601f198616915b828110156200021a57888601518255948401946001909101908401620001f9565b5085821015620002395787850151600019600388901b60f8161c191681555b5050505050600190811b01905550565b61106280620002596000396000f3fe608060405234801561001057600080fd5b50600436106101375760003560e01c806370a08231116100b8578063a3fcc92c1161007c578063a3fcc92c14610283578063a457c2d714610296578063a9059cbb146102a9578063b242e534146102bc578063dd62ed3e146102cf578063e30c3978146102e257600080fd5b806370a082311461020757806379cc6790146102305780637e926b4b146102435780638da5cb5b1461025657806395d89b411461027b57600080fd5b806323b872dd116100ff57806323b872dd146101b7578063313ce567146101ca57806339509351146101d957806342966c68146101ec5780634e71e0c8146101ff57600080fd5b806306fdde031461013c578063095ea7b31461015a578063156e29f61461017d57806318160ddd146101925780631fe24688146101a4575b600080fd5b6101446102f5565b6040516101519190610ce9565b60405180910390f35b61016d610168366004610d53565b610387565b6040519015158152602001610151565b61019061018b366004610d7d565b6103a1565b005b6002545b604051908152602001610151565b6101906101b2366004610db0565b610401565b61016d6101c5366004610dd2565b6104cb565b60405160128152602001610151565b61016d6101e7366004610d53565b6104ef565b6101906101fa366004610e0e565b610511565b61019061051e565b610196610215366004610db0565b6001600160a01b031660009081526020819052604090205490565b61019061023e366004610d53565b610570565b610190610251366004610e37565b610589565b6005546001600160a01b03165b6040516001600160a01b039091168152602001610151565b6101446105d3565b600754610263906001600160a01b031681565b61016d6102a4366004610d53565b6105e2565b61016d6102b7366004610d53565b61065d565b6101906102ca366004610e52565b61066b565b6101966102dd366004610e85565b61073f565b600654610263906001600160a01b031681565b60606003805461030490610eaf565b80601f016020809104026020016040519081016040528092919081815260200182805461033090610eaf565b801561037d5780601f106103525761010080835404028352916020019161037d565b820191906000526020600020905b81548152906001019060200180831161036057829003601f168201915b5050505050905090565b60003361039581858561076a565b60019150505b92915050565b6007546001600160a01b031633146103d357604051631fbe422f60e21b81523360048201526024015b60405180910390fd5b6103fc836103e2836012610eff565b6103ed90600a610ff6565b6103f79085611002565b61088e565b505050565b336104146005546001600160a01b031690565b6001600160a01b03161461043b5760405163a5653ae560e01b815260040160405180910390fd5b6001600160a01b038116610462576040516393a6823560e01b815260040160405180910390fd5b600754604080516001600160a01b03928316815291831660208301527f7ad173db0e26925c326a5ed86f309f4baef4bb36d8ee194d432e6cf0551cef24910160405180910390a1600780546001600160a01b0319166001600160a01b0392909216919091179055565b6000336104d985828561094d565b6104e48585856109c7565b506001949350505050565b600033610395818585610502838361073f565b61050c9190611019565b61076a565b61051b3382610b6b565b50565b6006546001600160a01b0316331461054957604051636afa1bbf60e11b815260040160405180910390fd5b60065461055e906001600160a01b0316610c9d565b600680546001600160a01b0319169055565b61057b82338361094d565b6105858282610b6b565b5050565b3361059c6005546001600160a01b031690565b6001600160a01b0316146105c35760405163a5653ae560e01b815260040160405180910390fd5b801561051b5761051b6000610c9d565b60606004805461030490610eaf565b600033816105f0828661073f565b9050838110156106505760405162461bcd60e51b815260206004820152602560248201527f45524332303a2064656372656173656420616c6c6f77616e63652062656c6f77604482015264207a65726f60d81b60648201526084016103ca565b6104e4828686840361076a565b6000336103958185856109c7565b3361067e6005546001600160a01b031690565b6001600160a01b0316146106a55760405163a5653ae560e01b815260040160405180910390fd5b6001600160a01b0382166106cc5760405163a5653ae560e01b815260040160405180910390fd5b801561071e576005546001600160a01b03908116908316036107015760405163d667803b60e01b815260040160405180910390fd5b61070a82610c9d565b600680546001600160a01b03191690555050565b600680546001600160a01b0384166001600160a01b03199091161790555050565b6001600160a01b03918216600090815260016020908152604080832093909416825291909152205490565b6001600160a01b0383166107cc5760405162461bcd60e51b8152602060048201526024808201527f45524332303a20617070726f76652066726f6d20746865207a65726f206164646044820152637265737360e01b60648201526084016103ca565b6001600160a01b03821661082d5760405162461bcd60e51b815260206004820152602260248201527f45524332303a20617070726f766520746f20746865207a65726f206164647265604482015261737360f01b60648201526084016103ca565b6001600160a01b0383811660008181526001602090815260408083209487168084529482529182902085905590518481527f8c5be1e5ebec7d5bd14f71427d1e84f3dd0314c0f7b2291e5b200ac8c7c3b925910160405180910390a3505050565b6001600160a01b0382166108e45760405162461bcd60e51b815260206004820152601f60248201527f45524332303a206d696e7420746f20746865207a65726f20616464726573730060448201526064016103ca565b80600260008282546108f69190611019565b90915550506001600160a01b038216600081815260208181526040808320805486019055518481527fddf252ad1be2c89b69c2b068fc378daa952ba7f163c4a11628f55a4df523b3ef910160405180910390a35050565b6000610959848461073f565b905060001981146109c157818110156109b45760405162461bcd60e51b815260206004820152601d60248201527f45524332303a20696e73756666696369656e7420616c6c6f77616e636500000060448201526064016103ca565b6109c1848484840361076a565b50505050565b6001600160a01b038316610a2b5760405162461bcd60e51b815260206004820152602560248201527f45524332303a207472616e736665722066726f6d20746865207a65726f206164604482015264647265737360d81b60648201526084016103ca565b6001600160a01b038216610a8d5760405162461bcd60e51b815260206004820152602360248201527f45524332303a207472616e7366657220746f20746865207a65726f206164647260448201526265737360e81b60648201526084016103ca565b6001600160a01b03831660009081526020819052604090205481811015610b055760405162461bcd60e51b815260206004820152602660248201527f45524332303a207472616e7366657220616d6f756e7420657863656564732062604482015265616c616e636560d01b60648201526084016103ca565b6001600160a01b03848116600081815260208181526040808320878703905593871680835291849020805487019055925185815290927fddf252ad1be2c89b69c2b068fc378daa952ba7f163c4a11628f55a4df523b3ef910160405180910390a36109c1565b6001600160a01b038216610bcb5760405162461bcd60e51b815260206004820152602160248201527f45524332303a206275726e2066726f6d20746865207a65726f206164647265736044820152607360f81b60648201526084016103ca565b6001600160a01b03821660009081526020819052604090205481811015610c3f5760405162461bcd60e51b815260206004820152602260248201527f45524332303a206275726e20616d6f756e7420657863656564732062616c616e604482015261636560f01b60648201526084016103ca565b6001600160a01b0383166000818152602081815260408083208686039055600280548790039055518581529192917fddf252ad1be2c89b69c2b068fc378daa952ba7f163c4a11628f55a4df523b3ef910160405180910390a3505050565b600580546001600160a01b0319166001600160a01b03831690811790915560405181907f8be0079c531659141344cd1fd0a4f28419497f9722a3daafe3b4186f6b6457e090600090a350565b600060208083528351808285015260005b81811015610d1657858101830151858201604001528201610cfa565b506000604082860101526040601f19601f8301168501019250505092915050565b80356001600160a01b0381168114610d4e57600080fd5b919050565b60008060408385031215610d6657600080fd5b610d6f83610d37565b946020939093013593505050565b600080600060608486031215610d9257600080fd5b610d9b84610d37565b95602085013595506040909401359392505050565b600060208284031215610dc257600080fd5b610dcb82610d37565b9392505050565b600080600060608486031215610de757600080fd5b610df084610d37565b9250610dfe60208501610d37565b9150604084013590509250925092565b600060208284031215610e2057600080fd5b5035919050565b80358015158114610d4e57600080fd5b600060208284031215610e4957600080fd5b610dcb82610e27565b60008060408385031215610e6557600080fd5b610e6e83610d37565b9150610e7c60208401610e27565b90509250929050565b60008060408385031215610e9857600080fd5b610ea183610d37565b9150610e7c60208401610d37565b600181811c90821680610ec357607f821691505b602082108103610ee357634e487b7160e01b600052602260045260246000fd5b50919050565b634e487b7160e01b600052601160045260246000fd5b8181038181111561039b5761039b610ee9565b600181815b80851115610f4d578160001904821115610f3357610f33610ee9565b80851615610f4057918102915b93841c9390800290610f17565b509250929050565b600082610f645750600161039b565b81610f715750600061039b565b8160018114610f875760028114610f9157610fad565b600191505061039b565b60ff841115610fa257610fa2610ee9565b50506001821b61039b565b5060208310610133831016604e8410600b8410161715610fd0575081810a61039b565b610fda8383610f12565b8060001904821115610fee57610fee610ee9565b029392505050565b6000610dcb8383610f55565b808202811582820484141761039b5761039b610ee9565b8082018082111561039b5761039b610ee956fea2646970667358221220e8942e3f5316a0da77625a0f5b6cbfcd3c2d572b610759e793eff25379d1365d64736f6c63430008110033",
  "linkReferences": {},
  "deployedLinkReferences": {}
}