{
  "_format": "hh-sol-artifact-1",
  "contractName": "EarthverseDeposit",
  "sourceName": "contracts/EarthverseDeposit.sol",
  "abi": [
    {
      "inputs": [
        {
          "internalType": "address",
          "name": "_nftd",
          "type": "address"
        },
        {
          "internalType": "address",
          "name": "_earthverseMarketplace",
          "type": "address"
        }
      ],
      "stateMutability": "nonpayable",
      "type": "constructor"
    },
    {
      "inputs": [
        {
          "internalType": "address",
          "name": "stablecoin",
          "type": "address"
        }
      ],
      "name": "EarthverseDeposit_AlreadyStablecoinAdded",
      "type": "error"
    },
    {
      "inputs": [],
      "name": "EarthverseDeposit_InvalidDepositAmount",
      "type": "error"
    },
    {
      "inputs": [],
      "name": "EarthverseDeposit_NoRETHWasMinted",
      "type": "error"
    },
    {
      "inputs": [],
      "name": "EarthverseDeposit_NotAdminRole",
      "type": "error"
    },
    {
      "inputs": [
        {
          "internalType": "address",
          "name": "stablecoin",
          "type": "address"
        }
      ],
      "name": "EarthverseDeposit_NotAvailableStablecoinForBuyNFTLand",
      "type": "error"
    },
    {
      "inputs": [],
      "name": "EarthverseDeposit_ZeroAddress",
      "type": "error"
    },
    {
      "anonymous": false,
      "inputs": [
        {
          "indexed": false,
          "internalType": "address",
          "name": "stablecoinAddress",
          "type": "address"
        }
      ],
      "name": "NewStablecoinAddressAdded",
      "type": "event"
    },
    {
      "anonymous": false,
      "inputs": [
        {
          "indexed": false,
          "internalType": "address",
          "name": "oldREthAddress",
          "type": "address"
        },
        {
          "indexed": false,
          "internalType": "address",
          "name": "newREthAddress",
          "type": "address"
        }
      ],
      "name": "REthAddressChanged",
      "type": "event"
    },
    {
      "anonymous": false,
      "inputs": [
        {
          "indexed": false,
          "internalType": "address",
          "name": "oldRocketPoolDepositAddress",
          "type": "address"
        },
        {
          "indexed": false,
          "internalType": "address",
          "name": "newRocketPoolDepositAddress",
          "type": "address"
        }
      ],
      "name": "RocketPoolDepositAddressChanged",
      "type": "event"
    },
    {
      "anonymous": false,
      "inputs": [
        {
          "indexed": true,
          "internalType": "bytes32",
          "name": "role",
          "type": "bytes32"
        },
        {
          "indexed": true,
          "internalType": "bytes32",
          "name": "previousAdminRole",
          "type": "bytes32"
        },
        {
          "indexed": true,
          "internalType": "bytes32",
          "name": "newAdminRole",
          "type": "bytes32"
        }
      ],
      "name": "RoleAdminChanged",
      "type": "event"
    },
    {
      "anonymous": false,
      "inputs": [
        {
          "indexed": true,
          "internalType": "bytes32",
          "name": "role",
          "type": "bytes32"
        },
        {
          "indexed": true,
          "internalType": "address",
          "name": "account",
          "type": "address"
        },
        {
          "indexed": true,
          "internalType": "address",
          "name": "sender",
          "type": "address"
        }
      ],
      "name": "RoleGranted",
      "type": "event"
    },
    {
      "anonymous": false,
      "inputs": [
        {
          "indexed": true,
          "internalType": "bytes32",
          "name": "role",
          "type": "bytes32"
        },
        {
          "indexed": true,
          "internalType": "address",
          "name": "account",
          "type": "address"
        },
        {
          "indexed": true,
          "internalType": "address",
          "name": "sender",
          "type": "address"
        }
      ],
      "name": "RoleRevoked",
      "type": "event"
    },
    {
      "anonymous": false,
      "inputs": [
        {
          "indexed": false,
          "internalType": "address",
          "name": "stablecoinAddress",
          "type": "address"
        }
      ],
      "name": "StablecoinAddressRemoved",
      "type": "event"
    },
    {
      "anonymous": false,
      "inputs": [
        {
          "indexed": true,
          "internalType": "address",
          "name": "sender",
          "type": "address"
        },
        {
          "indexed": true,
          "internalType": "uint256",
          "name": "amountOut",
          "type": "uint256"
        }
      ],
      "name": "StakedWEthAndReceivedNFTLand",
      "type": "event"
    },
    {
      "anonymous": false,
      "inputs": [
        {
          "indexed": false,
          "internalType": "address",
          "name": "oldWEthAddress",
          "type": "address"
        },
        {
          "indexed": false,
          "internalType": "address",
          "name": "newWEthAddress",
          "type": "address"
        }
      ],
      "name": "WEthAddressChanged",
      "type": "event"
    },
    {
      "stateMutability": "payable",
      "type": "fallback"
    },
    {
      "inputs": [],
      "name": "DEFAULT_ADMIN_ROLE",
      "outputs": [
        {
          "internalType": "bytes32",
          "name": "",
          "type": "bytes32"
        }
      ],
      "stateMutability": "view",
      "type": "function"
    },
    {
      "inputs": [],
      "name": "POOL_FEE",
      "outputs": [
        {
          "internalType": "uint24",
          "name": "",
          "type": "uint24"
        }
      ],
      "stateMutability": "view",
      "type": "function"
    },
    {
      "inputs": [
        {
          "internalType": "address",
          "name": "stablecoinAddress",
          "type": "address"
        }
      ],
      "name": "addNewStablecoinAddress",
      "outputs": [],
      "stateMutability": "nonpayable",
      "type": "function"
    },
    {
      "inputs": [
        {
          "internalType": "address",
          "name": "",
          "type": "address"
        }
      ],
      "name": "availableStablecoins",
      "outputs": [
        {
          "internalType": "bool",
          "name": "",
          "type": "bool"
        }
      ],
      "stateMutability": "view",
      "type": "function"
    },
    {
      "inputs": [
        {
          "internalType": "address",
          "name": "",
          "type": "address"
        }
      ],
      "name": "balances",
      "outputs": [
        {
          "internalType": "uint256",
          "name": "",
          "type": "uint256"
        }
      ],
      "stateMutability": "view",
      "type": "function"
    },
    {
      "inputs": [
        {
          "internalType": "address",
          "name": "tokenIn",
          "type": "address"
        },
        {
          "internalType": "uint256",
          "name": "amountIn",
          "type": "uint256"
        },
        {
          "internalType": "uint256",
          "name": "nftLandId",
          "type": "uint256"
        },
        {
          "internalType": "uint256",
          "name": "decimalsOfInput",
          "type": "uint256"
        }
      ],
      "name": "depositRPAndSendNFTLand",
      "outputs": [
        {
          "internalType": "uint256",
          "name": "amountOut",
          "type": "uint256"
        }
      ],
      "stateMutability": "nonpayable",
      "type": "function"
    },
    {
      "inputs": [],
      "name": "earthverseMarketplace",
      "outputs": [
        {
          "internalType": "address",
          "name": "",
          "type": "address"
        }
      ],
      "stateMutability": "view",
      "type": "function"
    },
    {
      "inputs": [
        {
          "internalType": "bytes32",
          "name": "role",
          "type": "bytes32"
        }
      ],
      "name": "getRoleAdmin",
      "outputs": [
        {
          "internalType": "bytes32",
          "name": "",
          "type": "bytes32"
        }
      ],
      "stateMutability": "view",
      "type": "function"
    },
    {
      "inputs": [
        {
          "internalType": "bytes32",
          "name": "role",
          "type": "bytes32"
        },
        {
          "internalType": "address",
          "name": "account",
          "type": "address"
        }
      ],
      "name": "grantRole",
      "outputs": [],
      "stateMutability": "nonpayable",
      "type": "function"
    },
    {
      "inputs": [
        {
          "internalType": "bytes32",
          "name": "role",
          "type": "bytes32"
        },
        {
          "internalType": "address",
          "name": "account",
          "type": "address"
        }
      ],
      "name": "hasRole",
      "outputs": [
        {
          "internalType": "bool",
          "name": "",
          "type": "bool"
        }
      ],
      "stateMutability": "view",
      "type": "function"
    },
    {
      "inputs": [],
      "name": "nftd",
      "outputs": [
        {
          "internalType": "address",
          "name": "",
          "type": "address"
        }
      ],
      "stateMutability": "view",
      "type": "function"
    },
    {
      "inputs": [],
      "name": "rEth",
      "outputs": [
        {
          "internalType": "address",
          "name": "",
          "type": "address"
        }
      ],
      "stateMutability": "view",
      "type": "function"
    },
    {
      "inputs": [
        {
          "internalType": "address",
          "name": "stablecoinAddress",
          "type": "address"
        }
      ],
      "name": "removeStablecoinAddress",
      "outputs": [],
      "stateMutability": "nonpayable",
      "type": "function"
    },
    {
      "inputs": [
        {
          "internalType": "bytes32",
          "name": "role",
          "type": "bytes32"
        },
        {
          "internalType": "address",
          "name": "account",
          "type": "address"
        }
      ],
      "name": "renounceRole",
      "outputs": [],
      "stateMutability": "nonpayable",
      "type": "function"
    },
    {
      "inputs": [
        {
          "internalType": "bytes32",
          "name": "role",
          "type": "bytes32"
        },
        {
          "internalType": "address",
          "name": "account",
          "type": "address"
        }
      ],
      "name": "revokeRole",
      "outputs": [],
      "stateMutability": "nonpayable",
      "type": "function"
    },
    {
      "inputs": [],
      "name": "rocketPoolDeposit",
      "outputs": [
        {
          "internalType": "address",
          "name": "",
          "type": "address"
        }
      ],
      "stateMutability": "view",
      "type": "function"
    },
    {
      "inputs": [
        {
          "internalType": "address",
          "name": "newREthAddress",
          "type": "address"
        }
      ],
      "name": "setNewREthAddress",
      "outputs": [],
      "stateMutability": "nonpayable",
      "type": "function"
    },
    {
      "inputs": [
        {
          "internalType": "address",
          "name": "newRocketPoolDepositAddress",
          "type": "address"
        }
      ],
      "name": "setNewRocketPoolDepositAddress",
      "outputs": [],
      "stateMutability": "nonpayable",
      "type": "function"
    },
    {
      "inputs": [
        {
          "internalType": "address",
          "name": "newWEthAddress",
          "type": "address"
        }
      ],
      "name": "setNewWEthAddress",
      "outputs": [],
      "stateMutability": "nonpayable",
      "type": "function"
    },
    {
      "inputs": [
        {
          "internalType": "bytes4",
          "name": "interfaceId",
          "type": "bytes4"
        }
      ],
      "name": "supportsInterface",
      "outputs": [
        {
          "internalType": "bool",
          "name": "",
          "type": "bool"
        }
      ],
      "stateMutability": "view",
      "type": "function"
    },
    {
      "inputs": [],
      "name": "swapRouter",
      "outputs": [
        {
          "internalType": "contract ISwapRouter",
          "name": "",
          "type": "address"
        }
      ],
      "stateMutability": "view",
      "type": "function"
    },
    {
      "inputs": [],
      "name": "wEth",
      "outputs": [
        {
          "internalType": "address",
          "name": "",
          "type": "address"
        }
      ],
      "stateMutability": "view",
      "type": "function"
    },
    {
      "stateMutability": "payable",
      "type": "receive"
    }
  ],
  "bytecode": "0x60e06040523480156200001157600080fd5b5060405162001a2738038062001a27833981016040819052620000349162000280565b6001600160a01b03821615806200005257506001600160a01b038116155b15620000715760405163e464451160e01b815260040160405180910390fd5b6200007e600033620001b3565b600180546001600160a01b031990811673b4fbf271143f4fbf7b91a5ded31805e42b2208d617825560028054821673178e141a0e3b34152f73ff610437a7bf9b83267a17905560038054909116732cac916b2a963bf162f076c0a8a4a8200bcfbfb41790556001600160a01b03928316608052911660a05273e592427a0aece92de3edee1f18e0157c0586156460c05260056020527fcefc2199e904350fd546b30571468de63d921031009f9a7b9ab1205231ce6ad3805460ff1990811683179091557f1d6bc42546486c8f71b9cf7d9956e915d38c748f56c376f0ea2a4a9a8168595380548216831790557307865c6e87b9f70255377e024ace6630c1eaa37f6000527f4057a4bd44e97a5e91ff5d9f4141740365666fa04241efa5e57bc68ce007c21a80549091169091179055620002b8565b620001bf8282620001c3565b5050565b6000828152602081815260408083206001600160a01b038516845290915290205460ff16620001bf576000828152602081815260408083206001600160a01b03851684529091529020805460ff191660011790556200021f3390565b6001600160a01b0316816001600160a01b0316837f2f8788117e7eff1d82e926ec794901d17c78024a50270940304540a733656f0d60405160405180910390a45050565b80516001600160a01b03811681146200027b57600080fd5b919050565b600080604083850312156200029457600080fd5b6200029f8362000263565b9150620002af6020840162000263565b90509250929050565b60805160a05160c051611723620003046000396000818161039901528181610edb0152610fa701526000818161045701526109ca0152600081816102c00152610a6701526117236000f3fe60806040526004361061012d5760003560e01c806387479a9b116100a5578063d547741f1161006c578063d547741f146103bb578063dd1b9c4a146103db578063df6d921214610405578063f559574614610425578063fa0d060314610445578063fa19dc071461047957005b806387479a9b1461030257806391d148541461033257806394636cf014610352578063a217fddf14610372578063c31c9c071461038757005b806336568abe116100f457806336568abe1461022e57806338e822711461024e57806364b725071461026e5780637c8b45ae1461028e57806385b82998146102ae57806386f870a2146102e257005b806301ffc9a714610136578063169069601461016b578063248a9ca3146101a357806327e235e3146101e15780632f2ff15d1461020e57005b3661013457005b005b34801561014257600080fd5b50610156610151366004611437565b610499565b60405190151581526020015b60405180910390f35b34801561017757600080fd5b5060035461018b906001600160a01b031681565b6040516001600160a01b039091168152602001610162565b3480156101af57600080fd5b506101d36101be366004611461565b60009081526020819052604090206001015490565b604051908152602001610162565b3480156101ed57600080fd5b506101d36101fc36600461148f565b60046020526000908152604090205481565b34801561021a57600080fd5b506101346102293660046114ac565b6104d0565b34801561023a57600080fd5b506101346102493660046114ac565b6104fa565b34801561025a57600080fd5b5061013461026936600461148f565b61057d565b34801561027a57600080fd5b5061013461028936600461148f565b610637565b34801561029a57600080fd5b506101346102a936600461148f565b610728565b3480156102ba57600080fd5b5061018b7f000000000000000000000000000000000000000000000000000000000000000081565b3480156102ee57600080fd5b506101346102fd36600461148f565b6107e2565b34801561030e57600080fd5b5061015661031d36600461148f565b60056020526000908152604090205460ff1681565b34801561033e57600080fd5b5061015661034d3660046114ac565b61089c565b34801561035e57600080fd5b506101d361036d3660046114dc565b6108c5565b34801561037e57600080fd5b506101d3600081565b34801561039357600080fd5b5061018b7f000000000000000000000000000000000000000000000000000000000000000081565b3480156103c757600080fd5b506101346103d63660046114ac565b610d0b565b3480156103e757600080fd5b506103f1610bb881565b60405162ffffff9091168152602001610162565b34801561041157600080fd5b5060015461018b906001600160a01b031681565b34801561043157600080fd5b5060025461018b906001600160a01b031681565b34801561045157600080fd5b5061018b7f000000000000000000000000000000000000000000000000000000000000000081565b34801561048557600080fd5b5061013461049436600461148f565b610d30565b60006001600160e01b03198216637965db0b60e01b14806104ca57506301ffc9a760e01b6001600160e01b03198316145b92915050565b6000828152602081905260409020600101546104eb81610dd1565b6104f58383610dde565b505050565b6001600160a01b038116331461056f5760405162461bcd60e51b815260206004820152602f60248201527f416363657373436f6e74726f6c3a2063616e206f6e6c792072656e6f756e636560448201526e103937b632b9903337b91039b2b63360891b60648201526084015b60405180910390fd5b6105798282610e62565b5050565b806001600160a01b0381166105a55760405163e464451160e01b815260040160405180910390fd5b6105b060003361089c565b6105cd5760405163a55d1b9160e01b815260040160405180910390fd5b600354604080516001600160a01b03928316815291841660208301527fc4722aedb7e14c03fe351d925a847f242527a1079c1390e9c8c355be18493fd8910160405180910390a150600380546001600160a01b0319166001600160a01b0392909216919091179055565b806001600160a01b03811661065f5760405163e464451160e01b815260040160405180910390fd5b61066a60003361089c565b6106875760405163a55d1b9160e01b815260040160405180910390fd5b6001600160a01b03821660009081526005602052604090205460ff16156106cc57604051630401b05f60e31b81526001600160a01b0383166004820152602401610566565b6001600160a01b038216600081815260056020908152604091829020805460ff1916600117905590519182527fd3fd5514d8d38737937e026d07c3e8fd002f28a6df2f95c0dc46a71c1d69f29091015b60405180910390a15050565b806001600160a01b0381166107505760405163e464451160e01b815260040160405180910390fd5b61075b60003361089c565b6107785760405163a55d1b9160e01b815260040160405180910390fd5b600254604080516001600160a01b03928316815291841660208301527fc9f31771c671187e4ab48197590b7d13f81a8519b35c03fced410c7b504435da910160405180910390a150600280546001600160a01b0319166001600160a01b0392909216919091179055565b806001600160a01b03811661080a5760405163e464451160e01b815260040160405180910390fd5b61081560003361089c565b6108325760405163a55d1b9160e01b815260040160405180910390fd5b600154604080516001600160a01b03928316815291841660208301527f1eec9a3a647adc7a929db43a3a812f44dfdc1ac62e59441fcaffceb5b8a36743910160405180910390a150600180546001600160a01b0319166001600160a01b0392909216919091179055565b6000918252602082815260408084206001600160a01b0393909316845291905290205460ff1690565b600354600090600160a01b900460ff16156109135760405162461bcd60e51b815260206004820152600e60248201526d4e6f2072652d656e7472616e637960901b6044820152606401610566565b6003805460ff60a01b1916600160a01b179055836109445760405163ab706e1d60e01b815260040160405180910390fd5b6001600160a01b03851660009081526005602052604090205460ff16610988576040516301c5a60d60e11b81526001600160a01b0386166004820152602401610566565b6109928486610ec7565b604051634ad0104f60e11b81523360048201526024810185905260448101869052606481018490529091506000906001600160a01b037f000000000000000000000000000000000000000000000000000000000000000016906395a0209e906084016020604051808303816000875af1158015610a13573d6000803e3d6000fd5b505050506040513d601f19601f82011682018060405250810190610a379190611517565b604051630ab714fb60e11b81526001600160a01b03808316600483015260248201889052604482018690529192507f00000000000000000000000000000000000000000000000000000000000000009091169063156e29f690606401600060405180830381600087803b158015610aad57600080fd5b505af1158015610ac1573d6000803e3d6000fd5b5050600154604051632e1a7d4d60e01b8152600481018690526001600160a01b039091169250632e1a7d4d9150602401600060405180830381600087803b158015610b0b57600080fd5b505af1158015610b1f573d6000803e3d6000fd5b50506002546040516370a0823160e01b8152306004820152600093506001600160a01b0390911691506370a0823190602401602060405180830381865afa158015610b6e573d6000803e3d6000fd5b505050506040513d601f19601f82011682018060405250810190610b929190611534565b9050600360009054906101000a90046001600160a01b03166001600160a01b031663d0e30db0846040518263ffffffff1660e01b81526004016000604051808303818588803b158015610be457600080fd5b505af1158015610bf8573d6000803e3d6000fd5b50506002546040516370a0823160e01b8152306004820152600094506001600160a01b0390911692506370a082319150602401602060405180830381865afa158015610c48573d6000803e3d6000fd5b505050506040513d601f19601f82011682018060405250810190610c6c9190611534565b905081811015610c8f576040516303836e6d60e61b815260040160405180910390fd5b6000610c9b8383611563565b33600090815260046020526040812080549293508392909190610cbf908490611576565b9091555050604051859033907f4d1fa912f36984bc4723a598f38ddfbaad68ace90c349061c0d6ebb25ca3f67490600090a350506003805460ff60a01b19169055509095945050505050565b600082815260208190526040902060010154610d2681610dd1565b6104f58383610e62565b806001600160a01b038116610d585760405163e464451160e01b815260040160405180910390fd5b610d6360003361089c565b610d805760405163a55d1b9160e01b815260040160405180910390fd5b6001600160a01b038216600081815260056020908152604091829020805460ff1916905590519182527f88e26bc6bef7637bfd9b65be229bfdec9813454ad0bee72203006a540dadfd54910161071c565b610ddb813361101f565b50565b610de8828261089c565b610579576000828152602081815260408083206001600160a01b03851684529091529020805460ff19166001179055610e1e3390565b6001600160a01b0316816001600160a01b0316837f2f8788117e7eff1d82e926ec794901d17c78024a50270940304540a733656f0d60405160405180910390a45050565b610e6c828261089c565b15610579576000828152602081815260408083206001600160a01b0385168085529252808320805460ff1916905551339285917ff6391f5c32d9c69d2a47ea670b442974b53935d1edc7fd64eb21e047a839171b9190a45050565b6000610ed582333086611078565b610f00827f000000000000000000000000000000000000000000000000000000000000000085611182565b60408051610100810182526001600160a01b038481168252600154811660208301908152610bb88385019081523060608501908152426080860190815260a086018a8152600060c0880181815260e08901918252985163414bf38960e01b8152885188166004820152955187166024870152935162ffffff1660448601529151851660648501525160848401525160a4830152935160c48201529251811660e484015290917f00000000000000000000000000000000000000000000000000000000000000009091169063414bf38990610104016020604051808303816000875af1158015610ff3573d6000803e3d6000fd5b505050506040513d601f19601f820116820180604052508101906110179190611534565b949350505050565b611029828261089c565b6105795761103681611282565b611041836020611294565b6040516020016110529291906115ad565b60408051601f198184030181529082905262461bcd60e51b825261056691600401611622565b604080516001600160a01b0385811660248301528481166044830152606480830185905283518084039091018152608490920183526020820180516001600160e01b03166323b872dd60e01b17905291516000928392908816916110dc9190611655565b6000604051808303816000865af19150503d8060008114611119576040519150601f19603f3d011682016040523d82523d6000602084013e61111e565b606091505b50915091508180156111485750805115806111485750808060200190518101906111489190611671565b61117a5760405162461bcd60e51b815260206004820152600360248201526229aa2360e91b6044820152606401610566565b505050505050565b604080516001600160a01b038481166024830152604480830185905283518084039091018152606490920183526020820180516001600160e01b031663095ea7b360e01b17905291516000928392908716916111de9190611655565b6000604051808303816000865af19150503d806000811461121b576040519150601f19603f3d011682016040523d82523d6000602084013e611220565b606091505b509150915081801561124a57508051158061124a57508080602001905181019061124a9190611671565b61127b5760405162461bcd60e51b8152602060048201526002602482015261534160f01b6044820152606401610566565b5050505050565b60606104ca6001600160a01b03831660145b606060006112a3836002611693565b6112ae906002611576565b67ffffffffffffffff8111156112c6576112c66116aa565b6040519080825280601f01601f1916602001820160405280156112f0576020820181803683370190505b509050600360fc1b8160008151811061130b5761130b6116c0565b60200101906001600160f81b031916908160001a905350600f60fb1b8160018151811061133a5761133a6116c0565b60200101906001600160f81b031916908160001a905350600061135e846002611693565b611369906001611576565b90505b60018111156113e1576f181899199a1a9b1b9c1cb0b131b232b360811b85600f166010811061139d5761139d6116c0565b1a60f81b8282815181106113b3576113b36116c0565b60200101906001600160f81b031916908160001a90535060049490941c936113da816116d6565b905061136c565b5083156114305760405162461bcd60e51b815260206004820181905260248201527f537472696e67733a20686578206c656e67746820696e73756666696369656e746044820152606401610566565b9392505050565b60006020828403121561144957600080fd5b81356001600160e01b03198116811461143057600080fd5b60006020828403121561147357600080fd5b5035919050565b6001600160a01b0381168114610ddb57600080fd5b6000602082840312156114a157600080fd5b81356114308161147a565b600080604083850312156114bf57600080fd5b8235915060208301356114d18161147a565b809150509250929050565b600080600080608085870312156114f257600080fd5b84356114fd8161147a565b966020860135965060408601359560600135945092505050565b60006020828403121561152957600080fd5b81516114308161147a565b60006020828403121561154657600080fd5b5051919050565b634e487b7160e01b600052601160045260246000fd5b818103818111156104ca576104ca61154d565b808201808211156104ca576104ca61154d565b60005b838110156115a457818101518382015260200161158c565b50506000910152565b7f416363657373436f6e74726f6c3a206163636f756e74200000000000000000008152600083516115e5816017850160208801611589565b7001034b99036b4b9b9b4b733903937b6329607d1b6017918401918201528351611616816028840160208801611589565b01602801949350505050565b6020815260008251806020840152611641816040850160208701611589565b601f01601f19169190910160400192915050565b60008251611667818460208701611589565b9190910192915050565b60006020828403121561168357600080fd5b8151801515811461143057600080fd5b80820281158282048414176104ca576104ca61154d565b634e487b7160e01b600052604160045260246000fd5b634e487b7160e01b600052603260045260246000fd5b6000816116e5576116e561154d565b50600019019056fea264697066735822122060d4f3f2b20420e1c4845f66ee403758c8734f58d16a924dd229500be018096e64736f6c63430008110033",
  "linkReferences": {},
  "deployedLinkReferences": {}
}