{
  "_format": "hh-sol-artifact-1",
  "contractName": "EarthverseDeposit",
  "sourceName": "contracts/EarthverseDeposit.sol",
  "abi": [
    {
      "inputs": [
        {
          "internalType": "address",
          "name": "_nftd",
          "type": "address"
        },
        {
          "internalType": "address",
          "name": "_earthverseMarketplace",
          "type": "address"
        }
      ],
      "stateMutability": "nonpayable",
      "type": "constructor"
    },
    {
      "inputs": [
        {
          "internalType": "address",
          "name": "stablecoin",
          "type": "address"
        }
      ],
      "name": "EarthverseDeposit_AlreadyStablecoinAdded",
      "type": "error"
    },
    {
      "inputs": [],
      "name": "EarthverseDeposit_InvalidDepositAmount",
      "type": "error"
    },
    {
      "inputs": [],
      "name": "EarthverseDeposit_NoRETHWasMinted",
      "type": "error"
    },
    {
      "inputs": [
        {
          "internalType": "address",
          "name": "stablecoin",
          "type": "address"
        }
      ],
      "name": "EarthverseDeposit_NotAvailableStablecoinForBuyNFTLand",
      "type": "error"
    },
    {
      "inputs": [],
      "name": "EarthverseDeposit_NotStablecoinAdderRole",
      "type": "error"
    },
    {
      "inputs": [],
      "name": "EarthverseDeposit_ZeroAddress",
      "type": "error"
    },
    {
      "anonymous": false,
      "inputs": [
        {
          "indexed": false,
          "internalType": "address",
          "name": "stablecoinAddress",
          "type": "address"
        }
      ],
      "name": "NewStablecoinAddressAdded",
      "type": "event"
    },
    {
      "anonymous": false,
      "inputs": [
        {
          "indexed": true,
          "internalType": "bytes32",
          "name": "role",
          "type": "bytes32"
        },
        {
          "indexed": true,
          "internalType": "bytes32",
          "name": "previousAdminRole",
          "type": "bytes32"
        },
        {
          "indexed": true,
          "internalType": "bytes32",
          "name": "newAdminRole",
          "type": "bytes32"
        }
      ],
      "name": "RoleAdminChanged",
      "type": "event"
    },
    {
      "anonymous": false,
      "inputs": [
        {
          "indexed": true,
          "internalType": "bytes32",
          "name": "role",
          "type": "bytes32"
        },
        {
          "indexed": true,
          "internalType": "address",
          "name": "account",
          "type": "address"
        },
        {
          "indexed": true,
          "internalType": "address",
          "name": "sender",
          "type": "address"
        }
      ],
      "name": "RoleGranted",
      "type": "event"
    },
    {
      "anonymous": false,
      "inputs": [
        {
          "indexed": true,
          "internalType": "bytes32",
          "name": "role",
          "type": "bytes32"
        },
        {
          "indexed": true,
          "internalType": "address",
          "name": "account",
          "type": "address"
        },
        {
          "indexed": true,
          "internalType": "address",
          "name": "sender",
          "type": "address"
        }
      ],
      "name": "RoleRevoked",
      "type": "event"
    },
    {
      "anonymous": false,
      "inputs": [
        {
          "indexed": false,
          "internalType": "address",
          "name": "stablecoinAddress",
          "type": "address"
        }
      ],
      "name": "StablecoinAddressRemoved",
      "type": "event"
    },
    {
      "anonymous": false,
      "inputs": [
        {
          "indexed": true,
          "internalType": "address",
          "name": "sender",
          "type": "address"
        },
        {
          "indexed": true,
          "internalType": "uint256",
          "name": "amountOut",
          "type": "uint256"
        }
      ],
      "name": "StakedAndReceivedNFTLand",
      "type": "event"
    },
    {
      "stateMutability": "payable",
      "type": "fallback"
    },
    {
      "inputs": [],
      "name": "ADDER_STABLECOIN_ROLE",
      "outputs": [
        {
          "internalType": "bytes32",
          "name": "",
          "type": "bytes32"
        }
      ],
      "stateMutability": "view",
      "type": "function"
    },
    {
      "inputs": [],
      "name": "DEFAULT_ADMIN_ROLE",
      "outputs": [
        {
          "internalType": "bytes32",
          "name": "",
          "type": "bytes32"
        }
      ],
      "stateMutability": "view",
      "type": "function"
    },
    {
      "inputs": [],
      "name": "POOL_FEE",
      "outputs": [
        {
          "internalType": "uint24",
          "name": "",
          "type": "uint24"
        }
      ],
      "stateMutability": "view",
      "type": "function"
    },
    {
      "inputs": [],
      "name": "RETH",
      "outputs": [
        {
          "internalType": "address",
          "name": "",
          "type": "address"
        }
      ],
      "stateMutability": "view",
      "type": "function"
    },
    {
      "inputs": [],
      "name": "ROCKET_POOL_DEPOSIT",
      "outputs": [
        {
          "internalType": "address",
          "name": "",
          "type": "address"
        }
      ],
      "stateMutability": "view",
      "type": "function"
    },
    {
      "inputs": [],
      "name": "WETH",
      "outputs": [
        {
          "internalType": "address",
          "name": "",
          "type": "address"
        }
      ],
      "stateMutability": "view",
      "type": "function"
    },
    {
      "inputs": [
        {
          "internalType": "address",
          "name": "stablecoinAddress",
          "type": "address"
        }
      ],
      "name": "addNewStablecoinAddress",
      "outputs": [],
      "stateMutability": "nonpayable",
      "type": "function"
    },
    {
      "inputs": [
        {
          "internalType": "address",
          "name": "",
          "type": "address"
        }
      ],
      "name": "availableStablecoins",
      "outputs": [
        {
          "internalType": "bool",
          "name": "",
          "type": "bool"
        }
      ],
      "stateMutability": "view",
      "type": "function"
    },
    {
      "inputs": [
        {
          "internalType": "address",
          "name": "",
          "type": "address"
        }
      ],
      "name": "balances",
      "outputs": [
        {
          "internalType": "uint256",
          "name": "",
          "type": "uint256"
        }
      ],
      "stateMutability": "view",
      "type": "function"
    },
    {
      "inputs": [
        {
          "internalType": "address",
          "name": "tokenIn",
          "type": "address"
        },
        {
          "internalType": "uint256",
          "name": "amountIn",
          "type": "uint256"
        },
        {
          "internalType": "uint256",
          "name": "nftLandId",
          "type": "uint256"
        },
        {
          "internalType": "uint256",
          "name": "decimalsOfInput",
          "type": "uint256"
        }
      ],
      "name": "depositRPAndSendNFTLand",
      "outputs": [
        {
          "internalType": "uint256",
          "name": "amountOut",
          "type": "uint256"
        }
      ],
      "stateMutability": "nonpayable",
      "type": "function"
    },
    {
      "inputs": [],
      "name": "earthverseMarketplace",
      "outputs": [
        {
          "internalType": "address",
          "name": "",
          "type": "address"
        }
      ],
      "stateMutability": "view",
      "type": "function"
    },
    {
      "inputs": [
        {
          "internalType": "bytes32",
          "name": "role",
          "type": "bytes32"
        }
      ],
      "name": "getRoleAdmin",
      "outputs": [
        {
          "internalType": "bytes32",
          "name": "",
          "type": "bytes32"
        }
      ],
      "stateMutability": "view",
      "type": "function"
    },
    {
      "inputs": [
        {
          "internalType": "bytes32",
          "name": "role",
          "type": "bytes32"
        },
        {
          "internalType": "address",
          "name": "account",
          "type": "address"
        }
      ],
      "name": "grantRole",
      "outputs": [],
      "stateMutability": "nonpayable",
      "type": "function"
    },
    {
      "inputs": [
        {
          "internalType": "bytes32",
          "name": "role",
          "type": "bytes32"
        },
        {
          "internalType": "address",
          "name": "account",
          "type": "address"
        }
      ],
      "name": "hasRole",
      "outputs": [
        {
          "internalType": "bool",
          "name": "",
          "type": "bool"
        }
      ],
      "stateMutability": "view",
      "type": "function"
    },
    {
      "inputs": [],
      "name": "nftd",
      "outputs": [
        {
          "internalType": "address",
          "name": "",
          "type": "address"
        }
      ],
      "stateMutability": "view",
      "type": "function"
    },
    {
      "inputs": [
        {
          "internalType": "address",
          "name": "stablecoinAddress",
          "type": "address"
        }
      ],
      "name": "removeStablecoinAddress",
      "outputs": [],
      "stateMutability": "nonpayable",
      "type": "function"
    },
    {
      "inputs": [
        {
          "internalType": "bytes32",
          "name": "role",
          "type": "bytes32"
        },
        {
          "internalType": "address",
          "name": "account",
          "type": "address"
        }
      ],
      "name": "renounceRole",
      "outputs": [],
      "stateMutability": "nonpayable",
      "type": "function"
    },
    {
      "inputs": [
        {
          "internalType": "bytes32",
          "name": "role",
          "type": "bytes32"
        },
        {
          "internalType": "address",
          "name": "account",
          "type": "address"
        }
      ],
      "name": "revokeRole",
      "outputs": [],
      "stateMutability": "nonpayable",
      "type": "function"
    },
    {
      "inputs": [
        {
          "internalType": "bytes4",
          "name": "interfaceId",
          "type": "bytes4"
        }
      ],
      "name": "supportsInterface",
      "outputs": [
        {
          "internalType": "bool",
          "name": "",
          "type": "bool"
        }
      ],
      "stateMutability": "view",
      "type": "function"
    },
    {
      "inputs": [],
      "name": "swapRouter",
      "outputs": [
        {
          "internalType": "contract ISwapRouter",
          "name": "",
          "type": "address"
        }
      ],
      "stateMutability": "view",
      "type": "function"
    },
    {
      "stateMutability": "payable",
      "type": "receive"
    }
  ],
  "bytecode": "0x60e06040523480156200001157600080fd5b50604051620017653803806200176583398101604081905262000034916200021f565b6001600160a01b03821615806200005257506001600160a01b038116155b15620000715760405163e464451160e01b815260040160405180910390fd5b6200007e60003362000152565b620000aa7f4341d0255cf8de0fa9a36829221c28fe13c7d7b36de3957b92d9dd74a1e6fc363362000152565b6001600160a01b039182166080521660a05273e592427a0aece92de3edee1f18e0157c0586156460c05260026020527f02d595517b9735c34fbe6aecd967d335dcc4b0faa313ccf39a1e7daa07eca6938054600160ff1991821681179092557307865c6e87b9f70255377e024ace6630c1eaa37f6000527f235fa5e7c7148162da162edcaf0328210fc466b10ee308b8e1373c142617d78c8054909116909117905562000257565b6200015e828262000162565b5050565b6000828152602081815260408083206001600160a01b038516845290915290205460ff166200015e576000828152602081815260408083206001600160a01b03851684529091529020805460ff19166001179055620001be3390565b6001600160a01b0316816001600160a01b0316837f2f8788117e7eff1d82e926ec794901d17c78024a50270940304540a733656f0d60405160405180910390a45050565b80516001600160a01b03811681146200021a57600080fd5b919050565b600080604083850312156200023357600080fd5b6200023e8362000202565b91506200024e6020840162000202565b90509250929050565b60805160a05160c0516114c2620002a3600039600081816103af01528181610c6a0152610d4601526000818161042d01526107340152600081816102ce01526107d101526114c26000f3fe6080604052600436106101175760003560e01c806387479a9b1161009a578063c31c9c0711610061578063c31c9c071461039d578063d547741f146103d1578063dd1b9c4a146103f1578063fa0d06031461041b578063fa19dc071461044f57005b806387479a9b146102f057806391d148541461032057806394636cf014610340578063a217fddf14610360578063ad5c46481461037557005b806336568abe116100de57806336568abe1461022057806364b72507146102405780636f38efd8146102605780638265b1211461029457806385b82998146102bc57005b806301ffc9a71461012057806315ae1dc214610155578063248a9ca31461019557806327e235e3146101d35780632f2ff15d1461020057005b3661011e57005b005b34801561012c57600080fd5b5061014061013b3660046111d6565b61046f565b60405190151581526020015b60405180910390f35b34801561016157600080fd5b5061017d732cac916b2a963bf162f076c0a8a4a8200bcfbfb481565b6040516001600160a01b03909116815260200161014c565b3480156101a157600080fd5b506101c56101b0366004611200565b60009081526020819052604090206001015490565b60405190815260200161014c565b3480156101df57600080fd5b506101c56101ee36600461122e565b60016020526000908152604090205481565b34801561020c57600080fd5b5061011e61021b36600461124b565b6104a6565b34801561022c57600080fd5b5061011e61023b36600461124b565b6104d0565b34801561024c57600080fd5b5061011e61025b36600461122e565b610553565b34801561026c57600080fd5b506101c57f4341d0255cf8de0fa9a36829221c28fe13c7d7b36de3957b92d9dd74a1e6fc3681565b3480156102a057600080fd5b5061017d73178e141a0e3b34152f73ff610437a7bf9b83267a81565b3480156102c857600080fd5b5061017d7f000000000000000000000000000000000000000000000000000000000000000081565b3480156102fc57600080fd5b5061014061030b36600461122e565b60026020526000908152604090205460ff1681565b34801561032c57600080fd5b5061014061033b36600461124b565b610663565b34801561034c57600080fd5b506101c561035b36600461127b565b61068c565b34801561036c57600080fd5b506101c5600081565b34801561038157600080fd5b5061017d73b4fbf271143f4fbf7b91a5ded31805e42b2208d681565b3480156103a957600080fd5b5061017d7f000000000000000000000000000000000000000000000000000000000000000081565b3480156103dd57600080fd5b5061011e6103ec36600461124b565b610a7b565b3480156103fd57600080fd5b50610407610bb881565b60405162ffffff909116815260200161014c565b34801561042757600080fd5b5061017d7f000000000000000000000000000000000000000000000000000000000000000081565b34801561045b57600080fd5b5061011e61046a36600461122e565b610aa0565b60006001600160e01b03198216637965db0b60e01b14806104a057506301ffc9a760e01b6001600160e01b03198316145b92915050565b6000828152602081905260409020600101546104c181610b60565b6104cb8383610b6d565b505050565b6001600160a01b03811633146105455760405162461bcd60e51b815260206004820152602f60248201527f416363657373436f6e74726f6c3a2063616e206f6e6c792072656e6f756e636560448201526e103937b632b9903337b91039b2b63360891b60648201526084015b60405180910390fd5b61054f8282610bf1565b5050565b806001600160a01b03811661057b5760405163e464451160e01b815260040160405180910390fd5b6105a57f4341d0255cf8de0fa9a36829221c28fe13c7d7b36de3957b92d9dd74a1e6fc3633610663565b6105c257604051631855bb5b60e01b815260040160405180910390fd5b6001600160a01b03821660009081526002602052604090205460ff161561060757604051630401b05f60e31b81526001600160a01b038316600482015260240161053c565b6001600160a01b038216600081815260026020908152604091829020805460ff1916600117905590519182527fd3fd5514d8d38737937e026d07c3e8fd002f28a6df2f95c0dc46a71c1d69f29091015b60405180910390a15050565b6000918252602082815260408084206001600160a01b0393909316845291905290205460ff1690565b60008084116106ae5760405163ab706e1d60e01b815260040160405180910390fd5b6001600160a01b03851660009081526002602052604090205460ff166106f2576040516301c5a60d60e11b81526001600160a01b038616600482015260240161053c565b6106fc8486610c56565b604051634ad0104f60e11b81523360048201526024810185905260448101869052606481018490529091506000906001600160a01b037f000000000000000000000000000000000000000000000000000000000000000016906395a0209e906084016020604051808303816000875af115801561077d573d6000803e3d6000fd5b505050506040513d601f19601f820116820180604052508101906107a191906112b6565b604051630ab714fb60e11b81526001600160a01b03808316600483015260248201889052604482018690529192507f00000000000000000000000000000000000000000000000000000000000000009091169063156e29f690606401600060405180830381600087803b15801561081757600080fd5b505af115801561082b573d6000803e3d6000fd5b5050604051632e1a7d4d60e01b81526004810185905273b4fbf271143f4fbf7b91a5ded31805e42b2208d69250632e1a7d4d9150602401600060405180830381600087803b15801561087c57600080fd5b505af1158015610890573d6000803e3d6000fd5b50506040516370a0823160e01b81523060048201526000925073178e141a0e3b34152f73ff610437a7bf9b83267a91506370a0823190602401602060405180830381865afa1580156108e6573d6000803e3d6000fd5b505050506040513d601f19601f8201168201806040525081019061090a91906112d3565b9050732cac916b2a963bf162f076c0a8a4a8200bcfbfb46001600160a01b031663d0e30db0846040518263ffffffff1660e01b81526004016000604051808303818588803b15801561095b57600080fd5b505af115801561096f573d6000803e3d6000fd5b50506040516370a0823160e01b81523060048201526000935073178e141a0e3b34152f73ff610437a7bf9b83267a92506370a082319150602401602060405180830381865afa1580156109c6573d6000803e3d6000fd5b505050506040513d601f19601f820116820180604052508101906109ea91906112d3565b905081811015610a0d576040516303836e6d60e61b815260040160405180910390fd5b6000610a198383611302565b33600090815260016020526040812080549293508392909190610a3d908490611315565b9091555050604051859033907ffd5ea28d6087c1605f89dd44ebc3cd2c852bd16c5f1f713218f5618d7611143790600090a350505050949350505050565b600082815260208190526040902060010154610a9681610b60565b6104cb8383610bf1565b806001600160a01b038116610ac85760405163e464451160e01b815260040160405180910390fd5b610af27f4341d0255cf8de0fa9a36829221c28fe13c7d7b36de3957b92d9dd74a1e6fc3633610663565b610b0f57604051631855bb5b60e01b815260040160405180910390fd5b6001600160a01b038216600081815260026020908152604091829020805460ff1916905590519182527f88e26bc6bef7637bfd9b65be229bfdec9813454ad0bee72203006a540dadfd549101610657565b610b6a8133610dbe565b50565b610b778282610663565b61054f576000828152602081815260408083206001600160a01b03851684529091529020805460ff19166001179055610bad3390565b6001600160a01b0316816001600160a01b0316837f2f8788117e7eff1d82e926ec794901d17c78024a50270940304540a733656f0d60405160405180910390a45050565b610bfb8282610663565b1561054f576000828152602081815260408083206001600160a01b0385168085529252808320805460ff1916905551339285917ff6391f5c32d9c69d2a47ea670b442974b53935d1edc7fd64eb21e047a839171b9190a45050565b6000610c6482333086610e17565b610c8f827f000000000000000000000000000000000000000000000000000000000000000085610f21565b60408051610100810182526001600160a01b03848116825273b4fbf271143f4fbf7b91a5ded31805e42b2208d660208301908152610bb88385019081523060608501908152426080860190815260a086018a8152600060c0880181815260e08901918252985163414bf38960e01b8152885188166004820152955187166024870152935162ffffff1660448601529151851660648501525160848401525160a4830152935160c48201529251811660e484015290917f00000000000000000000000000000000000000000000000000000000000000009091169063414bf38990610104016020604051808303816000875af1158015610d92573d6000803e3d6000fd5b505050506040513d601f19601f82011682018060405250810190610db691906112d3565b949350505050565b610dc88282610663565b61054f57610dd581611021565b610de0836020611033565b604051602001610df192919061134c565b60408051601f198184030181529082905262461bcd60e51b825261053c916004016113c1565b604080516001600160a01b0385811660248301528481166044830152606480830185905283518084039091018152608490920183526020820180516001600160e01b03166323b872dd60e01b1790529151600092839290881691610e7b91906113f4565b6000604051808303816000865af19150503d8060008114610eb8576040519150601f19603f3d011682016040523d82523d6000602084013e610ebd565b606091505b5091509150818015610ee7575080511580610ee7575080806020019051810190610ee79190611410565b610f195760405162461bcd60e51b815260206004820152600360248201526229aa2360e91b604482015260640161053c565b505050505050565b604080516001600160a01b038481166024830152604480830185905283518084039091018152606490920183526020820180516001600160e01b031663095ea7b360e01b1790529151600092839290871691610f7d91906113f4565b6000604051808303816000865af19150503d8060008114610fba576040519150601f19603f3d011682016040523d82523d6000602084013e610fbf565b606091505b5091509150818015610fe9575080511580610fe9575080806020019051810190610fe99190611410565b61101a5760405162461bcd60e51b8152602060048201526002602482015261534160f01b604482015260640161053c565b5050505050565b60606104a06001600160a01b03831660145b60606000611042836002611432565b61104d906002611315565b67ffffffffffffffff81111561106557611065611449565b6040519080825280601f01601f19166020018201604052801561108f576020820181803683370190505b509050600360fc1b816000815181106110aa576110aa61145f565b60200101906001600160f81b031916908160001a905350600f60fb1b816001815181106110d9576110d961145f565b60200101906001600160f81b031916908160001a90535060006110fd846002611432565b611108906001611315565b90505b6001811115611180576f181899199a1a9b1b9c1cb0b131b232b360811b85600f166010811061113c5761113c61145f565b1a60f81b8282815181106111525761115261145f565b60200101906001600160f81b031916908160001a90535060049490941c9361117981611475565b905061110b565b5083156111cf5760405162461bcd60e51b815260206004820181905260248201527f537472696e67733a20686578206c656e67746820696e73756666696369656e74604482015260640161053c565b9392505050565b6000602082840312156111e857600080fd5b81356001600160e01b0319811681146111cf57600080fd5b60006020828403121561121257600080fd5b5035919050565b6001600160a01b0381168114610b6a57600080fd5b60006020828403121561124057600080fd5b81356111cf81611219565b6000806040838503121561125e57600080fd5b82359150602083013561127081611219565b809150509250929050565b6000806000806080858703121561129157600080fd5b843561129c81611219565b966020860135965060408601359560600135945092505050565b6000602082840312156112c857600080fd5b81516111cf81611219565b6000602082840312156112e557600080fd5b5051919050565b634e487b7160e01b600052601160045260246000fd5b818103818111156104a0576104a06112ec565b808201808211156104a0576104a06112ec565b60005b8381101561134357818101518382015260200161132b565b50506000910152565b7f416363657373436f6e74726f6c3a206163636f756e7420000000000000000000815260008351611384816017850160208801611328565b7001034b99036b4b9b9b4b733903937b6329607d1b60179184019182015283516113b5816028840160208801611328565b01602801949350505050565b60208152600082518060208401526113e0816040850160208701611328565b601f01601f19169190910160400192915050565b60008251611406818460208701611328565b9190910192915050565b60006020828403121561142257600080fd5b815180151581146111cf57600080fd5b80820281158282048414176104a0576104a06112ec565b634e487b7160e01b600052604160045260246000fd5b634e487b7160e01b600052603260045260246000fd5b600081611484576114846112ec565b50600019019056fea26469706673582212203934cbd33fb1c2e148e5359def826dfdb7245b4038d1b97b39f9275fa61263ae64736f6c63430008110033",
  "linkReferences": {},
  "deployedLinkReferences": {}
}