{
  "_format": "hh-sol-artifact-1",
  "contractName": "NFTLand",
  "sourceName": "contracts/NFTLand.sol",
  "abi": [
    {
      "inputs": [],
      "stateMutability": "nonpayable",
      "type": "constructor"
    },
    {
      "anonymous": false,
      "inputs": [
        {
          "indexed": true,
          "internalType": "address",
          "name": "owner",
          "type": "address"
        },
        {
          "indexed": true,
          "internalType": "address",
          "name": "approved",
          "type": "address"
        },
        {
          "indexed": true,
          "internalType": "uint256",
          "name": "tokenId",
          "type": "uint256"
        }
      ],
      "name": "Approval",
      "type": "event"
    },
    {
      "anonymous": false,
      "inputs": [
        {
          "indexed": true,
          "internalType": "address",
          "name": "owner",
          "type": "address"
        },
        {
          "indexed": true,
          "internalType": "address",
          "name": "operator",
          "type": "address"
        },
        {
          "indexed": false,
          "internalType": "bool",
          "name": "approved",
          "type": "bool"
        }
      ],
      "name": "ApprovalForAll",
      "type": "event"
    },
    {
      "anonymous": false,
      "inputs": [
        {
          "indexed": true,
          "internalType": "address",
          "name": "from",
          "type": "address"
        },
        {
          "indexed": true,
          "internalType": "address",
          "name": "to",
          "type": "address"
        },
        {
          "indexed": true,
          "internalType": "uint256",
          "name": "tokenId",
          "type": "uint256"
        }
      ],
      "name": "Transfer",
      "type": "event"
    },
    {
      "inputs": [
        {
          "internalType": "address",
          "name": "to",
          "type": "address"
        },
        {
          "internalType": "uint256",
          "name": "tokenId",
          "type": "uint256"
        }
      ],
      "name": "approve",
      "outputs": [],
      "stateMutability": "nonpayable",
      "type": "function"
    },
    {
      "inputs": [
        {
          "internalType": "address",
          "name": "owner",
          "type": "address"
        }
      ],
      "name": "balanceOf",
      "outputs": [
        {
          "internalType": "uint256",
          "name": "",
          "type": "uint256"
        }
      ],
      "stateMutability": "view",
      "type": "function"
    },
    {
      "inputs": [
        {
          "internalType": "uint256",
          "name": "tokenId",
          "type": "uint256"
        }
      ],
      "name": "getApproved",
      "outputs": [
        {
          "internalType": "address",
          "name": "",
          "type": "address"
        }
      ],
      "stateMutability": "view",
      "type": "function"
    },
    {
      "inputs": [
        {
          "internalType": "address",
          "name": "owner",
          "type": "address"
        },
        {
          "internalType": "address",
          "name": "operator",
          "type": "address"
        }
      ],
      "name": "isApprovedForAll",
      "outputs": [
        {
          "internalType": "bool",
          "name": "",
          "type": "bool"
        }
      ],
      "stateMutability": "view",
      "type": "function"
    },
    {
      "inputs": [],
      "name": "name",
      "outputs": [
        {
          "internalType": "string",
          "name": "",
          "type": "string"
        }
      ],
      "stateMutability": "view",
      "type": "function"
    },
    {
      "inputs": [
        {
          "internalType": "uint256",
          "name": "tokenId",
          "type": "uint256"
        }
      ],
      "name": "ownerOf",
      "outputs": [
        {
          "internalType": "address",
          "name": "",
          "type": "address"
        }
      ],
      "stateMutability": "view",
      "type": "function"
    },
    {
      "inputs": [
        {
          "internalType": "string",
          "name": "ipfsURI",
          "type": "string"
        }
      ],
      "name": "safeMintNFT",
      "outputs": [
        {
          "internalType": "uint256",
          "name": "newTokenId",
          "type": "uint256"
        }
      ],
      "stateMutability": "nonpayable",
      "type": "function"
    },
    {
      "inputs": [
        {
          "internalType": "address",
          "name": "from",
          "type": "address"
        },
        {
          "internalType": "address",
          "name": "to",
          "type": "address"
        },
        {
          "internalType": "uint256",
          "name": "tokenId",
          "type": "uint256"
        }
      ],
      "name": "safeTransferFrom",
      "outputs": [],
      "stateMutability": "nonpayable",
      "type": "function"
    },
    {
      "inputs": [
        {
          "internalType": "address",
          "name": "from",
          "type": "address"
        },
        {
          "internalType": "address",
          "name": "to",
          "type": "address"
        },
        {
          "internalType": "uint256",
          "name": "tokenId",
          "type": "uint256"
        },
        {
          "internalType": "bytes",
          "name": "data",
          "type": "bytes"
        }
      ],
      "name": "safeTransferFrom",
      "outputs": [],
      "stateMutability": "nonpayable",
      "type": "function"
    },
    {
      "inputs": [
        {
          "internalType": "address",
          "name": "operator",
          "type": "address"
        },
        {
          "internalType": "bool",
          "name": "approved",
          "type": "bool"
        }
      ],
      "name": "setApprovalForAll",
      "outputs": [],
      "stateMutability": "nonpayable",
      "type": "function"
    },
    {
      "inputs": [
        {
          "internalType": "bytes4",
          "name": "interfaceId",
          "type": "bytes4"
        }
      ],
      "name": "supportsInterface",
      "outputs": [
        {
          "internalType": "bool",
          "name": "",
          "type": "bool"
        }
      ],
      "stateMutability": "view",
      "type": "function"
    },
    {
      "inputs": [],
      "name": "symbol",
      "outputs": [
        {
          "internalType": "string",
          "name": "",
          "type": "string"
        }
      ],
      "stateMutability": "view",
      "type": "function"
    },
    {
      "inputs": [
        {
          "internalType": "uint256",
          "name": "tokenId",
          "type": "uint256"
        }
      ],
      "name": "tokenURI",
      "outputs": [
        {
          "internalType": "string",
          "name": "",
          "type": "string"
        }
      ],
      "stateMutability": "view",
      "type": "function"
    },
    {
      "inputs": [
        {
          "internalType": "address",
          "name": "from",
          "type": "address"
        },
        {
          "internalType": "address",
          "name": "to",
          "type": "address"
        },
        {
          "internalType": "uint256",
          "name": "tokenId",
          "type": "uint256"
        }
      ],
      "name": "transferFrom",
      "outputs": [],
      "stateMutability": "nonpayable",
      "type": "function"
    }
  ],
  "bytecode": "0x60806040523480156200001157600080fd5b50604051806040016040528060088152602001671391950813185b9960c21b815250604051806040016040528060048152602001631391951360e21b81525081600090816200006191906200011e565b5060016200007082826200011e565b505050620001ea565b634e487b7160e01b600052604160045260246000fd5b600181811c90821680620000a457607f821691505b602082108103620000c557634e487b7160e01b600052602260045260246000fd5b50919050565b601f8211156200011957600081815260208120601f850160051c81016020861015620000f45750805b601f850160051c820191505b81811015620001155782815560010162000100565b5050505b505050565b81516001600160401b038111156200013a576200013a62000079565b62000152816200014b84546200008f565b84620000cb565b602080601f8311600181146200018a5760008415620001715750858301515b600019600386901b1c1916600185901b17855562000115565b600085815260208120601f198616915b82811015620001bb578886015182559484019460019091019084016200019a565b5085821015620001da5787850151600019600388901b60f8161c191681555b5050505050600190811b01905550565b61175f80620001fa6000396000f3fe608060405234801561001057600080fd5b50600436106100ea5760003560e01c80636352211e1161008c578063a22cb46511610066578063a22cb465146101e1578063b88d4fde146101f4578063c87b56dd14610207578063e985e9c51461021a57600080fd5b80636352211e146101b357806370a08231146101c657806395d89b41146101d957600080fd5b8063095ea7b3116100c8578063095ea7b3146101575780631103459e1461016c57806323b872dd1461018d57806342842e0e146101a057600080fd5b806301ffc9a7146100ef57806306fdde0314610117578063081812fc1461012c575b600080fd5b6101026100fd36600461112f565b610256565b60405190151581526020015b60405180910390f35b61011f6102a8565b60405161010e919061119c565b61013f61013a3660046111af565b61033a565b6040516001600160a01b03909116815260200161010e565b61016a6101653660046111e4565b610361565b005b61017f61017a36600461120e565b61047b565b60405190815260200161010e565b61016a61019b366004611280565b6104e0565b61016a6101ae366004611280565b610511565b61013f6101c13660046111af565b61052c565b61017f6101d43660046112bc565b61058c565b61011f610612565b61016a6101ef3660046112d7565b610621565b61016a610202366004611329565b610630565b61011f6102153660046111af565b610668565b610102610228366004611405565b6001600160a01b03918216600090815260056020908152604080832093909416825291909152205460ff1690565b60006001600160e01b031982166380ac58cd60e01b148061028757506001600160e01b03198216635b5e139f60e01b145b806102a257506301ffc9a760e01b6001600160e01b03198316145b92915050565b6060600080546102b790611438565b80601f01602080910402602001604051908101604052809291908181526020018280546102e390611438565b80156103305780601f1061030557610100808354040283529160200191610330565b820191906000526020600020905b81548152906001019060200180831161031357829003601f168201915b5050505050905090565b600061034582610778565b506000908152600460205260409020546001600160a01b031690565b600061036c8261052c565b9050806001600160a01b0316836001600160a01b0316036103de5760405162461bcd60e51b815260206004820152602160248201527f4552433732313a20617070726f76616c20746f2063757272656e74206f776e656044820152603960f91b60648201526084015b60405180910390fd5b336001600160a01b03821614806103fa57506103fa8133610228565b61046c5760405162461bcd60e51b815260206004820152603d60248201527f4552433732313a20617070726f76652063616c6c6572206973206e6f7420746f60448201527f6b656e206f776e6572206f7220617070726f76656420666f7220616c6c00000060648201526084016103d5565b61047683836107da565b505050565b600061048660075490565b90506104923382610848565b6104d28184848080601f01602080910402602001604051908101604052809392919081815260200183838082843760009201919091525061086292505050565b6102a2600780546001019055565b6104ea33826108f5565b6105065760405162461bcd60e51b81526004016103d590611472565b610476838383610973565b61047683838360405180602001604052806000815250610630565b6000818152600260205260408120546001600160a01b0316806102a25760405162461bcd60e51b8152602060048201526018602482015277115490cdcc8c4e881a5b9d985b1a59081d1bdad95b88125160421b60448201526064016103d5565b60006001600160a01b0382166105f65760405162461bcd60e51b815260206004820152602960248201527f4552433732313a2061646472657373207a65726f206973206e6f7420612076616044820152683634b21037bbb732b960b91b60648201526084016103d5565b506001600160a01b031660009081526003602052604090205490565b6060600180546102b790611438565b61062c338383610ae4565b5050565b61063a33836108f5565b6106565760405162461bcd60e51b81526004016103d590611472565b61066284848484610bb2565b50505050565b606061067382610778565b6000828152600660205260408120805461068c90611438565b80601f01602080910402602001604051908101604052809291908181526020018280546106b890611438565b80156107055780601f106106da57610100808354040283529160200191610705565b820191906000526020600020905b8154815290600101906020018083116106e857829003601f168201915b50505050509050600061072360408051602081019091526000815290565b90508051600003610735575092915050565b81511561076757808260405160200161074f9291906114bf565b60405160208183030381529060405292505050919050565b61077084610be5565b949350505050565b6000818152600260205260409020546001600160a01b03166107d75760405162461bcd60e51b8152602060048201526018602482015277115490cdcc8c4e881a5b9d985b1a59081d1bdad95b88125160421b60448201526064016103d5565b50565b600081815260046020526040902080546001600160a01b0319166001600160a01b038416908117909155819061080f8261052c565b6001600160a01b03167f8c5be1e5ebec7d5bd14f71427d1e84f3dd0314c0f7b2291e5b200ac8c7c3b92560405160405180910390a45050565b61062c828260405180602001604052806000815250610c59565b6000828152600260205260409020546001600160a01b03166108dd5760405162461bcd60e51b815260206004820152602e60248201527f45524337323155524953746f726167653a2055524920736574206f66206e6f6e60448201526d32bc34b9ba32b73a103a37b5b2b760911b60648201526084016103d5565b6000828152600660205260409020610476828261153c565b6000806109018361052c565b9050806001600160a01b0316846001600160a01b0316148061094857506001600160a01b0380821660009081526005602090815260408083209388168352929052205460ff165b806107705750836001600160a01b03166109618461033a565b6001600160a01b031614949350505050565b826001600160a01b03166109868261052c565b6001600160a01b0316146109ac5760405162461bcd60e51b81526004016103d5906115fc565b6001600160a01b038216610a0e5760405162461bcd60e51b8152602060048201526024808201527f4552433732313a207472616e7366657220746f20746865207a65726f206164646044820152637265737360e01b60648201526084016103d5565b610a1b8383836001610c8c565b826001600160a01b0316610a2e8261052c565b6001600160a01b031614610a545760405162461bcd60e51b81526004016103d5906115fc565b600081815260046020908152604080832080546001600160a01b03199081169091556001600160a01b0387811680865260038552838620805460001901905590871680865283862080546001019055868652600290945282852080549092168417909155905184937fddf252ad1be2c89b69c2b068fc378daa952ba7f163c4a11628f55a4df523b3ef91a4505050565b816001600160a01b0316836001600160a01b031603610b455760405162461bcd60e51b815260206004820152601960248201527f4552433732313a20617070726f766520746f2063616c6c65720000000000000060448201526064016103d5565b6001600160a01b03838116600081815260056020908152604080832094871680845294825291829020805460ff191686151590811790915591519182527f17307eab39ab6107e8899845ad3d59bd9653f200f220920489ca2b5937696c31910160405180910390a3505050565b610bbd848484610973565b610bc984848484610d14565b6106625760405162461bcd60e51b81526004016103d590611641565b6060610bf082610778565b6000610c0760408051602081019091526000815290565b90506000815111610c275760405180602001604052806000815250610c52565b80610c3184610e15565b604051602001610c429291906114bf565b6040516020818303038152906040525b9392505050565b610c638383610ea8565b610c706000848484610d14565b6104765760405162461bcd60e51b81526004016103d590611641565b6001811115610662576001600160a01b03841615610cd2576001600160a01b03841660009081526003602052604081208054839290610ccc9084906116a9565b90915550505b6001600160a01b03831615610662576001600160a01b03831660009081526003602052604081208054839290610d099084906116bc565b909155505050505050565b60006001600160a01b0384163b15610e0a57604051630a85bd0160e11b81526001600160a01b0385169063150b7a0290610d589033908990889088906004016116cf565b6020604051808303816000875af1925050508015610d93575060408051601f3d908101601f19168201909252610d909181019061170c565b60015b610df0573d808015610dc1576040519150601f19603f3d011682016040523d82523d6000602084013e610dc6565b606091505b508051600003610de85760405162461bcd60e51b81526004016103d590611641565b805181602001fd5b6001600160e01b031916630a85bd0160e11b149050610770565b506001949350505050565b60606000610e2283611041565b600101905060008167ffffffffffffffff811115610e4257610e42611313565b6040519080825280601f01601f191660200182016040528015610e6c576020820181803683370190505b5090508181016020015b600019016f181899199a1a9b1b9c1cb0b131b232b360811b600a86061a8153600a8504945084610e7657509392505050565b6001600160a01b038216610efe5760405162461bcd60e51b815260206004820181905260248201527f4552433732313a206d696e7420746f20746865207a65726f206164647265737360448201526064016103d5565b6000818152600260205260409020546001600160a01b031615610f635760405162461bcd60e51b815260206004820152601c60248201527f4552433732313a20746f6b656e20616c7265616479206d696e7465640000000060448201526064016103d5565b610f71600083836001610c8c565b6000818152600260205260409020546001600160a01b031615610fd65760405162461bcd60e51b815260206004820152601c60248201527f4552433732313a20746f6b656e20616c7265616479206d696e7465640000000060448201526064016103d5565b6001600160a01b038216600081815260036020908152604080832080546001019055848352600290915280822080546001600160a01b0319168417905551839291907fddf252ad1be2c89b69c2b068fc378daa952ba7f163c4a11628f55a4df523b3ef908290a45050565b60008072184f03e93ff9f4daa797ed6e38ed64bf6a1f0160401b83106110805772184f03e93ff9f4daa797ed6e38ed64bf6a1f0160401b830492506040015b6d04ee2d6d415b85acef810000000083106110ac576d04ee2d6d415b85acef8100000000830492506020015b662386f26fc1000083106110ca57662386f26fc10000830492506010015b6305f5e10083106110e2576305f5e100830492506008015b61271083106110f657612710830492506004015b60648310611108576064830492506002015b600a83106102a25760010192915050565b6001600160e01b0319811681146107d757600080fd5b60006020828403121561114157600080fd5b8135610c5281611119565b60005b8381101561116757818101518382015260200161114f565b50506000910152565b6000815180845261118881602086016020860161114c565b601f01601f19169290920160200192915050565b602081526000610c526020830184611170565b6000602082840312156111c157600080fd5b5035919050565b80356001600160a01b03811681146111df57600080fd5b919050565b600080604083850312156111f757600080fd5b611200836111c8565b946020939093013593505050565b6000806020838503121561122157600080fd5b823567ffffffffffffffff8082111561123957600080fd5b818501915085601f83011261124d57600080fd5b81358181111561125c57600080fd5b86602082850101111561126e57600080fd5b60209290920196919550909350505050565b60008060006060848603121561129557600080fd5b61129e846111c8565b92506112ac602085016111c8565b9150604084013590509250925092565b6000602082840312156112ce57600080fd5b610c52826111c8565b600080604083850312156112ea57600080fd5b6112f3836111c8565b91506020830135801515811461130857600080fd5b809150509250929050565b634e487b7160e01b600052604160045260246000fd5b6000806000806080858703121561133f57600080fd5b611348856111c8565b9350611356602086016111c8565b925060408501359150606085013567ffffffffffffffff8082111561137a57600080fd5b818701915087601f83011261138e57600080fd5b8135818111156113a0576113a0611313565b604051601f8201601f19908116603f011681019083821181831017156113c8576113c8611313565b816040528281528a60208487010111156113e157600080fd5b82602086016020830137600060208483010152809550505050505092959194509250565b6000806040838503121561141857600080fd5b611421836111c8565b915061142f602084016111c8565b90509250929050565b600181811c9082168061144c57607f821691505b60208210810361146c57634e487b7160e01b600052602260045260246000fd5b50919050565b6020808252602d908201527f4552433732313a2063616c6c6572206973206e6f7420746f6b656e206f776e6560408201526c1c881bdc88185c1c1c9bdd9959609a1b606082015260800190565b600083516114d181846020880161114c565b8351908301906114e581836020880161114c565b01949350505050565b601f82111561047657600081815260208120601f850160051c810160208610156115155750805b601f850160051c820191505b8181101561153457828155600101611521565b505050505050565b815167ffffffffffffffff81111561155657611556611313565b61156a816115648454611438565b846114ee565b602080601f83116001811461159f57600084156115875750858301515b600019600386901b1c1916600185901b178555611534565b600085815260208120601f198616915b828110156115ce578886015182559484019460019091019084016115af565b50858210156115ec5787850151600019600388901b60f8161c191681555b5050505050600190811b01905550565b60208082526025908201527f4552433732313a207472616e736665722066726f6d20696e636f72726563742060408201526437bbb732b960d91b606082015260800190565b60208082526032908201527f4552433732313a207472616e7366657220746f206e6f6e20455243373231526560408201527131b2b4bb32b91034b6b83632b6b2b73a32b960711b606082015260800190565b634e487b7160e01b600052601160045260246000fd5b818103818111156102a2576102a2611693565b808201808211156102a2576102a2611693565b6001600160a01b038581168252841660208201526040810183905260806060820181905260009061170290830184611170565b9695505050505050565b60006020828403121561171e57600080fd5b8151610c528161111956fea264697066735822122044611b688b7e16d2f13d0a6db4b36ea387f044ebf6000c718c65909d66791caf64736f6c63430008110033",
  "linkReferences": {},
  "deployedLinkReferences": {}
}