{
  "_format": "hh-sol-artifact-1",
  "contractName": "NFTLand",
  "sourceName": "contracts/NFTLand.sol",
  "abi": [
    {
      "inputs": [],
      "stateMutability": "nonpayable",
      "type": "constructor"
    },
    {
      "anonymous": false,
      "inputs": [
        {
          "indexed": true,
          "internalType": "address",
          "name": "owner",
          "type": "address"
        },
        {
          "indexed": true,
          "internalType": "address",
          "name": "approved",
          "type": "address"
        },
        {
          "indexed": true,
          "internalType": "uint256",
          "name": "tokenId",
          "type": "uint256"
        }
      ],
      "name": "Approval",
      "type": "event"
    },
    {
      "anonymous": false,
      "inputs": [
        {
          "indexed": true,
          "internalType": "address",
          "name": "owner",
          "type": "address"
        },
        {
          "indexed": true,
          "internalType": "address",
          "name": "operator",
          "type": "address"
        },
        {
          "indexed": false,
          "internalType": "bool",
          "name": "approved",
          "type": "bool"
        }
      ],
      "name": "ApprovalForAll",
      "type": "event"
    },
    {
      "anonymous": false,
      "inputs": [
        {
          "indexed": true,
          "internalType": "address",
          "name": "from",
          "type": "address"
        },
        {
          "indexed": true,
          "internalType": "address",
          "name": "to",
          "type": "address"
        },
        {
          "indexed": true,
          "internalType": "uint256",
          "name": "tokenId",
          "type": "uint256"
        }
      ],
      "name": "Transfer",
      "type": "event"
    },
    {
      "inputs": [
        {
          "internalType": "address",
          "name": "to",
          "type": "address"
        },
        {
          "internalType": "uint256",
          "name": "tokenId",
          "type": "uint256"
        }
      ],
      "name": "approve",
      "outputs": [],
      "stateMutability": "nonpayable",
      "type": "function"
    },
    {
      "inputs": [
        {
          "internalType": "address",
          "name": "owner",
          "type": "address"
        }
      ],
      "name": "balanceOf",
      "outputs": [
        {
          "internalType": "uint256",
          "name": "",
          "type": "uint256"
        }
      ],
      "stateMutability": "view",
      "type": "function"
    },
    {
      "inputs": [
        {
          "internalType": "uint256",
          "name": "tokenId",
          "type": "uint256"
        }
      ],
      "name": "getApproved",
      "outputs": [
        {
          "internalType": "address",
          "name": "",
          "type": "address"
        }
      ],
      "stateMutability": "view",
      "type": "function"
    },
    {
      "inputs": [
        {
          "internalType": "address",
          "name": "owner",
          "type": "address"
        },
        {
          "internalType": "address",
          "name": "operator",
          "type": "address"
        }
      ],
      "name": "isApprovedForAll",
      "outputs": [
        {
          "internalType": "bool",
          "name": "",
          "type": "bool"
        }
      ],
      "stateMutability": "view",
      "type": "function"
    },
    {
      "inputs": [],
      "name": "name",
      "outputs": [
        {
          "internalType": "string",
          "name": "",
          "type": "string"
        }
      ],
      "stateMutability": "view",
      "type": "function"
    },
    {
      "inputs": [
        {
          "internalType": "uint256",
          "name": "tokenId",
          "type": "uint256"
        }
      ],
      "name": "ownerOf",
      "outputs": [
        {
          "internalType": "address",
          "name": "",
          "type": "address"
        }
      ],
      "stateMutability": "view",
      "type": "function"
    },
    {
      "inputs": [
        {
          "internalType": "string",
          "name": "ipfsURI",
          "type": "string"
        }
      ],
      "name": "safeMintNFT",
      "outputs": [
        {
          "internalType": "uint256",
          "name": "newTokenId",
          "type": "uint256"
        }
      ],
      "stateMutability": "nonpayable",
      "type": "function"
    },
    {
      "inputs": [
        {
          "internalType": "address",
          "name": "from",
          "type": "address"
        },
        {
          "internalType": "address",
          "name": "to",
          "type": "address"
        },
        {
          "internalType": "uint256",
          "name": "tokenId",
          "type": "uint256"
        }
      ],
      "name": "safeTransferFrom",
      "outputs": [],
      "stateMutability": "nonpayable",
      "type": "function"
    },
    {
      "inputs": [
        {
          "internalType": "address",
          "name": "from",
          "type": "address"
        },
        {
          "internalType": "address",
          "name": "to",
          "type": "address"
        },
        {
          "internalType": "uint256",
          "name": "tokenId",
          "type": "uint256"
        },
        {
          "internalType": "bytes",
          "name": "data",
          "type": "bytes"
        }
      ],
      "name": "safeTransferFrom",
      "outputs": [],
      "stateMutability": "nonpayable",
      "type": "function"
    },
    {
      "inputs": [
        {
          "internalType": "address",
          "name": "operator",
          "type": "address"
        },
        {
          "internalType": "bool",
          "name": "approved",
          "type": "bool"
        }
      ],
      "name": "setApprovalForAll",
      "outputs": [],
      "stateMutability": "nonpayable",
      "type": "function"
    },
    {
      "inputs": [
        {
          "internalType": "bytes4",
          "name": "interfaceId",
          "type": "bytes4"
        }
      ],
      "name": "supportsInterface",
      "outputs": [
        {
          "internalType": "bool",
          "name": "",
          "type": "bool"
        }
      ],
      "stateMutability": "view",
      "type": "function"
    },
    {
      "inputs": [],
      "name": "symbol",
      "outputs": [
        {
          "internalType": "string",
          "name": "",
          "type": "string"
        }
      ],
      "stateMutability": "view",
      "type": "function"
    },
    {
      "inputs": [
        {
          "internalType": "uint256",
          "name": "tokenId",
          "type": "uint256"
        }
      ],
      "name": "tokenURI",
      "outputs": [
        {
          "internalType": "string",
          "name": "",
          "type": "string"
        }
      ],
      "stateMutability": "view",
      "type": "function"
    },
    {
      "inputs": [
        {
          "internalType": "address",
          "name": "from",
          "type": "address"
        },
        {
          "internalType": "address",
          "name": "to",
          "type": "address"
        },
        {
          "internalType": "uint256",
          "name": "tokenId",
          "type": "uint256"
        }
      ],
      "name": "transferFrom",
      "outputs": [],
      "stateMutability": "nonpayable",
      "type": "function"
    }
  ],
  "bytecode": "0x60806040523480156200001157600080fd5b50604051806040016040528060088152602001671391950813185b9960c21b815250604051806040016040528060048152602001631391951360e21b81525081600090816200006191906200011e565b5060016200007082826200011e565b505050620001ea565b634e487b7160e01b600052604160045260246000fd5b600181811c90821680620000a457607f821691505b602082108103620000c557634e487b7160e01b600052602260045260246000fd5b50919050565b601f8211156200011957600081815260208120601f850160051c81016020861015620000f45750805b601f850160051c820191505b81811015620001155782815560010162000100565b5050505b505050565b81516001600160401b038111156200013a576200013a62000079565b62000152816200014b84546200008f565b84620000cb565b602080601f8311600181146200018a5760008415620001715750858301515b600019600386901b1c1916600185901b17855562000115565b600085815260208120601f198616915b82811015620001bb578886015182559484019460019091019084016200019a565b5085821015620001da5787850151600019600388901b60f8161c191681555b5050505050600190811b01905550565b61168080620001fa6000396000f3fe608060405234801561001057600080fd5b50600436106100ea5760003560e01c80636352211e1161008c578063a22cb46511610066578063a22cb465146101e1578063b88d4fde146101f4578063c87b56dd14610207578063e985e9c51461021a57600080fd5b80636352211e146101b357806370a08231146101c657806395d89b41146101d957600080fd5b8063095ea7b3116100c8578063095ea7b3146101575780631103459e1461016c57806323b872dd1461018d57806342842e0e146101a057600080fd5b806301ffc9a7146100ef57806306fdde0314610117578063081812fc1461012c575b600080fd5b6101026100fd36600461108c565b610256565b60405190151581526020015b60405180910390f35b61011f6102a8565b60405161010e91906110f9565b61013f61013a36600461110c565b61033a565b6040516001600160a01b03909116815260200161010e565b61016a610165366004611141565b610361565b005b61017f61017a36600461116b565b61047b565b60405190815260200161010e565b61016a61019b3660046111dd565b6104e0565b61016a6101ae3660046111dd565b610511565b61013f6101c136600461110c565b61052c565b61017f6101d4366004611219565b61058c565b61011f610612565b61016a6101ef366004611234565b610621565b61016a610202366004611286565b610630565b61011f61021536600461110c565b610668565b610102610228366004611362565b6001600160a01b03918216600090815260056020908152604080832093909416825291909152205460ff1690565b60006001600160e01b031982166380ac58cd60e01b148061028757506001600160e01b03198216635b5e139f60e01b145b806102a257506301ffc9a760e01b6001600160e01b03198316145b92915050565b6060600080546102b790611395565b80601f01602080910402602001604051908101604052809291908181526020018280546102e390611395565b80156103305780601f1061030557610100808354040283529160200191610330565b820191906000526020600020905b81548152906001019060200180831161031357829003601f168201915b5050505050905090565b600061034582610778565b506000908152600460205260409020546001600160a01b031690565b600061036c8261052c565b9050806001600160a01b0316836001600160a01b0316036103de5760405162461bcd60e51b815260206004820152602160248201527f4552433732313a20617070726f76616c20746f2063757272656e74206f776e656044820152603960f91b60648201526084015b60405180910390fd5b336001600160a01b03821614806103fa57506103fa8133610228565b61046c5760405162461bcd60e51b815260206004820152603d60248201527f4552433732313a20617070726f76652063616c6c6572206973206e6f7420746f60448201527f6b656e206f776e6572206f7220617070726f76656420666f7220616c6c00000060648201526084016103d5565b61047683836107da565b505050565b600061048660075490565b90506104923382610848565b6104d28184848080601f01602080910402602001604051908101604052809392919081815260200183838082843760009201919091525061086292505050565b6102a2600780546001019055565b6104ea33826108f5565b6105065760405162461bcd60e51b81526004016103d5906113cf565b610476838383610973565b61047683838360405180602001604052806000815250610630565b6000818152600260205260408120546001600160a01b0316806102a25760405162461bcd60e51b8152602060048201526018602482015277115490cdcc8c4e881a5b9d985b1a59081d1bdad95b88125160421b60448201526064016103d5565b60006001600160a01b0382166105f65760405162461bcd60e51b815260206004820152602960248201527f4552433732313a2061646472657373207a65726f206973206e6f7420612076616044820152683634b21037bbb732b960b91b60648201526084016103d5565b506001600160a01b031660009081526003602052604090205490565b6060600180546102b790611395565b61062c338383610ad7565b5050565b61063a33836108f5565b6106565760405162461bcd60e51b81526004016103d5906113cf565b61066284848484610ba5565b50505050565b606061067382610778565b6000828152600660205260408120805461068c90611395565b80601f01602080910402602001604051908101604052809291908181526020018280546106b890611395565b80156107055780601f106106da57610100808354040283529160200191610705565b820191906000526020600020905b8154815290600101906020018083116106e857829003601f168201915b50505050509050600061072360408051602081019091526000815290565b90508051600003610735575092915050565b81511561076757808260405160200161074f92919061141c565b60405160208183030381529060405292505050919050565b61077084610bd8565b949350505050565b6000818152600260205260409020546001600160a01b03166107d75760405162461bcd60e51b8152602060048201526018602482015277115490cdcc8c4e881a5b9d985b1a59081d1bdad95b88125160421b60448201526064016103d5565b50565b600081815260046020526040902080546001600160a01b0319166001600160a01b038416908117909155819061080f8261052c565b6001600160a01b03167f8c5be1e5ebec7d5bd14f71427d1e84f3dd0314c0f7b2291e5b200ac8c7c3b92560405160405180910390a45050565b61062c828260405180602001604052806000815250610c4c565b6000828152600260205260409020546001600160a01b03166108dd5760405162461bcd60e51b815260206004820152602e60248201527f45524337323155524953746f726167653a2055524920736574206f66206e6f6e60448201526d32bc34b9ba32b73a103a37b5b2b760911b60648201526084016103d5565b60008281526006602052604090206104768282611499565b6000806109018361052c565b9050806001600160a01b0316846001600160a01b0316148061094857506001600160a01b0380821660009081526005602090815260408083209388168352929052205460ff165b806107705750836001600160a01b03166109618461033a565b6001600160a01b031614949350505050565b826001600160a01b03166109868261052c565b6001600160a01b0316146109ac5760405162461bcd60e51b81526004016103d590611559565b6001600160a01b038216610a0e5760405162461bcd60e51b8152602060048201526024808201527f4552433732313a207472616e7366657220746f20746865207a65726f206164646044820152637265737360e01b60648201526084016103d5565b826001600160a01b0316610a218261052c565b6001600160a01b031614610a475760405162461bcd60e51b81526004016103d590611559565b600081815260046020908152604080832080546001600160a01b03199081169091556001600160a01b0387811680865260038552838620805460001901905590871680865283862080546001019055868652600290945282852080549092168417909155905184937fddf252ad1be2c89b69c2b068fc378daa952ba7f163c4a11628f55a4df523b3ef91a4505050565b816001600160a01b0316836001600160a01b031603610b385760405162461bcd60e51b815260206004820152601960248201527f4552433732313a20617070726f766520746f2063616c6c65720000000000000060448201526064016103d5565b6001600160a01b03838116600081815260056020908152604080832094871680845294825291829020805460ff191686151590811790915591519182527f17307eab39ab6107e8899845ad3d59bd9653f200f220920489ca2b5937696c31910160405180910390a3505050565b610bb0848484610973565b610bbc84848484610c7f565b6106625760405162461bcd60e51b81526004016103d59061159e565b6060610be382610778565b6000610bfa60408051602081019091526000815290565b90506000815111610c1a5760405180602001604052806000815250610c45565b80610c2484610d80565b604051602001610c3592919061141c565b6040516020818303038152906040525b9392505050565b610c568383610e13565b610c636000848484610c7f565b6104765760405162461bcd60e51b81526004016103d59061159e565b60006001600160a01b0384163b15610d7557604051630a85bd0160e11b81526001600160a01b0385169063150b7a0290610cc39033908990889088906004016115f0565b6020604051808303816000875af1925050508015610cfe575060408051601f3d908101601f19168201909252610cfb9181019061162d565b60015b610d5b573d808015610d2c576040519150601f19603f3d011682016040523d82523d6000602084013e610d31565b606091505b508051600003610d535760405162461bcd60e51b81526004016103d59061159e565b805181602001fd5b6001600160e01b031916630a85bd0160e11b149050610770565b506001949350505050565b60606000610d8d83610f9e565b600101905060008167ffffffffffffffff811115610dad57610dad611270565b6040519080825280601f01601f191660200182016040528015610dd7576020820181803683370190505b5090508181016020015b600019016f181899199a1a9b1b9c1cb0b131b232b360811b600a86061a8153600a8504945084610de157509392505050565b6001600160a01b038216610e695760405162461bcd60e51b815260206004820181905260248201527f4552433732313a206d696e7420746f20746865207a65726f206164647265737360448201526064016103d5565b6000818152600260205260409020546001600160a01b031615610ece5760405162461bcd60e51b815260206004820152601c60248201527f4552433732313a20746f6b656e20616c7265616479206d696e7465640000000060448201526064016103d5565b6000818152600260205260409020546001600160a01b031615610f335760405162461bcd60e51b815260206004820152601c60248201527f4552433732313a20746f6b656e20616c7265616479206d696e7465640000000060448201526064016103d5565b6001600160a01b038216600081815260036020908152604080832080546001019055848352600290915280822080546001600160a01b0319168417905551839291907fddf252ad1be2c89b69c2b068fc378daa952ba7f163c4a11628f55a4df523b3ef908290a45050565b60008072184f03e93ff9f4daa797ed6e38ed64bf6a1f0160401b8310610fdd5772184f03e93ff9f4daa797ed6e38ed64bf6a1f0160401b830492506040015b6d04ee2d6d415b85acef81000000008310611009576d04ee2d6d415b85acef8100000000830492506020015b662386f26fc10000831061102757662386f26fc10000830492506010015b6305f5e100831061103f576305f5e100830492506008015b612710831061105357612710830492506004015b60648310611065576064830492506002015b600a83106102a25760010192915050565b6001600160e01b0319811681146107d757600080fd5b60006020828403121561109e57600080fd5b8135610c4581611076565b60005b838110156110c45781810151838201526020016110ac565b50506000910152565b600081518084526110e58160208601602086016110a9565b601f01601f19169290920160200192915050565b602081526000610c4560208301846110cd565b60006020828403121561111e57600080fd5b5035919050565b80356001600160a01b038116811461113c57600080fd5b919050565b6000806040838503121561115457600080fd5b61115d83611125565b946020939093013593505050565b6000806020838503121561117e57600080fd5b823567ffffffffffffffff8082111561119657600080fd5b818501915085601f8301126111aa57600080fd5b8135818111156111b957600080fd5b8660208285010111156111cb57600080fd5b60209290920196919550909350505050565b6000806000606084860312156111f257600080fd5b6111fb84611125565b925061120960208501611125565b9150604084013590509250925092565b60006020828403121561122b57600080fd5b610c4582611125565b6000806040838503121561124757600080fd5b61125083611125565b91506020830135801515811461126557600080fd5b809150509250929050565b634e487b7160e01b600052604160045260246000fd5b6000806000806080858703121561129c57600080fd5b6112a585611125565b93506112b360208601611125565b925060408501359150606085013567ffffffffffffffff808211156112d757600080fd5b818701915087601f8301126112eb57600080fd5b8135818111156112fd576112fd611270565b604051601f8201601f19908116603f0116810190838211818310171561132557611325611270565b816040528281528a602084870101111561133e57600080fd5b82602086016020830137600060208483010152809550505050505092959194509250565b6000806040838503121561137557600080fd5b61137e83611125565b915061138c60208401611125565b90509250929050565b600181811c908216806113a957607f821691505b6020821081036113c957634e487b7160e01b600052602260045260246000fd5b50919050565b6020808252602d908201527f4552433732313a2063616c6c6572206973206e6f7420746f6b656e206f776e6560408201526c1c881bdc88185c1c1c9bdd9959609a1b606082015260800190565b6000835161142e8184602088016110a9565b8351908301906114428183602088016110a9565b01949350505050565b601f82111561047657600081815260208120601f850160051c810160208610156114725750805b601f850160051c820191505b818110156114915782815560010161147e565b505050505050565b815167ffffffffffffffff8111156114b3576114b3611270565b6114c7816114c18454611395565b8461144b565b602080601f8311600181146114fc57600084156114e45750858301515b600019600386901b1c1916600185901b178555611491565b600085815260208120601f198616915b8281101561152b5788860151825594840194600190910190840161150c565b50858210156115495787850151600019600388901b60f8161c191681555b5050505050600190811b01905550565b60208082526025908201527f4552433732313a207472616e736665722066726f6d20696e636f72726563742060408201526437bbb732b960d91b606082015260800190565b60208082526032908201527f4552433732313a207472616e7366657220746f206e6f6e20455243373231526560408201527131b2b4bb32b91034b6b83632b6b2b73a32b960711b606082015260800190565b6001600160a01b0385811682528416602082015260408101839052608060608201819052600090611623908301846110cd565b9695505050505050565b60006020828403121561163f57600080fd5b8151610c458161107656fea264697066735822122031e452f45ffcf93fae255ec6466e84306dae4d830a554429c57654193fb7fcd964736f6c63430008110033",
  "linkReferences": {},
  "deployedLinkReferences": {}
}