{
  "_format": "hh-sol-artifact-1",
  "contractName": "AccessContract",
  "sourceName": "contracts/AccessContract.sol",
  "abi": [
    {
      "inputs": [],
      "name": "AccessContract_ZeroAddress",
      "type": "error"
    },
    {
      "inputs": [],
      "name": "Ownable_CallerIsNotPendingOwner",
      "type": "error"
    },
    {
      "inputs": [],
      "name": "Ownable_CallerIsNotTheOwner",
      "type": "error"
    },
    {
      "inputs": [],
      "name": "Ownable_NewOwnerMustBeADifferentAddressThanTheCurrentOwner",
      "type": "error"
    },
    {
      "anonymous": false,
      "inputs": [
        {
          "indexed": false,
          "internalType": "address",
          "name": "oldAddress",
          "type": "address"
        },
        {
          "indexed": false,
          "internalType": "address",
          "name": "newAddress",
          "type": "address"
        }
      ],
      "name": "EarthverseDepositAddressChanged",
      "type": "event"
    },
    {
      "anonymous": false,
      "inputs": [
        {
          "indexed": true,
          "internalType": "address",
          "name": "previousOwner",
          "type": "address"
        },
        {
          "indexed": true,
          "internalType": "address",
          "name": "newOwner",
          "type": "address"
        }
      ],
      "name": "OwnershipTransferred",
      "type": "event"
    },
    {
      "inputs": [],
      "name": "claimOwnership",
      "outputs": [],
      "stateMutability": "nonpayable",
      "type": "function"
    },
    {
      "inputs": [],
      "name": "earthverseDepositAddress",
      "outputs": [
        {
          "internalType": "address",
          "name": "",
          "type": "address"
        }
      ],
      "stateMutability": "view",
      "type": "function"
    },
    {
      "inputs": [],
      "name": "owner",
      "outputs": [
        {
          "internalType": "address",
          "name": "",
          "type": "address"
        }
      ],
      "stateMutability": "view",
      "type": "function"
    },
    {
      "inputs": [],
      "name": "pendingOwner",
      "outputs": [
        {
          "internalType": "address",
          "name": "",
          "type": "address"
        }
      ],
      "stateMutability": "view",
      "type": "function"
    },
    {
      "inputs": [
        {
          "internalType": "bool",
          "name": "isRenounce",
          "type": "bool"
        }
      ],
      "name": "renounceOwnership",
      "outputs": [],
      "stateMutability": "nonpayable",
      "type": "function"
    },
    {
      "inputs": [
        {
          "internalType": "address",
          "name": "_earthverseDepositAddress",
          "type": "address"
        }
      ],
      "name": "setNewEarthverseDepositAddress",
      "outputs": [],
      "stateMutability": "nonpayable",
      "type": "function"
    },
    {
      "inputs": [
        {
          "internalType": "address",
          "name": "newOwner",
          "type": "address"
        },
        {
          "internalType": "bool",
          "name": "direct",
          "type": "bool"
        }
      ],
      "name": "transferOwnership",
      "outputs": [],
      "stateMutability": "nonpayable",
      "type": "function"
    }
  ],
  "bytecode": "0x608060405234801561001057600080fd5b5061001a3361001f565b61006a565b600080546001600160a01b0319166001600160a01b0383169081178255604051909182917f8be0079c531659141344cd1fd0a4f28419497f9722a3daafe3b4186f6b6457e09190a350565b61046e806100796000396000f3fe608060405234801561001057600080fd5b506004361061007d5760003560e01c80638da5cb5b1161005b5780638da5cb5b146100b2578063a3fcc92c146100db578063b242e534146100ee578063e30c39781461010157600080fd5b80631fe24688146100825780634e71e0c8146100975780637e926b4b1461009f575b600080fd5b6100956100903660046103b8565b610114565b005b6100956101de565b6100956100ad3660046103ea565b610230565b6000546001600160a01b03165b6040516001600160a01b03909116815260200160405180910390f35b6002546100bf906001600160a01b031681565b6100956100fc366004610405565b61027d565b6001546100bf906001600160a01b031681565b336101276000546001600160a01b031690565b6001600160a01b03161461014e5760405163a5653ae560e01b815260040160405180910390fd5b6001600160a01b038116610175576040516393a6823560e01b815260040160405180910390fd5b600254604080516001600160a01b03928316815291831660208301527f7ad173db0e26925c326a5ed86f309f4baef4bb36d8ee194d432e6cf0551cef24910160405180910390a1600280546001600160a01b0319166001600160a01b0392909216919091179055565b6001546001600160a01b0316331461020957604051636afa1bbf60e11b815260040160405180910390fd5b60015461021e906001600160a01b0316610351565b600180546001600160a01b0319169055565b336102436000546001600160a01b031690565b6001600160a01b03161461026a5760405163a5653ae560e01b815260040160405180910390fd5b801561027a5761027a6000610351565b50565b336102906000546001600160a01b031690565b6001600160a01b0316146102b75760405163a5653ae560e01b815260040160405180910390fd5b6001600160a01b0382166102de5760405163a5653ae560e01b815260040160405180910390fd5b8015610330576000546001600160a01b03908116908316036103135760405163d667803b60e01b815260040160405180910390fd5b61031c82610351565b600180546001600160a01b03191690555050565b600180546001600160a01b0384166001600160a01b03199091161790555050565b600080546001600160a01b0319166001600160a01b0383169081178255604051909182917f8be0079c531659141344cd1fd0a4f28419497f9722a3daafe3b4186f6b6457e09190a350565b80356001600160a01b03811681146103b357600080fd5b919050565b6000602082840312156103ca57600080fd5b6103d38261039c565b9392505050565b803580151581146103b357600080fd5b6000602082840312156103fc57600080fd5b6103d3826103da565b6000806040838503121561041857600080fd5b6104218361039c565b915061042f602084016103da565b9050925092905056fea2646970667358221220ada0adee03bc806e46d305a256702bdf7768ed3f1300dec70ad8cdd8ba332fda64736f6c63430008110033",
  "linkReferences": {},
  "deployedLinkReferences": {}
}