{
  "_format": "hh-sol-artifact-1",
  "contractName": "AccessContract",
  "sourceName": "contracts/AccessContract.sol",
  "abi": [
    {
      "inputs": [
        {
          "internalType": "address",
          "name": "availableContract",
          "type": "address"
        }
      ],
      "name": "AccessContract_AlreadyAvailableContractAdded",
      "type": "error"
    },
    {
      "inputs": [],
      "name": "AccessContract_ZeroAddress",
      "type": "error"
    },
    {
      "inputs": [],
      "name": "Ownable_CallerIsNotPendingOwner",
      "type": "error"
    },
    {
      "inputs": [],
      "name": "Ownable_CallerIsNotTheOwner",
      "type": "error"
    },
    {
      "inputs": [],
      "name": "Ownable_NewOwnerMustBeADifferentAddressThanTheCurrentOwner",
      "type": "error"
    },
    {
      "anonymous": false,
      "inputs": [
        {
          "indexed": false,
          "internalType": "address",
          "name": "removedContractAddress",
          "type": "address"
        }
      ],
      "name": "AvailableContractAddressRemoved",
      "type": "event"
    },
    {
      "anonymous": false,
      "inputs": [
        {
          "indexed": false,
          "internalType": "address",
          "name": "newContractAddress",
          "type": "address"
        }
      ],
      "name": "NewAvailableContractAddressAdded",
      "type": "event"
    },
    {
      "anonymous": false,
      "inputs": [
        {
          "indexed": true,
          "internalType": "address",
          "name": "previousOwner",
          "type": "address"
        },
        {
          "indexed": true,
          "internalType": "address",
          "name": "newOwner",
          "type": "address"
        }
      ],
      "name": "OwnershipTransferred",
      "type": "event"
    },
    {
      "inputs": [
        {
          "internalType": "address",
          "name": "newContractAddress",
          "type": "address"
        }
      ],
      "name": "addNewAvailableContractAddress",
      "outputs": [],
      "stateMutability": "nonpayable",
      "type": "function"
    },
    {
      "inputs": [
        {
          "internalType": "address",
          "name": "",
          "type": "address"
        }
      ],
      "name": "availableContracts",
      "outputs": [
        {
          "internalType": "bool",
          "name": "",
          "type": "bool"
        }
      ],
      "stateMutability": "view",
      "type": "function"
    },
    {
      "inputs": [],
      "name": "claimOwnership",
      "outputs": [],
      "stateMutability": "nonpayable",
      "type": "function"
    },
    {
      "inputs": [],
      "name": "owner",
      "outputs": [
        {
          "internalType": "address",
          "name": "",
          "type": "address"
        }
      ],
      "stateMutability": "view",
      "type": "function"
    },
    {
      "inputs": [],
      "name": "pendingOwner",
      "outputs": [
        {
          "internalType": "address",
          "name": "",
          "type": "address"
        }
      ],
      "stateMutability": "view",
      "type": "function"
    },
    {
      "inputs": [
        {
          "internalType": "address",
          "name": "removeContractAddress",
          "type": "address"
        }
      ],
      "name": "removeAvailableContractAddress",
      "outputs": [],
      "stateMutability": "nonpayable",
      "type": "function"
    },
    {
      "inputs": [
        {
          "internalType": "bool",
          "name": "isRenounce",
          "type": "bool"
        }
      ],
      "name": "renounceOwnership",
      "outputs": [],
      "stateMutability": "nonpayable",
      "type": "function"
    },
    {
      "inputs": [
        {
          "internalType": "address",
          "name": "newOwner",
          "type": "address"
        },
        {
          "internalType": "bool",
          "name": "direct",
          "type": "bool"
        }
      ],
      "name": "transferOwnership",
      "outputs": [],
      "stateMutability": "nonpayable",
      "type": "function"
    }
  ],
  "bytecode": "0x608060405234801561001057600080fd5b5061001a3361001f565b61006a565b600080546001600160a01b0319166001600160a01b0383169081178255604051909182917f8be0079c531659141344cd1fd0a4f28419497f9722a3daafe3b4186f6b6457e09190a350565b61059d806100796000396000f3fe608060405234801561001057600080fd5b50600436106100885760003560e01c8063b242e5341161005b578063b242e53414610107578063c210b8651461011a578063e30c39781461012d578063e7c64f4e1461014057600080fd5b806316f4412a1461008d5780634e71e0c8146100c55780637e926b4b146100cf5780638da5cb5b146100e2575b600080fd5b6100b061009b3660046104e7565b60026020526000908152604090205460ff1681565b60405190151581526020015b60405180910390f35b6100cd610153565b005b6100cd6100dd366004610519565b6101a5565b6000546001600160a01b03165b6040516001600160a01b0390911681526020016100bc565b6100cd610115366004610534565b6101f2565b6100cd6101283660046104e7565b6102c6565b6001546100ef906001600160a01b031681565b6100cd61014e3660046104e7565b6103cd565b6001546001600160a01b0316331461017e57604051636afa1bbf60e11b815260040160405180910390fd5b600154610193906001600160a01b0316610480565b600180546001600160a01b0319169055565b336101b86000546001600160a01b031690565b6001600160a01b0316146101df5760405163a5653ae560e01b815260040160405180910390fd5b80156101ef576101ef6000610480565b50565b336102056000546001600160a01b031690565b6001600160a01b03161461022c5760405163a5653ae560e01b815260040160405180910390fd5b6001600160a01b0382166102535760405163a5653ae560e01b815260040160405180910390fd5b80156102a5576000546001600160a01b03908116908316036102885760405163d667803b60e01b815260040160405180910390fd5b61029182610480565b600180546001600160a01b03191690555050565b600180546001600160a01b0384166001600160a01b03199091161790555050565b806001600160a01b0381166102ee576040516393a6823560e01b815260040160405180910390fd5b336103016000546001600160a01b031690565b6001600160a01b0316146103285760405163a5653ae560e01b815260040160405180910390fd5b6001600160a01b03821660009081526002602052604090205460ff161561037157604051635bb7312160e11b81526001600160a01b038316600482015260240160405180910390fd5b6001600160a01b038216600081815260026020908152604091829020805460ff1916600117905590519182527f3aa524755829016034f2823014bac43ff6eef092909806f57e4630a3d218bfdc91015b60405180910390a15050565b806001600160a01b0381166103f5576040516393a6823560e01b815260040160405180910390fd5b336104086000546001600160a01b031690565b6001600160a01b03161461042f5760405163a5653ae560e01b815260040160405180910390fd5b6001600160a01b038216600081815260026020908152604091829020805460ff1916905590519182527fdb0953c6768f90a1ee20f851e0ac3aaebf04082e849a3059bc696df2b9483a0b91016103c1565b600080546001600160a01b0319166001600160a01b0383169081178255604051909182917f8be0079c531659141344cd1fd0a4f28419497f9722a3daafe3b4186f6b6457e09190a350565b80356001600160a01b03811681146104e257600080fd5b919050565b6000602082840312156104f957600080fd5b610502826104cb565b9392505050565b803580151581146104e257600080fd5b60006020828403121561052b57600080fd5b61050282610509565b6000806040838503121561054757600080fd5b610550836104cb565b915061055e60208401610509565b9050925092905056fea2646970667358221220d2655788130e5d0254fd439fbacca86a72f4aaa03cf5267412177b82fbd0c55764736f6c63430008110033",
  "linkReferences": {},
  "deployedLinkReferences": {}
}